:020000040000FA
:10000000B0C20720E1000000E9000000EB000000A2
:10001000ED000000EF000000F10000000000000013
:10002000000000000000000000000000F3000000DD
:10003000F500000000000000F7000000F9000000DB
:10004000FB000000FB000000FB000000FB000000C4
:10005000FB00000047160000FB000000FB00000052
:10006000FB000000FB000000FB000000FB000000A4
:10007000FB000000FB000000FB000000FB00000094
:10008000FB000000FB000000FB000000FB00000084
:10009000FB000000FB000000FB000000FB00000074
:1000A000FB000000FB000000FB000000FB00000064
:1000B000FB000000FB000000FB000000FB00000054
:1000C000FB000000FB000000FB000000DFF80CD08C
:1000D00000F0C0F80048004751150000B0C20720EA
:1000E0000648804706480047FEE7FEE7FEE7FEE7D2
:1000F000FEE7FEE7FEE7FEE7FEE7FEE73904000065
:10010000CD00000010B50A46202801D2034601E0C8
:10011000A0F120031946202814D2464B1B684FF04B
:10012000030404FA01F423EA0403434CC4F8A8319D
:10013000404B1B6802FA01F443EA04033E4CC4F846
:10014000A83113E03D4B1B684FF0030404FA01F49F
:1001500023EA0403384CC4F8AC31384B1B6802FA6C
:1001600001F443EA0403344CC4F8AC3110BD014639
:10017000202903D20A462F4B186803E0A1F1200280
:100180002E4B186820FA02F303F00300704770B595
:1001900006462B4804683046FFF7E9FF054635B1AF
:1001A000012D06D0022D06D0032D08D105E004252F
:1001B00005E0012503E0022501E0082500BF00BF9E
:1001C000B4FBF5F4204670BD01290AD11D4A12681E
:1001D0001D4B00EA030342EA0302174BC3F8C42095
:1001E0000AE049B9174A1268174B23EA000302EAEA
:1001F0000302114BC3F8C420704700201349086064
:1002000030BF704704201249086008200F49086079
:1002100030BF704704200E49086009200B49086070
:1002200030BF704704200A4908600320074908606E
:1002300030BF7047A8C10F4000C00F40ACC10F4095
:1002400000000010C4C00F40DEF7EFEFC0C00F4049
:1002500010ED00E0064C074D06E0E06840F00103B9
:1002600094E8070098471034AC42F6D3FFF732FF0A
:1002700098020000D802000002E008C8121F08C15E
:10028000002AFAD170477047002001E001C1121F17
:10029000002AFBD170470000D89602000000001031
:1002A0002C000000780200000497020000C0072024
:1002B000AC00000078020000049702002C0000103F
:1002C0001002000088020000B0970200ACC00720B6
:1002D000040200008802000000000000000000008E
:1002E000000000000000000000000000000000000E
:1002F000000000000000000000000000FFFFFFFF02
:1003000094480068C0F30160032864D192480068F3
:1003100010F0030006D0012823D002283FD0032884
:1003200058D100E000BF8B480068C0F30E0000F118
:1003300001004FEA4000894900FB01F08849D1F8EB
:100340008810C1F3074101F10101B0FBF1F18548CB
:100350000068C0B200F10100B1FBF0F08249086012
:1003600038E07C480068C0F30E0000F101004FEA5D
:1003700040007E4900FB01F07949D1F88810C1F3B3
:10038000074101F10101B0FBF1F176480068C0B20C
:1003900000F10100B1FBF0F0734908601AE06D480C
:1003A0000068C0F30E0000F101004FEA00416C4804
:1003B000D0F88800C0F3074000F10100B1FBF0F174
:1003C00068480068C0B200F10100B1FBF0F0664976
:1003D000086000BF2FE06048006810F0030006D0FE
:1003E000012810D0022819D0032823D100E000BF33
:1003F0005C480068C0B200F101005849B1FBF0F060
:100400005949086016E057480068C0B200F1010081
:100410005649B1FBF0F0544908600BE051480068C0
:10042000C0B200F101004FF40041B1FBF0F04E49C1
:10043000086000BF00BF704720204D490860484851
:10044000D0F8A00110F0200F05D000BF4848006888
:1004500010F0400FFAD00320424908604FF000002E
:100460003F49C1F8A801434908604FF001003A49EB
:1004700008604148414908604FF0AA0040490860BF
:100480004FF0550008604FF001003E4908604FF002
:10049000AA003B4908604FF055003149C1F88C0073
:1004A00000BF2C48006810F0806FFAD00320354957
:1004B00008604FF0AA002A49C1F88C004FF055009F
:1004C0002F49086000BF2348006810F0407FFAD031
:1004D00023202D4908604FF0AA002149C1F8AC0043
:1004E0004FF05500294908604FF001002849086085
:1004F0004FF0AA00254908604FF055001849C1F88F
:10050000AC0000BF2348006810F4806FFAD00320CD
:100510001F4908604FF0AA001149C1F8AC004FF024
:1005200055001A49086000BF1A48006810F4407F5F
:10053000FAD01948194908604FF000000849C1F87D
:10054000C80143F23A0008604FF000001449086007
:100550007047000088C00F400CC10F4000093D00EB
:1005600000C00F4004C10F4000000010001BB70086
:10057000A0C10F40ACC10F401700010084C00F4064
:100580008CC00F4080C00F40A4C00F40ACC00F40D3
:10059000A0C00F40A8C00F40DE872804C4C00F4091
:1005A00008ED00E001460020052912D2DFE801F045
:1005B0000305080B0E00F7480CE0F648203009E070
:1005C000F448403006E0F348603003E0F148803002
:1005D00000E000BF00BF704701460020052912D28D
:1005E000DFE801F00305080B0E00EA480CE0E948DB
:1005F000203009E0E748403006E0E648603003E09C
:10060000E448803000E000BF00BF70470146002092
:10061000052912D2DFE801F00305080B0E00DD48C2
:100620000CE0DC48203009E0DA48403006E0D948E8
:10063000603003E0D748803000E000BF00BF704763
:100640002DE9F04107460D4616463846FFF7AAFF4A
:1006500004463CB11EB120682843206002E02068B7
:10066000A8432060BDE8F08170B506460C463046D0
:10067000FFF798FF054605B1AC6170BD70B5064641
:100680000C463046FFF78EFF054605B1EC6170BDA4
:1006900070B505462846FFF785FF04460CB1606932
:1006A00070BD0020FCE718B912B9BB4B196014E00B
:1006B000022803D112B9B94B19600EE020B9012A02
:1006C00002D1B74B196008E0022804D1012A02D1F7
:1006D000B44B196001E000BFFEE7704703463BB929
:1006E00032B9B148006820FA01F000F0010070470B
:1006F000022B07D132B9AD48006820FA01F000F0B2
:100700000100F4E743B9012A06D1A948006820FA9C
:1007100001F000F00100EAE7022B08D1012A06D11E
:10072000A448006820FA01F000F00100DFE700BFF4
:10073000FEE710B9A04A116006E0022802D19F4AE4
:10074000116001E000BFFEE7704770B504460D463A
:100750001646324629462046FFF772FF70BD70B537
:1007600004460D4629462046FFF77EFF70BD70B552
:1007700004460D4629462046FFF780FF70BD10B5A0
:1007800004462046FFF784FF10BD70B504460D46B1
:100790001646324629462046FFF785FF70BD70B5E4
:1007A00004460D461646324629462046FFF796FF78
:1007B00070BD10B503460C4621461846FFF7B9FF39
:1007C00010BD2DE9F04107460D4616463846FFF7A5
:1007D000E9FE04463CB11EB120692843206102E0D5
:1007E0002069A8432061BDE8F0812DE9F0418046F1
:1007F0000E4615461F464046FFF7EEFE04468CB1F6
:1008000047B11EB16088284360800BE020882843F0
:10081000208007E01EB16088A843608002E0208845
:10082000A8432080BDE8F0812DE9F04180460E46C6
:1008300015461F464046FFF7CFFE04468CB147B130
:100840001EB1608A284360820BE0208A2843208200
:1008500007E01EB1608AA843608202E0208AA843B4
:100860002082BDE8F0812DE9F04107460E4614468E
:100870003846FFF7B1FE05461DB10EB16C8300E0AE
:100880002C83BDE8F0812DE9F04107460E46144661
:100890003846FFF7A1FE05461DB10EB1EC8300E01E
:1008A000AC83BDE8F08170B506460D463046FFF7D3
:1008B00093FE044624B10DB1E08A70BDA08AFCE726
:1008C0000020FAE72DE9F04180460C4616461F4607
:1008D0004046FFF79BFE05467DB13FB1002C0CDB87
:1008E000032C0ADC285D3043285506E0002C04DB8D
:1008F000032C02DC285DB0432855BDE8F0812DE9CA
:10090000F04180460C4616461F464046FFF77EFEE5
:100910000546BDB15FB1002C14DB032C12DC05F1E0
:100920001000005D304305F1100108550AE0002C6D
:1009300008DB032C06DC05F11000005DB04305F177
:1009400010010855BDE8F0812DE9F04107460C463D
:1009500015463846FFF75AFE064636B1002C04DB32
:10096000032C02DC06F118000555BDE8F0812DE9E5
:10097000F04107460C4615463846FFF747FE064647
:1009800036B1002C04DB032C02DC06F11C000555FB
:10099000BDE8F08100C0092090800240B080024094
:1009A00094800240B480024084800240A4800240CF
:1009B00088800240A88002408C800240AC800240C7
:1009C00070B506460C463046FFF720FE05463DB1A1
:1009D000002C05DB032C03DC05F11400005D70BD69
:1009E0000020FCE7F0B504460B46154619466000AA
:1009F0003B4A102901D31039401C52F820604FEABD
:100A0000410C032707FA0CF7BE4342F8206052F866
:100A100020604F0005FA07F73E4342F82060F0BD22
:100A2000F0B504460B461546194660002C4A403284
:100A3000102901D31039401C52F820604FEA410CB4
:100A4000032707FA0CF7BE4342F8206052F82060F3
:100A50004F0005FA07F73E4342F82060F0BD30B57D
:100A60000B461F496831012A07D151F82040012562
:100A70009D402C4341F8204006E051F820400125DC
:100A80009D40AC4341F8204030BD012806D11449B7
:100A9000896A41F00801124A916206E028B91049BA
:100AA000896A21F008010E4A91627047012800D13D
:100AB000052201B90A220A4BDA67704710B50446CD
:100AC000A27861782078FFF78DFFE278617820784E
:100AD000FFF7A6FF227961782078FFF7C0FF10BDED
:100AE00000C002402DE9F04F87B004460D460020BB
:100AF000069005900490804601200390002002900B
:100B000082468346F6480190F648844204D1062086
:100B1000FFF73DFB064616E0F348844204D1082067
:100B2000FFF735FB06460EE0F048844204D1302042
:100B3000FFF72DFB064606E0ED48844203D1322044
:100B4000FFF725FB06463609012742E04FF0000972
:100B500036E007FB06F007EB0901B0FBF1F004906B
:100B60000498B0FBF5F80498B0FBF5F105FB110013
:100B7000B0EB550F01D908F10108B8F1020F1DD9EA
:100B8000B8F5803F1AD20498B0FBF8F005900598AC
:100B9000A84203D80598A5EB000B02E00598A0EB4E
:100BA000050B0198834509D20397CDF80890C246FA
:100BB000CDF804B0BBF1000F00D104E009F1010948
:100BC000B9F10F0FC5D900BFBBF1000F00D102E092
:100BD0007F1C0F2FBAD900BF05EB45006421B0FB85
:100BE000F1F10198814232D9BF48844216D1207B6D
:100BF00040F0800020734FEA1A20207184F800A092
:100C0000207B00F07F002073F021039801EA0010A0
:100C1000029901F00F010843A06216E0207B40F02A
:100C2000800020734FEA1A20207184F800A0207BF6
:100C300000F07F002073F021039801EA0010029970
:100C400001F00F01084384F828000120069006985F
:100C500007B0BDE8F08F70B504460D46A148844248
:100C600008D0A148844205D0A048844202D0A048C0
:100C7000844200D103E0BF219EA000F0BEFD687950
:100C800040B16879012805D06879022802D06879D6
:100C9000032800D103E0C02196A000F0AEFDA879A2
:100CA00010B1A879012800D103E0C12191A000F082
:100CB000A4FD287958B12879012808D0287902287C
:100CC00005D02879032802D02879042800D103E030
:100CD000C22188A000F091FD8248844203D1012105
:100CE0000820FFF771FA8048844221D10720207242
:100CF0000020207200E02678207D10F0010FFAD14C
:100D0000802084F8300000BF207D10F0200FFBD041
:100D1000002084F83000606020732062207484F822
:100D20004C0084F8540084F85000267E267D18E09C
:100D3000072020720020207200E02678207D10F02D
:100D4000010FFAD1802084F8300000BF207D10F020
:100D5000200FFBD0002084F83000606020732062F8
:100D6000267D6348844202D1002084F82400204676
:100D70002968FFF7B7FE5C48844203D1207B00F06E
:100D8000C00602E0207B00F0C006687930B101287F
:100D900006D0022807D0032808D108E000BF09E0E8
:100DA00046F0010606E046F0020603E000BF46F00A
:100DB000030600BF00BF2879C0B146F008062879B5
:100DC000012806D0022806D0032807D004280BD11A
:100DD00007E000BF09E046F0100606E046F02006F6
:100DE00003E046F0300600E000BF00BFA87928B15C
:100DF000012802D146F0040601E000BF00BF00BF99
:100E00003948844201D1267300E0267370BD70B565
:100E100004460D463348844208D03348844205D006
:100E20003248844202D03248844200D104E04FF478
:100E3000787130A000F0E1FC0DB1012D00D104E08B
:100E400040F2E1312BA000F0D8FC012D10D1264852
:100E5000844206D194F8300040F0800084F83000DD
:100E600014E094F8300040F0800084F830000DE089
:100E70001D48844205D194F83000002084F83000E9
:100E800004E094F83000002084F8300070BD10B504
:100E900004461448844208D01348844205D01348BD
:100EA000844202D01248844200D104E040F28B1107
:100EB00010A000F0A2FC00212046FFF7A8FF09487F
:100EC000844203D100210820FFF77EF910BD4FF4C2
:100ED0001651016003214171002101718171704738
:100EE000A086010000C000400000014000800940D1
:100EF00000C009402E2E5C447269766572735C7383
:100F00006F757263655C6C7063313778785F75619B
:100F100072742E630000000070B504460D46FC4854
:100F2000844208D0FB48844205D0FB48844202D06A
:100F3000FA48844200D105E040F2CF11AFF24C00F4
:100F400000F05BFCF348844201D1257000E025707D
:100F500070BD10B50446EE48844208D0ED48844286
:100F600005D0ED48844202D0EC48844200D105E02F
:100F70004FF4F471AFF2840000F03FFCE548844286
:100F800001D1207810BD2078FCE72DE9FF5F804675
:100F90008A46934657465C460398012824D100258B
:100FA0001FE04FF0FF3905E0B9F1000F00D106E076
:100FB000A9F1010998F8140010F0200FF4D000BF37
:100FC000B9F1000F00D10EE0102607E017F8011B61
:100FD0004046FFF7A1FF761E641E6D1C0EB1002C6B
:100FE000F4D1002CDDD117E0002512E098F81400B0
:100FF00010F0200F00D10EE0102607E017F8011BBB
:101000004046FFF789FF641E761E6D1C0EB1002C52
:10101000F4D1002CEAD100BF284604B0BDE8F09F0F
:101020002DE9F05F0746894692469B464E46554657
:10103000BBF1010F1DD1002418E04FF0FF3805E08F
:10104000B8F1000F00D105E0A8F10108387D10F0DB
:10105000010FF5D000BFB8F1000F00D108E038460D
:10106000FFF777FF06F8010B6D1E641C002DE4D11D
:1010700010E000240BE0387D10F0010F00D108E0F3
:101080003846FFF766FF06F8010B641C6D1E002D45
:10109000F1D100BF2046BDE8F09F10B504469C4842
:1010A000844208D09B48844205D09B48844202D0A9
:1010B0009A48844200D105E040F27A21AFF2CC1088
:1010C00000F09BFB9348844204D1207B40F0400019
:1010D000207303E0207B40F04000207310BD2DE919
:1010E000F04104460D4617468948844208D0894895
:1010F000844205D08848844202D08848844200D186
:1011000005E040F2A121AFF2142000F076FB0FB110
:10111000012F00D105E040F2A221AFF2282000F01B
:101120006CFB072D15D2DFE805F00406080A0C0E4B
:10113000110001260DE002260BE0042609E0082636
:1011400007E0802605E04FF4807602E04FF4007659
:1011500000BF00BF6F48844214D15DB1012D09D09A
:10116000022D07D0052D05D0062D03D0032D01D06B
:10117000042D00D116E040F2BE21AFF2882000F02D
:101180003CFB0FE03DB1012D05D0022D03D0052D14
:1011900001D0062D00D105E040F2C221AFF2AC2013
:1011A00000F02BFB012F0AD15A48844203D160681A
:1011B0003043606013E06068304360600FE0554882
:1011C000844206D1606840F28F31B14308406060CC
:1011D00005E0606840F20731B14308406060BDE857
:1011E000F08110B504464A48844208D049488442F8
:1011F00005D04948844202D04848844200D105E0E5
:101200004FF43C71AFF2143000F0F7FA41488442D9
:1012100001D1007D10BD207DFCE710B504463C489F
:10122000844208D03B48844205D03B48844202D0E7
:101230003A48844200D105E040F20731AFF24C3029
:1012400000F0DBFAA06840F2CF31084010BD014643
:10125000087D10F0400F01D0002070470120FCE70E
:1012600070B506460C4600252948864208D0294814
:10127000864205D02848864202D02848864200D1BE
:1012800005E040F22D31AFF2943000F0B6FAE0788C
:1012900040B1E078012805D0E078022802D0E0785B
:1012A000032800D105E040F22E31AFF2B83000F053
:1012B000A4FAA07810B1A078012800D105E040F28E
:1012C0002F31AFF2D03000F098FA207810B12078AA
:1012D000012800D105E04FF44C71AFF2E83000F086
:1012E0008CFA607810B16078012800D105E040F2F6
:1012F0003131AFF2004000F080FA45F00105E078AE
:1013000070B101280ED002280FD0032810D110E0B0
:1013100000C00040000001400080094000C00940BA
:1013200000BF09E045F0400506E045F0800503E018
:1013300000BF45F0C00500BF00BF6078012801D1A3
:1013400045F004052078012801D145F00205A07878
:10135000012801D145F008054948864203D105F02E
:10136000CF00307202E005F0CF00307270BD002176
:101370008170C17001210170417070472DE9F04109
:1013800004460F4615463F48844208D03C488442F4
:1013900005D03D48844202D03C48844200D105E05B
:1013A0004FF46271AFF2B44000F027FA0DB1012D95
:1013B00000D105E040F28931AFF2C84000F01DFADB
:1013C0000026012D09D13878012801D146F0020606
:1013D0007878012801D146F004062948844215D1C5
:1013E000012D10D1207B40F0800020730020207060
:1013F0002071207B20F0800020731020A06246F036
:101400000100206218E00020206215E0012D11D1BA
:10141000207B40F080002073002020702071207B12
:1014200020F080002073102084F8280046F001008E
:10143000206201E000202062BDE8F08170B5044622
:101440000D461048844208D00D48844205D00E480D
:10145000844202D00D48844200D105E040F2C931F7
:10146000AFF2705000F0C9F90548844203D1206AF8
:101470002843206202E0206A2843206270BD0000F9
:101480000000014000C000400080094000C0094049
:1014900010B504462CB1012211070020FFF7D0F847
:1014A00005E000224FF080511046FFF7C9F810BD4B
:1014B00010B504463CB1012C04D101070020FFF710
:1014C000D3F806E000BF4FF080510020FFF7D6F8B8
:1014D00000BF00BF10BD70B51C2400251D4E07E0E5
:1014E000E2B231461C4800F053F905462E44641B15
:1014F000002CF5D162240025184E07E0E2B23146F7
:10150000154800F045F905462E44641B002CF5D122
:1015100070BD00BF0120FFF7BBFF0020FFF7C8FF31
:1015200000F07AF900240DE004EB44020C4B03EBCD
:10153000C20104EB44020B4B03EBC200182200F083
:1015400037FA641C41F66F208442EDD300BFFEE7FA
:10155000FFF7DFFF00C0072000C000401CC00720CD
:10156000581C0000404E030000E000BFFDE710B52E
:1015700000220121A248FFF7B2FD00BFA048FFF7FB
:1015800066FE0128FAD011E09E484268103011181A
:10159000002301229A48FFF7F8FC30B199484068CF
:1015A000401CC0B29749486000E007E095480068D9
:1015B000C0B294494968C9B28842E5D100BF914898
:1015C0000068C0B28F494968C9B2884208D1002278
:1015D00001218B48FFF783FD00208B49087007E04D
:1015E000012089490870012211468548FFF777FDDF
:1015F00010BD38B524E00023012269468048FFF77A
:101600000FFD0446DCB17F48C068C1B27D488068E8
:10161000401CC0B2814213D09DF800107948826806
:1016200000F58870815477488068401CC0B27549C5
:10163000886076480068401C7449086000E000E05B
:10164000D9E700BF38BD70B56D48FFF7E6FD054628
:1016500005F00E04062C06D16948FFF7C2FD0646C8
:1016600006F09E0600BF042C01D00C2C01D1FFF720
:10167000C0FF022C01D1FFF77AFF70BD10B586B014
:1016800001208DF8060000208DF808008DF8070075
:1016900002208DF8050000208DF8040001A8FFF756
:1016A0000DFA03208DF8050001A8FFF707FA04A83A
:1016B000FFF70DFC04A95248FFF7CDFA03A8FFF786
:1016C00056FE03A94E48FFF7CBFD01214C48FFF71A
:1016D0009EFB012200214A48FFF701FD0122022161
:1016E0004748FFF7FCFC00204749087045498860DF
:1016F000C8600860486005200921002807DACA068A
:10170000140E434A00F00F031B1FD45403E0CA0613
:10171000130E404A135400BF0520012181404209A5
:101720004FF0E02303EB8202C2F8001100BF06B0C5
:1017300010BD2DE9F04180460D4614462E46002787
:10174000002211464046FFF7CAFC0FE02D48C16851
:1017500000F58870405C3070761C2A48C068401CD8
:10176000C0B22849C8607F1C601EC4B2002C07DDCF
:1017700024488068C0B22349C968C9B28842E5D10B
:10178000012200214046FFF7AAFC3846BDE8F0815F
:101790002DE9F04180460D4614462E4600270022D2
:1017A00001214046FFF79BFC0EE0317815480268A6
:1017B00010308154761C10380068401CC0B21149AA
:1017C00008607F1C601EC4B2002C08DD0D48406814
:1017D000C1B20C480068401CC0B28142E5D10A4841
:1017E000007810B9FFF7C3FE04E00122114640461D
:1017F000FFF775FC3846BDE8F08100BFFEE700004A
:1018000000C000402C00001029000010040000104F
:1018100018ED00E000E400E00EB5002002908DF825
:1018200002008DF804008DF8030001208DF80000FF
:1018300004208DF801006846FFF740F908208DF874
:1018400001006846FFF73AF909208DF80100684663
:10185000FFF734F90A208DF801006846FFF72EF9EA
:101860000E208DF801006846FFF728F90F208DF84B
:1018700001006846FFF722F9012248F21071104674
:10188000FEF7DEFE00224FF480410120FEF7D8FE75
:101890004FF400410120FEF7E7FE10210120FEF782
:1018A000E3FE4FF480610120FEF7DEFE4FF480710D
:1018B0000120FEF7E3FE0EBD00BF0100A0F1010014
:1018C000FBD1704770B5044600251BE014F0800F73
:1018D00005D04FF400710120FEF7C6FE04E04FF47E
:1018E00000710120FEF7CAFE4FF480710120FEF75F
:1018F000BBFE6006040E4FF480710120FEF7BEFEB1
:10190000681CC5B2082DE1DB70BD70B50025002450
:10191000002600BF15E06006040E0120FEF7B8FEA9
:1019200010F4804F01D044F001044FF48071012085
:10193000FEF79AFE4FF480710120FEF79FFE681CAF
:10194000C5B2082DE7DB204670BD2DE9F041044605
:101950000D46174600266019B0F1007F00D215B978
:101960000020BDE8F0814FF400410120FEF786FE23
:101970000B20FFF7A7FFC4F30740FFF7A3FFC4F353
:101980000720FFF79FFFE0B2FFF79CFFFF20FFF764
:1019900099FF002603E0FFF7B8FFB855761CAE426A
:1019A000F9D34FF400410120FEF75EFE0120D8E795
:1019B0002DE9F04705460F4616464FF00008002473
:1019C000A146A819401EB0F1007F00D216B9002030
:1019D000BDE8F0874FF400410120FEF74FFE0520DF
:1019E000FFF770FFFFF791FF80464FF400410120A1
:1019F000FEF73AFE4FF400410120FEF73FFE502073
:101A0000FFF760FF4FF400410120FEF72DFE4FF479
:101A100000410120FEF732FE0120FFF753FF0020B6
:101A2000FFF750FF4FF400410120FEF71DFE002498
:101A300040E04FF400410120FEF720FE0620FFF7B2
:101A400041FF4FF400410120FEF70EFE4FF400412C
:101A50000120FEF713FE0220FFF734FF2919C1F31E
:101A60000740FFF72FFF2919C1F30720FFF72AFFCF
:101A70002919C8B2FFF726FF385DFFF723FF4FF49F
:101A800000410120FEF7F0FD00BF4FF400410120AE
:101A9000FEF7F4FD0520FFF715FFFFF736FF81463F
:101AA0004FF400410120FEF7DFFDB9F1030FECD048
:101AB000601CC4B2B442BCD34FF400410120FEF715
:101AC000DDFD0620FFF7FEFE4FF400410120FEF78A
:101AD000CBFD4FF400410120FEF7D0FD5020FFF771
:101AE000F1FE4FF400410120FEF7BEFD4FF400412E
:101AF0000120FEF7C3FD0120FFF7E4FE4046FFF79B
:101B0000E1FE4FF400410120FEF7AEFD01205FE74A
:101B10002DE9F0470025002600240027A046A14615
:101B20004FF400410120FEF7A9FD0520FFF7CAFE92
:101B3000FFF7EBFE05464FF400410120FEF794FD50
:101B40004FF400410120FEF799FD5020FFF7BAFE47
:101B50004FF400410120FEF787FD4FF400410120C2
:101B6000FEF78CFD0120FFF7ADFE0020FFF7AAFE77
:101B70004FF400410120FEF777FD4FF400410120B2
:101B8000FEF77CFD0620FFF79DFE4FF4004101208B
:101B9000FEF76AFD4FF400410120FEF76FFD602063
:101BA000FFF790FE4FF400410120FEF75DFD00BFFE
:101BB0004FF400410120FEF761FD0520FFF782FE92
:101BC000FFF7A3FE04464FF400410120FEF74CFD51
:101BD000032CEDD00120BDE8F08770B505460E4618
:101BE0000024012D17D1C103FEF748FD9F20FFF708
:101BF00069FEFFF78AFE20430402FFF786FE2043BA
:101C00000402FFF782FE0443E9030120FEF72CFDE6
:101C10003460012070BD0DB1022D1BD14FF4004185
:101C20000120FEF72BFD9020FFF74CFE0020FFF770
:101C300049FE0020FFF746FE2846FFF743FEFFF768
:101C400064FE04464FF400410120FEF70DFD3460B0
:101C50000120DFE70020DDE77E427EFF89F778493B
:101C60007901FF00000000070000000004040700E5
:101C7000FF8995E30079497901FF01000700000021
:101C800000000004040700000808FF88C4B6A5E4AB
:101C9000A4A6840001010004040201000102040062
:101CA0004444FFA4C0B4A6E5A4A68C000004070425
:101CB0000402010001020400FE82FE00027782821B
:101CC000770202000000040404020101020404007F
:101CD000FE82FE80E49E95F4959684000000000448
:101CE000040201000102040002023AAA6A6BAA2A55
:101CF000BA420200020201070402000102040400C9
:101D0000FC2625FC00D65457547406000301010339
:101D1000000704040404070048FE02E2AEEA0BEAEE
:101D2000AAAEE2000601000604040704040600004F
:101D300022E60A83FE2A2BAA2A7EC20000030200A2
:101D400003020302070403002C27FC24AA9ACABF3B
:101D50008999A80004030005040502020304040095
:101D600002020232CF02824F320202000404040255
:101D7000020101020404040021F917F1005F555526
:101D800055DF4000000301030001030505070100C2
:101D9000182A2A2EFAAEA9ADAB29180004040205B0
:101DA0000502020504040400FF919FE465D64CC4BB
:101DB0004ED52400070004070407040704070400A5
:101DC000E2AFFAAFE226E23B22E22600020207027D
:101DD000020405030102040088E6ABEABAAAAA6A73
:101DE000FA020200040405020203060401020700CD
:101DF000282622E2BA2322E2222A2600040404042E
:101E0000020301020204040010FC4322FA56FB56AE
:101E1000FA1222000007000001010705050407006F
:101E20004424FF1426E23A23A26226000404070099
:101E30000404050301020400FE1212FE12D65A53D6
:101E40005AD612000301010300070505050700002B
:101E500000F714545457D45454571000040301018C
:101E6000010107010101010000FF49FF26A2E23B39
:101E700022E2260006010407040404030102040010
:101E8000848ACABAAEEBBAAACA8A860004040402DB
:101E9000010701020404040000FF49FF04F41516C1
:101EA000F40404000601040704030000070407000B
:101EB00000C05F555515D5555FC0000000030201F5
:101EC00001000701020300004848CEAA9A8F9AAA8F
:101ED000AEC848000404070407040704040704000C
:101EE00000FE02023E20203E0202FE000007020227
:101EF00002020202020207002A2AEABFAA22107F77
:101F0000847C0400040304040304040201020400AA
:101F10008A4ABAAFEA0A885F245C8400040600009B
:101F20000601000600000600A07EAB2A7EA852FE35
:101F30008A52FE00000107010100040700040700A7
:101F40004425F64CB212927E911110000000070059
:101F5000040201000102040010FC23EABFAA227C53
:101F60008B78080000070403040304020102040044
:101F70008080FEAA9BFE9AAE8AFE800004040402C2
:101F8000010001020404040018FF8488FEABFE9ADD
:101F9000AAFE8000000700040402010102040400FC
:101FA00089D680FEB29AFFB692FE80000007040434
:101FB00004020101020404000202FA4A4F7A4A4F65
:101FC0004A7A020000000704040404040404070021
:101FD0004444FF244EFA4ACE7C00FF000404070468
:101FE00002050403040407004444FF2424807E0007
:101FF000FF000000040407040201000000030400C5
:10200000FC8484FC00C03E00FF00000000000402CD
:102010000100000000030400FE82FE00FE22223EBA
:10202000223F02000000000003040404040407002F
:1020300008F693969AF49392F602020000070404BD
:1020400004040404040407000000807E00001F60F4
:1020500080000000040201000000000001020400F2
:102060004428FE02FA4A4B7A4A7A0200040300002E
:10207000070404040404070000FE2222223E222258
:10208000223F0200000704040404040404040700BF
:102090004444FF2400E4BF24A566040004040702AE
:1020A0000504020102040400DE12F25E40847FA4F3
:1020B00025E60400070203050205040201020400EC
:1020C000725FFA5F7200FE223E223E0001010701AC
:1020D00001010704040407004424FF1404FE223E07
:1020E00022223E0004040700000704040404070041
:1020F0002AAAFFAA2AFE223E22223E00030007004F
:1021000000070404040407000808FF8808FF01FD15
:1021100001FF0000010100040402010001020400AB
:102120000CA5F5ADF5AF05F55DF50C000203020752
:10213000020702010507000080AFA9A9AFF9AFA906
:10214000A9AF80000004060504040405060400008D
:102150002424F2B5A8E8ACABF11214000000070487
:10216000040404040404070000FC444446454444B9
:1021700044FC0000000704040404040404070000F5
:102180008464FF2400FC46454444FC000100070031
:1021900000070404040407000101F9494D4B4949B3
:1021A000F901010000000704040404040700000012
:1021B0004444FF248FA9AFF9AFA98F00040407009E
:1021C000040605040506040010FC0702FA4A4E4AFC
:1021D0004AFB020000070000070404040407000093
:1021E000FF01FD01FF107C87847C040004030001D3
:1021F00002040201010204004A4AFE494980A9A9D9
:10220000FFA9A9000402010000000000070000006F
:10221000CA2AFF4908BE6B3EEA2A3E0000000700BA
:10222000010101010701010022FE222295669C2284
:10223000FE22220002030503010005040704040036
:1022400012FE12A210FF0022FE222200020105044B
:10225000020104040704040044FF2424FEABFEEE44
:1022600022EE080004070402010407020102040030
:102270004444FF2400FE4A8A8979000004040704CC
:10228000030402010102040020FEAB22FE30EF2114
:10229000A16F0800060104040704020102040400FF
:1022A00018F61011F601FD07F505FD000403000204
:1022B0000304040201020400C434FF2404FE8A0A59
:1022C000C9390000000007020504020102040400ED
:1022D00000FE48CF08FE2A4A897909000601000756
:1022E00002050201010204004444FF241428E620F0
:1022F00023EC10000404070004020104040700009A
:102300008444FF24929C90FF989690000404070058
:10231000000000070000000010FC03929498FF9852
:1023200094928000000700000000070000000000F9
:1023300096FB96927E827D9296FB960004030403A0
:1023400000030207000700008092949890FF989481
:1023500092908000000000000007000000000000D4
:10236000804434847F040404FC20C000040402017F
:102370000004040403000000D8B45348929490FF72
:10238000949290000202010100000007000000008A
:10239000829292FF929200FF0139C700040201006D
:1023A00000000007010101005055F55F55F5407F21
:1023B00051D51B00000003000007000202030000CB
:1023C00064FF14A492FF9292FF11EF00000704042F
:1023D0000201000007010100C434FF247256DA73C1
:1023E0005A567200000007000402010505070000AC
:1023F00000FF49FF5A4ACE6B4E4A5A0006010407B5
:1024000004020105050300005876499494FF948462
:10241000FE12EE00020201040201000007010100A9
:1024200068FF28806ABAEFAAAA6AA2000007000023
:10243000020207020202000022FE12F2584ACE6B8C
:102440004E4A5A000003010304020105050300007F
:102450007C44FF447C9494FF94949400040403020D
:1024600007000007000000005CF754543256DA738E
:102470005A56320000070205040201050503000058
:1024800010FC037256DA735A5652720000070004A9
:10249000040301050503000011F600B05256DA737B
:1024A0005A5632000003010404020105050300002E
:1024B0004222FAAEABAAEA0FFA02020000000704B9
:1024C000040404050504070000FF49FF10FC4B4A03
:1024D0007A02FE0006010407000704050505060050
:1024E0001008FC4B4A4A7A82827E000000000304F6
:1024F000040404040404070012FA06A26EAB7A2A4C
:102500006EA2A200040402060502010205040400F2
:10251000305595F555BF1000FE00FF00010504077A
:10252000000001000504070012E60A0FFA2AFE2B3C
:10253000AE7A0A0001070001010305050701010049
:102540008C45F55D555FD515FD050C0000000705B0
:10255000050505060504070010FC03405F49C9F99D
:10256000495F400000070004020100070102040067
:1025700008FC039057B57D153557900004040505F8
:10258000050705050505040018F7042C10FC4B4A47
:10259000FA827E0000070201000704040404070019
:1025A0000096929292F3929292920600040404048E
:1025B00004070405060404004424FF2410FC4B4ACD
:1025C0007A827E0004040700000704040404070064
:1025D0004444FF2404FF21E929E700000404070024
:1025E00000070402010204004050D7FD55D555FDF7
:1025F000D75040000105040205070102040501004F
:10260000245CB26BA4102CC70404FC000201040477
:102610000300000404040300F8AFFAAEF808FE4B10
:10262000FA827E0004040202020007040404070088
:1026300038FF0850D7FD55D57DD75000060101035E
:1026400004020507010205008868FF18AA4232FE4D
:102650002243820001000700000000070000000084
:1026600022FE12F200BE6A3FEA2A3E000003010386
:10267000010101010701010022AA2AAA7F807F2A05
:102680002AAA22000201000704040504070003002F
:10269000003EAA6A3BEE2A2A3E0000000101010129
:1026A0000107010101010100080808FF0000FF10F7
:1026B0001008880002020107000007040404070054
:1026C0002A2AAAEABFE0BFAAAAAA2A000202020294
:1026D00002070202020202000A0AEAAAAFA02F2A97
:1026E000EA090C00000007000001050507000000D2
:1026F0000000FF0101FD0101FF00000004040402CD
:10270000010001010206000058F7545440FF01FD8A
:102710000101FF00000302050402010001020400A0
:1027200010FC0322A6BAA3B2AEA22200000700004A
:102730000704040404070000914A2CF201FF01FD84
:102740000101FF000004040304040201010204006B
:102750004048E46356CA4A56E2404000000007057C
:1027600005070505070000001014F2A9ABFDADAB8D
:10277000F11010000403000704050604060106001A
:102780003800FF0822A6AAB3AAA622000403000369
:1027900000070404040700004425F6AC00FCA43F35
:1027A000A4640C00000007040205020102040400F6
:1027B00092928AD692FB92D68A92920004040201E7
:1027C00000000007000000001212925732FE32573C
:1027D0009212120002010001010701010001020032
:1027E0000484442414FF14244486040001000101DD
:1027F00001070101010001002824A3662AF42366D1
:10280000AA222200020100010107010100010200C9
:1028100000FBAAAAFA03FAAAAAFB00000403000418
:10282000070201000407000058745B04FF49FF0021
:10283000FF49FF000202050301020702010407002D
:102840001109F95553FF515555F9090004020101C9
:102850000107010505070000515149DD17F59515E0
:102860009D41010004020104040700010204040068
:10287000EF09F94FF8ABFA03FAAAFB0003020105CE
:10288000030407040304070010F1062025FE242694
:10289000FD242400040302020504040407040400C8
:1028A00011F60001F15DF5555DF101000201020430
:1028B000050505050505040000F05E5257FA525261
:1028C0005EF000000105050301010107010101009F
:1028D00000FF10101000FF10100884000007020213
:1028E0000100070404040700D057D57D55D710FF19
:1028F0000119E700070405050507000701010100AC
:10290000085453565AF4AAABAEAA82000101010141
:10291000010704040404060024F20D00FE22E23F35
:10292000A2620E0000070402050402010204040072
:1029300051555FD555405F5555555F00020201075F
:10294000050505050507000002827A6A5B6EDA6BF1
:102950004AFA020000070505050007050504060000
:10296000F29A52FF92FA22FF12F2120007000007B9
:10297000040704020102040080BFA49494C0BFA411
:10298000A2A2B80000000000000700000000000044
:1029900020AFEAAAAA20EF2AAAA92C000504050262
:1029A0000100070504040700009F12D232409F5423
:1029B0001292180005040403060504040700010030
:1029C00002FA0A0A0AFE090909F9000000030000D8
:1029D000000700010203000000FE02FA222302FAAF
:1029E0004222120006010007040200070404070047
:1029F0004428FE82BEAABFAAAABE82000402010425
:102A0000040300000700000000FC11925031FD118A
:102A10001101FF0000070100020203000404070087
:102A2000FA8C48FF4CFA106F847C04000700000702
:102A300002030402010204007D26143F963D44AFC8
:102A4000142C4400050505030101010701010100E3
:102A5000807000FC018660180630C0000404020388
:102A60000504040407000000807FC949CF22262AFC
:102A7000F32A2600030003020301010107010100FC
:102A8000207F555577802A2E7B2E2A0004050505C8
:102A90000507050505050400300FD5555F4A4E7B37
:102AA000CE0A0A0000000701010105050700000029
:102AB00011F600FF29EF5256FB56520002010205A3
:102AC0000505040407040400FF8995E3003F24D4AE
:102AD0003F243A000700000405050507050504002A
:102AE000E2AFFAAFEAFCFBAAFEAAFA000202070272
:102AF000020704030102040010F1060084443F04AD
:102B000004FE040006010205040405050504040092
:102B1000D8B45348FEAAEAABEAAAEE0002020502C4
:102B20000700030003040700FF01FD01FF12169ACE
:102B300051310100040300010602050404040400ED
:102B400000FE0AEAAAEBAAEAAAEE000006010007C4
:102B5000000300030407000010FC03017D5555FF2E
:102B6000557D01000007000405020205040404006D
:102B700022122A62BE233EA26A1222000404040228
:102B800002010102020404000404040405FE2424DA
:102B90004486040000000000000700000000000060
:102BA000A2AEF3AE20FF80AEF3AEA2000402010499
:102BB0000201000007000000A2AEF3AE10F600AE66
:102BC000F3AEA200040201000003010007000000B0
:102BD000AEF3AEA24C7B4CAAF3AEA20004030002FB
:102BE00002010100070000001011F640FEAAEBAA46
:102BF000EAAEE00004020102050405040504050034
:102C0000C434FF2412D212F25293120000000702C1
:102C1000010404070000030000FC14BFB5A53548FB
:102C20002493480006010403000704060504070076
:102C3000FF49FF001D555F555F551D000700070048
:102C40000503050701030500222AAAEA2A7FAA2A0A
:102C5000AA6A220002010007040200010204040023
:102C6000BD96FF4C56FD6257CA16220004040705A4
:102C70000507050507040400017E147F167D442F17
:102C8000942C440004030007040506040601020016
:102C9000404FC97949CF00FC0000FF000402010445
:102CA00004030001040407004428FE023AAA6F6AE4
:102CB000AA3A020004030001010706050405010009
:102CC000C424FFA444FF2448241289000000070004
:102CD00000070404020100001829CA38CA0AFA4A87
:102CE000FF080E00040300010702030201020700AF
:102CF0008972DE10FF12FD05F705FD0007000404D0
:102D0000020504020102040091E61006FA2A2B2AA9
:102D1000EA2226000700010505030101030505005D
:102D2000000602F22A2B2AEA2A22060000050503E1
:102D3000010101010305050044FF241406FA2A2BB2
:102D4000EA2A260004070005050301010103050026
:102D50008080FE8A8A8A89F98988800004040201B9
:102D60000000000102060000C1360808F808FF3024
:102D7000C80400000300020104040700000102006F
:102D800064FF2404F989493F4989F90000070000DC
:102D9000070000000404070001F90989493F498937
:102DA00009F9010000070100000000050407000008
:102DB00028AAAAAAAAFEA9A9A9F92800040402011E
:102DC000000700010204040008F7040C2425FE2477
:102DD00026FD240000070201040201000007000094
:102DE0003800FF04F909C93FC909F90004030001CB
:102DF00007010000040407004428FE02EA2AAB7A17
:102E0000AA2AEA00040300000701000005040700E5
:102E1000404444FD464444FE454444000404020149
:102E2000000000070000000022FE2202FE22E23F16
:102E300022EA060002030503050402010102040060
:102E400012AA5207FA4ACA7FCA4A1A0001070402A4
:102E500005040201020404008444FF44EA5E4AFFC0
:102E600059ED4800040407000705050705070000A1
:102E70004444FF240E8878AF28EE080004040704B9
:102E8000020504020102040058F75252844424FF50
:102E90002444840000070201000101070101000031
:102EA00008D13A00FC24E43FA4640C0001070403A9
:102EB000040402010204040008FF08027E2A7F2A9B
:102EC000AA7F0200000700010305010507010100B8
:102ED0001A2A2AEFAA9A08FF0808F8000105050334
:102EE00004020104040403004424FF94FEAAAAFF80
:102EF000AAFF820004040700000102040407000086
:102F0000505CF75440FC24272524FC0000000702F5
:102F10000107020202020700244A934602FA949B28
:102F20009296F20001070000000704040404070061
:102F300010FC0300FC44464544FC00000007000070
:102F400007040404040700000080BEAAAAEBAAAA92
:102F5000AABE0000000700000007000004070000F0
:102F600020FEAB32FE00FC262524FC0004030005F5
:102F7000070007020202070000FF49FF98AAAAAF54
:102F8000EAAA9A00060104070000040700000000F6
:102F900000FF49FF82FAAAFFAAABFA000601040764
:102FA000000102040407000099621A2AEFAA9A0895
:102FB000FF08F800070001050700040304040300EC
:102FC00008917A00FC4446454444FC000107000097
:102FD0000702020202020700013DA1BFE011CA047C
:102FE00086691000010504040304020102040400C0
:102FF0004424FF14F45454FF5457F400040407000D
:10300000070101070105070000000000FF10102064
:103010002040000000000000070000000000000049
:10302000FE82FE04F454FF5455F604000000000034
:1030300007010701050700008444E754AC0000FFC6
:103040001020400000000700000000070000000002
:1030500008FF888800FEAAABAAEE0000010100026A
:1030600002020207020202008181412111FD0311C7
:103070002141810000000000000700000000000066
:10308000844424FC1714FC1414F60400000000030C
:10309000000007000203000010109E5010FF1212E3
:1030A0009252100000050404040202010000000016
:1030B00014AB520E7A2C2B7EAA7E0A000107000167
:1030C000010305050701010012D65A535AD612FE14
:1030D000023AC600000702020207000701020100CF
:1030E00018FF0844E41C17FC1414F4000007000047
:1030F000030000070002030044FF24A652AEBAAB4F
:10310000BAAA5E00040700040205040701020400D5
:10311000914A3CC32AEAAABFAAEA2A00040404038B
:1031200000070202020700002AAAFAAF2AAA08FF33
:1031300008EE080001000702010204020102070074
:103140008464FF146480442414FF04000100070019
:103150000100000404070000040484442414FF0454
:103160000404040002010000040407000000000041
:10317000FF01FD01FF04844434FF04000402010147
:103180000205000404070000FE4A4AFE242AA2F6B3
:10319000A129250003010105020100070001020029
:1031A000EF09F94F222EA2F6A925210003020105FD
:1031B000020100070001020020262AA262F761A98D
:1031C0002523200004020100000700000102040082
:1031D0002226AAF6A92729484422910002010007C5
:1031E0000005040202010000829AAACF8AFA8FCA5F
:1031F000BA8A8200040402010007000102040400EC
:1032000022B25EABBAA2BAAF5A8A820001040200AF
:103210000407000002040000A8AE54EF5569506B8B
:10322000E54B5100000000070505030507050000F8
:103230009054B4965D349435569490000004040480
:1032400005050202010000002425F52D25F7252D96
:10325000F5252400040405050507050507040400F9
:10326000225E8A7A022828FF29EA28000402010047
:10327000040402020102070018FF08342FF4A4FE20
:1032800012F211000007000101070403000700000B
:1032900018FF089054B65D9436549000000700045F
:1032A00005060502020100003800FF0804F800FFCF
:1032B0000000F800040300030007040704040700EB
:1032C000424222F72A262AF7224242000000000743
:1032D000040505050407000020FEAB32FE08F413C8
:1032E00092F4080004030005070007040404070023
:1032F000201008F4129112F40810100000000007CA
:10330000040405040407000008D12210F8149312E5
:10331000F40810000107000007040405040700007A
:10332000DA52FA0AEFAAEB7E8A6E0A00030403005F
:10333000030207020102070044FF24BCA8BFC5BD69
:10334000AFA8B8000407040402010700010204004A
:10335000D4FF548214F816D45F54D400000700043C
:10336000020304050505050064FF24023EEA7F6AA6
:103370007FEA3E0000070000000705050507000082
:10338000023EEA6A7F6A7F6AEA3E020000000705A1
:1033900005050505070000000202FAAFAAAAAAAFB8
:1033A000FA02020002020202020702020202020004
:1033B00000FF01FDF505FD01F901FD000601040214
:1033C00001010600010407000C0AEB2EAAFCAA2B3F
:1033D000AEEA0A000404020100070001020404002E
:1033E00010FC03FE02FAFE00FC00FF0000070402CE
:1033F000010102040104070010FF1111FF10FF1169
:1034000011FF100004030004070403040407000074
:1034100089F200FF01F9FF00FC00FF00000704042F
:10342000020102040104070000FF455555D555551A
:103430005557400006010004060504050604000077
:10344000EF09F94F3CC5567C56C53C000702030105
:1034500000070505050700004424FF14EAAA0AFF37
:1034600009A9E8000404070007020203020207009A
:1034700000010719638D41310D03000004040202AD
:1034800001000102020404001292D2379A9292F7CC
:1034900092921200010007040404040704040400CB
:1034A000424222574AE64A572242420000040201A1
:1034B00004070001020400002222F25A565F52560D
:1034C000FA1222000404050505050505050404009B
:1034D00022FE12F212FA565F56FA1200000301059C
:1034E00004050505050504004424FF5422574AEA53
:1034F00057224200040407040201040701020400E9
:1035000026B2DEAABAA3AABAAA5A86000504020104
:1035100004070001020600000848442A1988494AA5
:103520003C08080000070404040704040407000022
:10353000202A2AABFAAEAAABAAAA220004020504EA
:10354000040407040404040011F600969292F24B5E
:103550004A4A46000007020000000704040407006E
:103560004424FF1400FE0A4AF989090004040704F0
:103570000300000007000100A0BEA09F94D09FA4FC
:10358000A4A2B80004040201000700010204040020
:10359000A45AB26D84088848FF0808000201040498
:1035A00003010004070000004424FF94845EB59DDD
:1035B0007794DC0004040700000202020504000006
:1035C0004424FF9454B65D943654900004040700DC
:1035D00004060502010000007C44FF447C5556FCB3
:1035E00056557C000404030201010107010101009A
:1035F00008E7148CB86EAB3EEAB8C00000070200C2
:10360000000202050504000010F10288BC6BBA6ECE
:10361000AAB8C00000070200000202050400000072
:10362000D8B45348FE027A4BFA4A7A0002020105E6
:1036300003040505070505004CFB4A4A00F61A136A
:103640001A1612000003020502010000000000002B
:1036500002F212161A13121A1612120006010000B4
:103660000000000000000000FC81FAA8ADF9ADFBED
:1036700081FF0000070000000007000004070000B1
:103680001EF2575EF21EFD05F705FD000405050557
:10369000030204020102040000C05F555555555550
:1036A0005FC00000000705050505050505070000CA
:1036B000914AFC03C05F5555555FC00004040700E4
:1036C00007050505050507000808FF884991799554
:1036D0007311F0000301000005020104040601005B
:1036E000084C5556D457545655440C000004060552
:1036F0000404040506040000040683BAAAEBAAAA7F
:10370000BB82060000000300000700020203000065
:103710002020FF203068A422212020000000070480
:10372000020200010204040010FC0398AAACAFA836
:10373000ACAA980000070000060504040506000076
:1037400000FF49FF00917915F311F000060104070D
:10375000010402010404030000FF01010101010151
:10376000010101000601000000000000000000004F
:10377000FA0CE8AFECFA107F847C0400070000002C
:1037800004070402010204007C54FF547C91791563
:10379000F311F00000000700050402010404030017
:1037A000FE82FE00C05F5555555FC000010000005D
:1037B00007050505050507001008FC03C05F555502
:1037C000555FC00000000700070505050505070057
:1037D000D414FF544410E9272129EF000702030401
:1037E00004040505050505004424FF142018047F82
:1037F00080641800040407000404020100000000B3
:1038000058F75454201C007F00845800000704021D
:10381000050402020100000002FAAAAFAAFA00FFA2
:103820004949FF00020202070206020104040700E0
:10383000FE82FE027AAF7A02FF49FF000100010119
:10384000010705030104070009F202FAAFAAFA0210
:10385000FF49FF00070002020702020403040700F9
:103860008082FDA8AAFDA8AAADF880000404020188
:103870000007000102040400FE42FE00300C007F3D
:103880000084580000000404040402020100000047
:103890003800FF08300C007F008458000403000546
:1038A00004040202010000000222322E23FA222226
:1038B00022220200010101010107010101010100B1
:1038C0004444FF2404F800FF10101000040407040F
:1038D000040704070404040044FF240AEEABEE1AB4
:1038E00077847C0004070000070207040201060039
:1038F000045F457F55DD445E603F00000101010526
:10390000050701010101010024F20D10FF088AFEE4
:103910000202FE000007000001050201040403008A
:1039200089F200EAAEABEA7C877C0400000700075E
:10393000020207020102040064FF146414FF24045D
:10394000FE12EE0000070000000700000701010062
:1039500000FF494949CF494949790100000704045A
:10396000040704040404040000FF0125E525E525FF
:10397000A53521000601000007040201020404002D
:103980001088848280DF808284881000040404040C
:10399000040704040404040000F05FD555D5555510
:1039A00055DF50000403000704020102050404006F
:1039B00018FF08000C8464FF04041C0000070004C6
:1039C000020100070404070009D2040006F21212E3
:1039D000F2020600010700040201000007040700CC
:1039E000FF819DE332AE23FAA222220007000002EB
:1039F0000104040700010200D212FF5252A4A25196
:103A00002A840800070103020404060605040400D2
:103A10008445F64CA0082848FF080800000007006D
:103A2000000004040700000084FF44204D7654D7B2
:103A300054764D000407000101050507010101004E
:103A40008A6AFE4911EC07F404648C000100070047
:103A5000030004070000030008FF8888FC14F40436
:103A6000FF84770001010402010105020102070041
:103A700064FF1423F5AFA8ABEE1522000007000485
:103A8000050604060504040000FC2424E4047F84E5
:103A90004536040004030102010402010204070088
:103AA0000020AFA9A9E9A9A9AF20000004040404DB
:103AB00004070404040404005455557D85FF857DE6
:103AC00055546400040402010007000102040400CC
:103AD0008A6AFF4920AFA9E9A9AF200001000700C9
:103AE00004040407040404002412794441FD417FC6
:103AF00049494100040300070404050406010200CB
:103B000089722015E9AFA8ABEE152200070000046A
:103B1000050604060504040010F10600FC24E43F39
:103B2000C437040000030503000105020102070079
:103B30000888791151FD5513F910080002010001A0
:103B400005070101000102001011F600505755F55C
:103B5000555710000402010205050505050505007D
:103B60003921B9E780BEAABFAAAABE000105040395
:103B700000000404040300008A6AFE29414A52FE40
:103B800042524A0001000700000000070000000048
:103B9000FE8282FE081497543404040000000000E2
:103BA00000070404040407004C20FE524EFA4B4266
:103BB000FA0AFA00040205020100030003020300EE
:103BC0004444FF24D252525FF252520004040700D0
:103BD000000104040700000040DF55D55F4000FFEE
:103BE0001008C400060102070505040505050500C7
:103BF00008D10210FC1010FF88F800000107000037
:103C0000070404050404070010F106807F09292930
:103C1000498F0000040301020404040404040500A5
:103C2000794949CF10FC10FF88F800000404040310
:103C30000007040504040700013DA1FF10FC10FF6C
:103C400088F80000010504070007040504040700C4
:103C500001FF29FF8101F800FF1010000203010796
:103C6000040407040704040008E80E08886F8A0AA1
:103C70000AEA08000007060504040405040700001A
:103C800010F8064944AA53724AC6400000070005CE
:103C900005040302010000000000FF1111719111E1
:103CA000111F0000040201000000000102040400D2
:103CB00010925212F21F12F25292100005040201E9
:103CC000000404070000010074941FF44529FF4418
:103CD0002911FF0004020102040505040505050081
:103CE0000000FE0A4A4AF949890908000403000055
:103CF00000000700000100003800FF04007EA2223F
:103D0000A27E00000403000502010000000106007D
:103D1000022232EA2623E22A32620200040402016D
:103D2000000007040404070081C630007C4444FFFF
:103D300044447C0000070000000000070000000071
:103D4000007C444444FF4444447C000004040404D4
:103D500004070202020306009098ABAAAAAFAAAA1F
:103D6000AA8B980004040201040700000102040069
:103D7000282622A27A23EA32A22A2600040402017B
:103D800002020705040407004444FF24F84848FFE2
:103D90004848F80004040700070404070404070067
:103DA000FDA79DA7FD20FF20FF20FF0007020202C4
:103DB0000702010003000700FE12FE12FEAAEABF7E
:103DC000AAEAAA00010101030100010204070000A0
:103DD000EF09F94F20AAEABFAAEAAA0003020102EA
:103DE00001000102040700008A6AFF4908FFD55F4D
:103DF000D515FF00000007040300010105040700BA
:103E00004A2A7E1929CC300F10A844000403000769
:103E10000404050407000300848AABEEBAACAAAB25
:103E2000EEAA820002020100030004040700000061
:103E300010FC030808FF0808F80000000007000451
:103E400002010000070407004C6A5904FF11D55F06
:103E5000D511FF000202050201000101050407005F
:103E6000FE4AFE804AFF4910FF100C0003020300C7
:103E70000007020100010600002222E23E22222267
:103E8000FF020000040404070404040407040400FF
:103E90008080BEAAABEAAAEABE80800004040402C5
:103EA00001000102040404004424F72C5002C23E25
:103EB0000202FE00000007000402010404060100E3
:103EC00000DE101010FF101010DE000000070404C8
:103ED000040704040407000064FF1400FF7555750F
:103EE0004591FD00000704030405020302040700D6
:103EF00000FF75555575055191FF11000601040528
:103F00000203020404070000EF09F94F22AAEF7A26
:103F10006FFA2200070203020100070505070000EF
:103F200058F75400FF49FF08FF08F8000007020493
:103F3000030207020504030098979CF408FC979479
:103F4000FF94940004040407000704040704040019
:103F500009D200FF89F74C4AF94A4C0001070007D3
:103F60000402010407010600FF819DE3485452F159
:103F70005254480007000004020104070001060033
:103F800022524ADF4AD24A5F46CA120004020102A4
:103F9000040705050504040022FA16F200DE1010DD
:103FA000FF10DE00000301030007040407040700FC
:103FB00010FC13F60094D47F54DC120000070003B9
:103FC000020007050507000020A2E2BEAA2BAAAA4C
:103FD000FEA22000040704060704070406070400E5
:103FE0004424FF14C26A6ED34A76C2000404070058
:103FF0000705050705050700FCABFAAEF800F888D1
:10400000FF88F80007000704070004040702060001
:1040100040304F84641C00FF08102000040402019B
:1040200002020407040404004444FF24D754D47754
:10403000D454D7000404070007000300030407005A
:104040000000FF000000FE0000FF0000040300006D
:10405000000001000007000004167A5652D3F25205
:10406000564A060004040202010407000000000092
:10407000C434FF2450B655F59D53300000000700AE
:1040800005020504030102002010FC2324E4BCA760
:10409000A4A424000000070000020202050400009E
:1040A00020FEAB22FE20DF41415FD000060100046C
:1040B0000700070404040700FE42FE10D754F4571B
:1040C000D457D000000000000700030003040700DD
:1040D00000EE2A2A2AFF2A2A2AEE00000001010106
:1040E00001070101010100004428FE2212EA272AEB
:1040F000F222220004030000000704050504070063
:104100000416FA96D27B52D216FA16000000070463
:104110000605050604070000FC04FFFC0AFA5EFB26
:104120005EFA0A00000007040505050705050500FD
:1041300000FE12129252FB5292121200060102016C
:10414000000007000001020000FC8186B5A5A53D26
:10415000E101FF0000070000000002020504070063
:1041600010F81691F20400FC0000FF0000070404A0
:104170000404070004040700FE8282FE100C87740A
:1041800084140C0000000004040201000102040079
:104190003800FF882418877484140C00040300007E
:1041A00005020100010204004424FF142AFA2AFF38
:1041B00029F9280004040700050505070505050081
:1041C00058F754542AFA2AFF29F928000007020157
:1041D000050505070505050020282AFA2AFF2929D3
:1041E000F92820000005050505070505050501005E
:1041F000A26A2AFAAEAB2AEA2A6AA20000000007E5
:104200000405050700000000C8FF48A06AFAAF2AAD
:10421000EA6AA2000007000000070405070000008A
:10422000FDA79DA7FD82BAABEABA8200070202028F
:10423000070004040700000000FF117555553555AF
:104240007555510006010007050505050507000025
:1042500031C630023A2AAB6A2A3A0200010700014D
:104260000505070101010100D8B49B007A4242FF15
:10427000427A02000404020200000007040407005E
:10428000281A8A7A5E5B5A7A8A1A28000705070577
:10429000070407050705070049E55FE9455F1010BA
:1042A000FF886E00000705070505040201020700EC
:1042B000D8B4534800F8A8AFAAFA020004040200D8
:1042C00002020207020202004428FEC202FE23FE8E
:1042D000422212000403000702030107040407003E
:1042E0000A926207423AD2175232120001070404BE
:1042F000020100010204040022FE12F264DD6604E1
:1043000066DD6400000702030605060006050600D8
:10431000F800FF08FF08FF92FF92920003020101DC
:104320000301070407040400CA4A7E49C9A6BAE388
:10433000B2AEA20007020202070000070000000060
:1043400002527A566B025A77526A420004030007FF
:104350000405060407010600283926E0B4B3AAA61E
:104360002A362000000407040203000704040700A3
:1043700010F10208E92929E90901FF0000030201FF
:10438000010101010404070000F800FF101000FF04
:1043900010080400040702030101000704040700D9
:1043A000027A8AFF8A4A7A00FE00FF0002010007B3
:1043B00000010200050407007F01FD7F805FF555C5
:1043C000D55FC000040300030405020504040300D4
:1043D00081C23400100CF78404140C0000070004A0
:1043E000020100000102040001FF29FF013DA66453
:1043F000A63D800002030107020107040506010033
:1044000022524E2BBA6A3AAF8A7A020002010007A2
:10441000040506040601020000FE022212AF4ABA99
:104420000202FE0000070406050404040504070058
:1044300020108C5724BC44BC04FC0000000504027E
:1044400001000004040300000000C03FC000C03FA2
:10445000C000000004030004020100000003040087
:104460000000C03F2040C03FC0000000060504041B
:104470000605040404050600C13680622A7AEF6A44
:104480002A6AA200030000050503010103050000DC
:104490009254FF5412FF919191FF00000100070018
:1044A0000407040404070400FDA79DA7FD12DF52C2
:1044B00052DF12000702020207000705050700008D
:1044C00014F25BD60294EABBEEAAAA00060104032A
:1044D000040402010102040010FC0300DF1111F1C9
:1044E000515F4000000704020102040704040400B5
:1044F000EF09F94F46BAAEFBAEBA860007020301D8
:1045000001030207020203008482FBAEAAACAAAB3D
:10451000FE8282000202050605040406050202006E
:10452000168ABAAEAAFFAAAABE8A16000003020221
:1045300002070202020300004424FF54E75C54FF18
:104540005454170004040700070505070505040077
:104550004020F75C5457FC545457100000000705E6
:10456000050507050505040020F88740F75C54FFA2
:10457000545417000007000007050507050504004F
:1045800000FF49FF08FC0BEA2EEA080006010407B9
:1045900002010007050506004428FE0A4A3A4BCEF0
:1045A0003A4A0A0004030001010101070101010068
:1045B0009458FF54A2928EF3928EB200010007002D
:1045C000000000070000000008D106A0928E92E3D0
:1045D0009E92A200010700000000000700000000FA
:1045E00001915B355F90513B559F00000101010136
:1045F00001070101010101008464FF2444106404E7
:1046000004FF04000000070000000004040700008D
:104610008242F20A4F4A4AEA5A4A42000000070020
:104620000004040700000000080828C8080808FF64
:104630000808080000000000000404070000000053
:1046400022FE12F20055D67C565554000003010597
:10465000020505050705050084FF4414F05FF555C4
:10466000D55FD00004070002030107050201060020
:104670004444FF2444D57E545655440004040702A4
:1046800005050507050504004424FF1414D45F54F0
:104690005FD41400040407000007050505070000A7
:1046A0004444FF24B08E90FF908EB00004040704B1
:1046B000040404070404040058F7544014D45F545D
:1046C0005FD414000007020100070505050700007C
:1046D0004424FF5422574A4A572242000404070048
:1046E000000705050507000010F1060888483F4847
:1046F0008888080006010205040404040405040077
:104700004844A3B6AAAAB6A3A64A420000000704DA
:1047100004040404070000004428FE8A4A6E5B6A11
:104720005E4A8A000403000007050505050700002E
:104730004444FF2424020202FE0202000404070093
:10474000000004040700000008080808C83FC80863
:10475000080C080004040201000000010204040027
:1047600020202FA969F969A92F2020000402010047
:104770000007000001020200028242322E4A0A8A29
:104780006A1B02000404040402020100000000008D
:1047900010FC83AAEA3AEF2AAA6AA20000070004E2
:1047A0000205070102040000047DD57FD57D047F4A
:1047B00084770400050503010305050201020700D3
:1047C0003212D25F52FF5252DF1232000000030059
:1047D000000700020300000042324ECA3A10DC53C8
:1047E0005054D8000402010000000704040407002C
:1047F0002010FC1310107F88090E0800000007002D
:1048000000000001020407000804FE2124E4272A16
:10481000F3121A0004040504020102020504000058
:1048200048447EC154E44F5453D25A000202010757
:1048300004020102050404004824F34852D25F52E6
:10484000F2525000000007000000050407000000BD
:1048500011F600286AAAFFAA6A3E080004030205AE
:1048600005060704050504000004745655D4545584
:10487000760C000002010007040405040601020092
:1048800001FF29FF810C847FE4040C000201010771
:1048900004020100070407004444FF2404FE92922E
:1048A00092FE00000404070004050404040504004B
:1048B0002020FF2125392121FF20200004020100B2
:1048C000000004040700000000007C5556FC56550B
:1048D000547C0000010101010107010101010100F7
:1048E000007D56FC567D00FE021AE600010101071C
:1048F00001010107010101004444FF247C5556FCDD
:10490000567D0000040407010101010701010100B7
:1049100000FF49FF00FE929292FE0000060104078C
:1049200004050404040504000000FE929292929291
:10493000FE0000000404040404040404040404004D
:1049400004AA9B4ABA2A5A0AFA0202000006050281
:10495000010205040102070010FC0300FE9292927E
:1049600092FE00000007000405040404040504008E
:104970003800FF087C5556FC56557C0000000701A6
:10498000010101070101010008D1260028D608E72E
:1049900088562000010700040502010102040400FA
:1049A00011F2009AF600FA02FE111100000305024E
:1049B00001020505050505007252DE007C5556FC16
:1049C000567D0000040403010101010701010100FB
:1049D0001009C74949FF555555D51300040405056D
:1049E000050705050705040010929490909F909884
:1049F00094F2000004040404040404040407000006
:104A00008444FF24929C909F9896F0000404070031
:104A10000404040404040700100C05F6949794960B
:104A2000F5140C0004040402010007040404070048
:104A30001226CA224FEA6A5FCA42C2000107000278
:104A40000504020504060100C424FF24929C909FE3
:104A50009894F20000000700040404040404070012
:104A6000000202827E02020202FF0200040402012E
:104A700000020204040300004444FF24803EA32AF1
:104A8000AA2EE00004040700030203020704030047
:104A9000CF09F94F42EEA2AE11A9E50007040302C7
:104AA000020704040404070010FC039A96F29A9289
:104AB000FC00FF00000700040403020205040700D5
:104AC00000803E22A72A32B22E20E000000302021C
:104AD00003020203040403004425F62CA2EABAAF41
:104AE000AAEAA2000000070100000102040700007A
:104AF00080809FA5A5A5A5E5A7A0980000000001BE
:104B00000204040700000000919995F3959911FCA7
:104B10000000FF0004040403020202010404070071
:104B20008A6AFF2902EEA20EA1A9E5000100070092
:104B300000070404040407003800FF08F8A8A8AF21
:104B4000AAFA0200000007020202020702020200A3
:104B500011F20004F5565C5456F5040006010204F7
:104B6000050505050505040010B18A80C4A39A92C5
:104B7000A24A06000407040407040704070404000B
:104B800024F20982BAAABEABBAAABA00000700068C
:104B900000070406040702004824F30C405F555543
:104BA000D55F400000000700010301050701010077
:104BB000FC444645FC102CC70404FC00070202021A
:104BC0000700000404040300EF09F94F14E92F293A
:104BD0002EE9140007020305040507050705040074
:104BE0003800FF08020202FE020302000403000173
:104BF0000204040700000000202315EDABA8ABACB5
:104C0000EB14220004040405060404060504040051
:104C100028A6ABAEAABCAAABEEAAA2000000000177
:104C20000200040407000000FE4AFE2215C9575185
:104C300056C9140003020304040705050705040010
:104C40009095B9EDABA8A9EABD8A900004040403CD
:104C50000000000704040600020A92629F02FF019E
:104C60001925C30002010000000107000101000036
:104C70000808FF88C05F55D5555F40000101040258
:104C8000010204070505040010FC0300FE2222FEB9
:104C9000213120000007000007020504010207007F
:104CA00009D602FA2AAEFBAA2EFA02000107000773
:104CB000000302030407000010F10600FC2424FF97
:104CC00024FC000002010204050505050505040099
:104CD000CA4A7E49C9103C47847C04000302020290
:104CE000070402010102040008E4A3A6AAFAA4A38F
:104CF000A6EA0200000704040407040404070000F5
:104D0000914A24FA2118807FA010080000040403AF
:104D1000040201000102040008D106A8A497EA8A4F
:104D200096A220000107040201040700010600000A
:104D30008151EB555F40E94B455F4000000007059E
:104D40000505070505050400FC87FC04FA2AAEFBEF
:104D5000AE2AFA000402010207000302030407005E
:104D60004444FF24FE12127E911110000404070037
:104D7000070201060102070000FE02FA4A4B7ACA46
:104D80004A6A420006010007020504010204070006
:104D900010FF101020FE10FF88FC0000020301012C
:104DA0000007040504040700426AAAAFBAEEAABFCE
:104DB000AA2A6200000003000007000203000000AE
:104DC00004EAABAEAAFCAAABAEBA820004040201AC
:104DD00000070002020201003012D2565AF35A565E
:104DE000D2123000000003000007000203000000A0
:104DF00000745455D6FC5655545CC000040402019E
:104E000000070002020201001011F60074D556FCE2
:104E1000565DC000040201020504040705050400F4
:104E2000CCAA594432D65AF35AD6320002020101B2
:104E3000000300070203000002FA2F4AFA01FD05F1
:104E4000F705FD0005030103050005020102050049
:104E50004444FF24FE02C27F5252D20004040702DF
:104E6000010007020202070008D13A00FAAAAAAF1D
:104E7000AAFA02000107000207020202020702006A
:104E8000F21EF282FE92FF92FF92FE0003020304E2
:104E900004020100010204000000F090909F929231
:104EA000F2020000040600000600000600020400F2
:104EB0008080FC94FF94FF9494FC80000004040222
:104EC00001000001020400002AEABFAAEA20D6126B
:104ED000F352560000070202070201020704040011
:104EE00014547F1444AA1F22023E600004050505E5
:104EF000050705050505040000FC949494FF9494AF
:104F000094FE0400000100000003040404040600F1
:104F10001008FC03FE2222FE2222FE0000000700F1
:104F200007020203020207001008FE4BFA4A4AFA7F
:104F30000202FE0000000301010101070404030056
:104F400000FE02C242427F5252D212000601000706
:104F500002020202020700001CFF0800FEC2427F9C
:104F600052D21200000704030007040404070000E3
:104F700002027A6B5ECA5E6B4A7A0200050505057D
:104F8000030101030505050088D10200D61212F3C2
:104F90009292960000070402010102030404040037
:104FA000FFA5F5A5F5A708E721EF08000704020013
:104FB000020404020102040011FD13F100FFD55F99
:104FC000D515FF00000101050300010105040700DC
:104FD000FE8282FE00824222120AFF0001000000CF
:104FE0000000020204040300FFD55FD5FF08FC9710
:104FF000FC9794000701010507000704070404005B
:10500000C13600FF11D55F55D511FF000300060121
:105010000001010105040700008282424222120AB7
:1050200002FF02000000000000020204040300006E
:105030004444FF2400F8A8AFAAFA020004040702BF
:10504000020202070202020000E02F2929F92929A1
:105050002FE0000000030000000700020203000030
:10506000505CF754441827C40404FC0000000702F5
:10507000010000040404030010F10280FF11D55F59
:10508000D511FF000003010403000101050407001E
:10509000DF11F15F402E24FF2424240007020302C5
:1050A0000402010001020400105452A9B664AAA926
:1050B00091921000000404040605020201000000A1
:1050C00062FE12F282BFA2EFAAAFA20000030105A6
:1050D00004020107010204007C44FF7C82BFA2EFAE
:1050E000AAAFA200020203020402010701020400A7
:1050F00010F106202CA6643F64A4240002010102E2
:10510000050404040404050011F60082BFA2AFEAFE
:10511000AFA2A2000003050402010007010204007F
:10512000C06858D96D436B5DD968C000040404079A
:1051300005050505070404000202020202FE020240
:105140000203020000000004040700000000000049
:10515000FF4949FF00020202FE03020003010103AE
:105160000000040407000000FE4242FE00020202AA
:10517000FE0302000100000000000404070000001C
:105180005857F45454020202FE03020000000702C2
:1051900001000404070000000202FE0202FD05F700
:1051A0000505FD00010203000404020101020400E0
:1051B0000078405FD515D55F4078000005030101F8
:1051C00007000701010700004CFB4A4A00D612F312
:1051D00092929600000302050201020304040400F7
:1051E0000416D21212F39292929206000402010166
:1051F000020304040404040008F90200820202FE0F
:105200000203020000030201000404070000000082
:10521000404A4A4ACA7E49494949400000040605B5
:105220000404040506040000022232AA26FB2262BE
:10523000A222020002020100040700000001020095
:10524000809048462B92AA464280800000000002CF
:1052500002020404000000001111F55755FD5557D6
:10526000F5111100040505050507050505050400F0
:1052700018FF0411F557FD5557F5110000070004FC
:10528000050507050505040092523252921008FFE9
:105290000808F800030101010502010404060100E9
:1052A000C424FF4422BA27FA22A2220000000700E9
:1052B000020104070000030010FC03FE0AEAAAEA48
:1052C0000AFF0200000700070001000104070000B8
:1052D0001CFF0800FE0AEAAAEA0AFE000007000016
:1052E000070001000504070041E6180434AC27FC60
:1052F00024A62400000300020104040700000300A8
:1053000088D12200FF05F595F505FF000007000094
:105310000700000004040700007E2200BE2BBE0030
:10532000223E0000040404020100070404040700F4
:105330004444FF248092A480FF40400004040700FE
:105340000000000007000000808891A2848080FF98
:105350004040400000000000000000070000000086
:10536000FF8199E710D212FF929292000700000489
:1053700002010207040404000001F94949494949AE
:10538000F9010000040404050604060504040400F1
:1053900011F600017DA525A5653D0100020102056C
:1053A00005050505050505004428FE0AEAAAABAA7D
:1053B000AAEA0A000402050405060406050404001E
:1053C000884AEABFAAEF08FF0119E70000000702B8
:1053D0000207000701010100241CC47F4D556256DD
:1053E000CA17220000000705050505050700000093
:1053F000A2AAEAAAAAFFAAAAEAAAA2000002030293
:1054000002030206030202009E88FF48005AAA0F08
:10541000EA0A1A000000070005050503010305005C
:10542000914A24FB007C44FF44447C0000040403B4
:10543000040404030203060011F20088AADAAFFA9A
:105440008A8A980000070200040402010204000096
:1054500008FF881094D47F545CD61000010100012D
:105460000007050505070000FE4A4AFE94D47F5454
:105470005CD61000030202030007050505070000C3
:10548000FE02FA02FE94D47F54DC120004020102F0
:1054900004000705050700008464FF24441010FF82
:1054A00010101000010007000404040704040400A5
:1054B0004CFB4A4A00FE8ABEABBE0A00000302054E
:1054C000030404030205040000FF49FF101010FF4D
:1054D000101010000601040704040407040404006B
:1054E00000FE0A8ABEAAABAABE0A0A00060104048C
:1054F000040302030404040089F200FE0A8ABEAB1E
:10550000BE8A0A0000070403040403020304040023
:10551000C4BC87641C00FC2526243C000402010155
:10552000040300000000000074857604D654F4578C
:10553000D454D6000301010107000300030407004F
:105540002827FC2422FA4A4A4AFB020004030001ED
:10555000060407040704040058F75400FEA911EFDD
:1055600021EF2800000702010700040201020400E5
:1055700000FEAAA98128E721EF28080001070004FE
:105580000404020102040400FF9254FF549200FE3E
:1055900012F11100030202030204030000070000DD
:1055A0006C5A4D00FF2908E721EF28000202010292
:1055B00007010502010204000808FF8804FE959413
:1055C000FF949400010100000007020203020200A0
:1055D00000007C45C644C6457C000000040404026B
:1055E0000100070404040700FF0119E70000C03FA1
:1055F000C0000000070101050201000000030400D3
:10560000020A92629E0828C808FF080002010000F2
:10561000030000040407000008FF88223AABFA8A5E
:105620007C877C00010100010507000402010600DF
:10563000FE82FE04F48484FF84F40400010001006F
:105640000000000704040600CF09F94F027A5F4A00
:105650005EEB7A0007020302010103050507010062
:10566000023A2AAB7A121867847C04000105050708
:1056700001050402010204007444FF447401FD07A3
:10568000F505FD0000000702010404020102040008
:1056900000FF057545FF45758501FF0000070404FF
:1056A00004050505050407004CFB4A4A047444FF41
:1056B000447404000007020100000007040407000E
:1056C00000FE0AEAAAAABF2929E908000601000784
:1056D000040405050507000011F600FF05F5555FF8
:1056E00055F5040002010205040505050505040041
:1056F00044FF2404D34DCB50CB4DD300040700040A
:105700000201020402010600FE4242FE28A45B726E
:105710004AC6400000000004050403020100000026
:10572000002828A4567B524A46C2400004050504BE
:1057300005020201010000004262D24A464346EAE5
:105740005262420000000003000404070000000051
:1057500008FF8888504FC1E14F50500001010404F8
:10576000020100070102040080FEABAAFE504FF1C7
:10577000C15F50000402010407020107000102009A
:105780004060504FC1E1C14F50505000040402012D
:105790000007000102040400EF09F94F2050CFF187
:1057A000C15F500003020101020100070001020075
:1057B00020FEAB22FE06F283422206000601000410
:1057C00007000304040407005048C7E1CF4848001D
:1057D000FC00FF00020100070001020005040700B1
:1057E00018FF082212EEABBAAAEA0A00000700006E
:1057F0000007020202070000FF212D330AFE2B2AB8
:105800002A7E0200040405050507050505050400B8
:105810007CC744FC8AFE4928FF8A6C00020302020E
:105820000407000201020700F800FF80FA4AFF287F
:10583000FF4A2C00010100000404070201020700D6
:105840004AFE29FF4A207E4A535EC0000407010039
:10585000030407010505030010FC03884AFE297FA5
:10586000884A2C0000070004040700020102070018
:10587000A6DAABAADE01FD05F705FD00000704046A
:10588000070004020102040011F60020F80740FF9F
:1058900010080400000302010700000304040700CD
:1058A000C4BC877C8A4AFF29FF4A2C0004020102FB
:1058B000000407020102070020A539A13FA13F21F2
:1058C00039A52000020100070404050407000300B5
:1058D00000FF0101F9094949790181000601000031
:1058E00007040404040407004424FF14FE02FA0A17
:1058F0008AFB0200040407020100030404040700F9
:1059000010F14620FF553555551FF00004030204E1
:1059100005050505050605004755D750575547FFAE
:105920000119E70000010505070100070101010059
:1059300008F7040C4A4AFF28FF896A0000030201A5
:105940000404070201020700007F416555CF556539
:1059500041FF0000040300070404050407000300DE
:1059600001F90909FD0BF90909F901000007000017
:1059700003000300040700000000807F000000FF18
:10598000000080000402010000000007040407007A
:105990000101FF29292929FF8181810001010101DC
:1059A00001010107000000001008846704FC0424C2
:1059B000548E0400020100040407000000000300EC
:1059C00008F7040C02FE2A2A2AFF02000003020143
:1059D000010101010107010089D23802FE2A2A2AA9
:1059E000FE838200000700010101010107000000A1
:1059F0000004040404040404060400000202020279
:105A000002020202020202000AEA2AAA2AEA02FFAB
:105A1000020302000405020102050400010207005E
:105A2000080E88782FE828A96A08080004020504EF
:105A300002020102020404004047CD350705F507C4
:105A400005F700000000070402000104040700003D
:105A50008442F34E4274A22BB6622200000007007B
:105A600004040302050407002010FC1310107F88B3
:105A7000492A08000000070404020101020407008B
:105A800002121292965A51311100000002010102D5
:105A9000040404040404040000FC21FA2521FD553B
:105AA0009911FF0000070003010100010304070032
:105AB00008D106202424E43FA42424000107000088
:105AC000060504020203060012FE12122424A47F1B
:105AD0002424240002030101060504040506040031
