:020000040000FA
:10000000B0C20720E1000000E9000000EB000000A2
:10001000ED000000EF000000F10000000000000013
:10002000000000000000000000000000F3000000DD
:10003000F500000000000000F7000000F9000000DB
:10004000FB000000FB000000FB000000FB000000C4
:10005000FB0000005F160000FB000000FB0000003A
:10006000FB000000FB000000FB000000FB000000A4
:10007000FB000000FB000000FB000000FB00000094
:10008000FB000000FB000000FB000000FB00000084
:10009000FB000000FB000000FB000000FB00000074
:1000A000FB000000FB000000FB000000FB00000064
:1000B000FB000000FB000000FB000000FB00000054
:1000C000FB000000FB000000FB000000DFF80CD08C
:1000D00000F0C0F80048004767150000B0C20720D4
:1000E0000648804706480047FEE7FEE7FEE7FEE7D2
:1000F000FEE7FEE7FEE7FEE7FEE7FEE73904000065
:10010000CD00000010B50A46202801D2034601E0C8
:10011000A0F120031946202814D2464B1B684FF04B
:10012000030404FA01F423EA0403434CC4F8A8319D
:10013000404B1B6802FA01F443EA04033E4CC4F846
:10014000A83113E03D4B1B684FF0030404FA01F49F
:1001500023EA0403384CC4F8AC31384B1B6802FA6C
:1001600001F443EA0403344CC4F8AC3110BD014639
:10017000202903D20A462F4B186803E0A1F1200280
:100180002E4B186820FA02F303F00300704770B595
:1001900006462B4804683046FFF7E9FF054635B1AF
:1001A000012D06D0022D06D0032D08D105E004252F
:1001B00005E0012503E0022501E0082500BF00BF9E
:1001C000B4FBF5F4204670BD01290AD11D4A12681E
:1001D0001D4B00EA030342EA0302174BC3F8C42095
:1001E0000AE049B9174A1268174B23EA000302EAEA
:1001F0000302114BC3F8C420704700201349086064
:1002000030BF704704201249086008200F49086079
:1002100030BF704704200E49086009200B49086070
:1002200030BF704704200A4908600320074908606E
:1002300030BF7047A8C10F4000C00F40ACC10F4095
:1002400000000010C4C00F40DEF7EFEFC0C00F4049
:1002500010ED00E0064C074D06E0E06840F00103B9
:1002600094E8070098471034AC42F6D3FFF732FF0A
:1002700098020000D802000002E008C8121F08C15E
:10028000002AFAD170477047002001E001C1121F17
:10029000002AFBD170470000706A030000000010C4
:1002A0002C000000780200009C6A030000C00720B8
:1002B000AC000000780200009C6A03002C000010D3
:1002C0001002000088020000486B0300ACC0072049
:1002D000040200008802000000000000000000008E
:1002E000000000000000000000000000000000000E
:1002F000000000000000000000000000FFFFFFFF02
:1003000094480068C0F30160032864D192480068F3
:1003100010F0030006D0012823D002283FD0032884
:1003200058D100E000BF8B480068C0F30E0000F118
:1003300001004FEA4000894900FB01F08849D1F8EB
:100340008810C1F3074101F10101B0FBF1F18548CB
:100350000068C0B200F10100B1FBF0F08249086012
:1003600038E07C480068C0F30E0000F101004FEA5D
:1003700040007E4900FB01F07949D1F88810C1F3B3
:10038000074101F10101B0FBF1F176480068C0B20C
:1003900000F10100B1FBF0F0734908601AE06D480C
:1003A0000068C0F30E0000F101004FEA00416C4804
:1003B000D0F88800C0F3074000F10100B1FBF0F174
:1003C00068480068C0B200F10100B1FBF0F0664976
:1003D000086000BF2FE06048006810F0030006D0FE
:1003E000012810D0022819D0032823D100E000BF33
:1003F0005C480068C0B200F101005849B1FBF0F060
:100400005949086016E057480068C0B200F1010081
:100410005649B1FBF0F0544908600BE051480068C0
:10042000C0B200F101004FF40041B1FBF0F04E49C1
:10043000086000BF00BF704720204D490860484851
:10044000D0F8A00110F0200F05D000BF4848006888
:1004500010F0400FFAD00320424908604FF000002E
:100460003F49C1F8A801434908604FF001003A49EB
:1004700008604148414908604FF0AA0040490860BF
:100480004FF0550008604FF001003E4908604FF002
:10049000AA003B4908604FF055003149C1F88C0073
:1004A00000BF2C48006810F0806FFAD00320354957
:1004B00008604FF0AA002A49C1F88C004FF055009F
:1004C0002F49086000BF2348006810F0407FFAD031
:1004D00023202D4908604FF0AA002149C1F8AC0043
:1004E0004FF05500294908604FF001002849086085
:1004F0004FF0AA00254908604FF055001849C1F88F
:10050000AC0000BF2348006810F4806FFAD00320CD
:100510001F4908604FF0AA001149C1F8AC004FF024
:1005200055001A49086000BF1A48006810F4407F5F
:10053000FAD01948194908604FF000000849C1F87D
:10054000C80143F23A0008604FF000001449086007
:100550007047000088C00F400CC10F4000093D00EB
:1005600000C00F4004C10F4000000010001BB70086
:10057000A0C10F40ACC10F401700010084C00F4064
:100580008CC00F4080C00F40A4C00F40ACC00F40D3
:10059000A0C00F40A8C00F40DE872804C4C00F4091
:1005A00008ED00E001460020052912D2DFE801F045
:1005B0000305080B0E00F7480CE0F648203009E070
:1005C000F448403006E0F348603003E0F148803002
:1005D00000E000BF00BF704701460020052912D28D
:1005E000DFE801F00305080B0E00EA480CE0E948DB
:1005F000203009E0E748403006E0E648603003E09C
:10060000E448803000E000BF00BF70470146002092
:10061000052912D2DFE801F00305080B0E00DD48C2
:100620000CE0DC48203009E0DA48403006E0D948E8
:10063000603003E0D748803000E000BF00BF704763
:100640002DE9F04107460D4616463846FFF7AAFF4A
:1006500004463CB11EB120682843206002E02068B7
:10066000A8432060BDE8F08170B506460C463046D0
:10067000FFF798FF054605B1AC6170BD70B5064641
:100680000C463046FFF78EFF054605B1EC6170BDA4
:1006900070B505462846FFF785FF04460CB1606932
:1006A00070BD0020FCE718B912B9BB4B196014E00B
:1006B000022803D112B9B94B19600EE020B9012A02
:1006C00002D1B74B196008E0022804D1012A02D1F7
:1006D000B44B196001E000BFFEE7704703463BB929
:1006E00032B9B148006820FA01F000F0010070470B
:1006F000022B07D132B9AD48006820FA01F000F0B2
:100700000100F4E743B9012A06D1A948006820FA9C
:1007100001F000F00100EAE7022B08D1012A06D11E
:10072000A448006820FA01F000F00100DFE700BFF4
:10073000FEE710B9A04A116006E0022802D19F4AE4
:10074000116001E000BFFEE7704770B504460D463A
:100750001646324629462046FFF772FF70BD70B537
:1007600004460D4629462046FFF77EFF70BD70B552
:1007700004460D4629462046FFF780FF70BD10B5A0
:1007800004462046FFF784FF10BD70B504460D46B1
:100790001646324629462046FFF785FF70BD70B5E4
:1007A00004460D461646324629462046FFF796FF78
:1007B00070BD10B503460C4621461846FFF7B9FF39
:1007C00010BD2DE9F04107460D4616463846FFF7A5
:1007D000E9FE04463CB11EB120692843206102E0D5
:1007E0002069A8432061BDE8F0812DE9F0418046F1
:1007F0000E4615461F464046FFF7EEFE04468CB1F6
:1008000047B11EB16088284360800BE020882843F0
:10081000208007E01EB16088A843608002E0208845
:10082000A8432080BDE8F0812DE9F04180460E46C6
:1008300015461F464046FFF7CFFE04468CB147B130
:100840001EB1608A284360820BE0208A2843208200
:1008500007E01EB1608AA843608202E0208AA843B4
:100860002082BDE8F0812DE9F04107460E4614468E
:100870003846FFF7B1FE05461DB10EB16C8300E0AE
:100880002C83BDE8F0812DE9F04107460E46144661
:100890003846FFF7A1FE05461DB10EB1EC8300E01E
:1008A000AC83BDE8F08170B506460D463046FFF7D3
:1008B00093FE044624B10DB1E08A70BDA08AFCE726
:1008C0000020FAE72DE9F04180460C4616461F4607
:1008D0004046FFF79BFE05467DB13FB1002C0CDB87
:1008E000032C0ADC285D3043285506E0002C04DB8D
:1008F000032C02DC285DB0432855BDE8F0812DE9CA
:10090000F04180460C4616461F464046FFF77EFEE5
:100910000546BDB15FB1002C14DB032C12DC05F1E0
:100920001000005D304305F1100108550AE0002C6D
:1009300008DB032C06DC05F11000005DB04305F177
:1009400010010855BDE8F0812DE9F04107460C463D
:1009500015463846FFF75AFE064636B1002C04DB32
:10096000032C02DC06F118000555BDE8F0812DE9E5
:10097000F04107460C4615463846FFF747FE064647
:1009800036B1002C04DB032C02DC06F11C000555FB
:10099000BDE8F08100C0092090800240B080024094
:1009A00094800240B480024084800240A4800240CF
:1009B00088800240A88002408C800240AC800240C7
:1009C00070B506460C463046FFF720FE05463DB1A1
:1009D000002C05DB032C03DC05F11400005D70BD69
:1009E0000020FCE7F0B504460B46154619466000AA
:1009F0003B4A102901D31039401C52F820604FEABD
:100A0000410C032707FA0CF7BE4342F8206052F866
:100A100020604F0005FA07F73E4342F82060F0BD22
:100A2000F0B504460B461546194660002C4A403284
:100A3000102901D31039401C52F820604FEA410CB4
:100A4000032707FA0CF7BE4342F8206052F82060F3
:100A50004F0005FA07F73E4342F82060F0BD30B57D
:100A60000B461F496831012A07D151F82040012562
:100A70009D402C4341F8204006E051F820400125DC
:100A80009D40AC4341F8204030BD012806D11449B7
:100A9000896A41F00801124A916206E028B91049BA
:100AA000896A21F008010E4A91627047012800D13D
:100AB000052201B90A220A4BDA67704710B50446CD
:100AC000A27861782078FFF78DFFE278617820784E
:100AD000FFF7A6FF227961782078FFF7C0FF10BDED
:100AE00000C002402DE9F04F87B004460D460020BB
:100AF000069005900490804601200390002002900B
:100B000082468346F6480190F648844204D1062086
:100B1000FFF73DFB064616E0F348844204D1082067
:100B2000FFF735FB06460EE0F048844204D1302042
:100B3000FFF72DFB064606E0ED48844203D1322044
:100B4000FFF725FB06463609012742E04FF0000972
:100B500036E007FB06F007EB0901B0FBF1F004906B
:100B60000498B0FBF5F80498B0FBF5F105FB110013
:100B7000B0EB550F01D908F10108B8F1020F1DD9EA
:100B8000B8F5803F1AD20498B0FBF8F005900598AC
:100B9000A84203D80598A5EB000B02E00598A0EB4E
:100BA000050B0198834509D20397CDF80890C246FA
:100BB000CDF804B0BBF1000F00D104E009F1010948
:100BC000B9F10F0FC5D900BFBBF1000F00D102E092
:100BD0007F1C0F2FBAD900BF05EB45006421B0FB85
:100BE000F1F10198814232D9BF48844216D1207B6D
:100BF00040F0800020734FEA1A20207184F800A092
:100C0000207B00F07F002073F021039801EA0010A0
:100C1000029901F00F010843A06216E0207B40F02A
:100C2000800020734FEA1A20207184F800A0207BF6
:100C300000F07F002073F021039801EA0010029970
:100C400001F00F01084384F828000120069006985F
:100C500007B0BDE8F08F70B504460D46A148844248
:100C600008D0A148844205D0A048844202D0A048C0
:100C7000844200D103E0BF219EA000F0CAFD687944
:100C800040B16879012805D06879022802D06879D6
:100C9000032800D103E0C02196A000F0BAFDA87996
:100CA00010B1A879012800D103E0C12191A000F082
:100CB000B0FD287958B12879012808D02879022870
:100CC00005D02879032802D02879042800D103E030
:100CD000C22188A000F09DFD8248844203D10121F9
:100CE0000820FFF771FA8048844221D10720207242
:100CF0000020207200E02678207D10F0010FFAD14C
:100D0000802084F8300000BF207D10F0200FFBD041
:100D1000002084F83000606020732062207484F822
:100D20004C0084F8540084F85000267E267D18E09C
:100D3000072020720020207200E02678207D10F02D
:100D4000010FFAD1802084F8300000BF207D10F020
:100D5000200FFBD0002084F83000606020732062F8
:100D6000267D6348844202D1002084F82400204676
:100D70002968FFF7B7FE5C48844203D1207B00F06E
:100D8000C00602E0207B00F0C006687930B101287F
:100D900006D0022807D0032808D108E000BF09E0E8
:100DA00046F0010606E046F0020603E000BF46F00A
:100DB000030600BF00BF2879C0B146F008062879B5
:100DC000012806D0022806D0032807D004280BD11A
:100DD00007E000BF09E046F0100606E046F02006F6
:100DE00003E046F0300600E000BF00BFA87928B15C
:100DF000012802D146F0040601E000BF00BF00BF99
:100E00003948844201D1267300E0267370BD70B565
:100E100004460D463348844208D03348844205D006
:100E20003248844202D03248844200D104E04FF478
:100E3000787130A000F0EDFC0DB1012D00D104E07F
:100E400040F2E1312BA000F0E4FC012D10D1264846
:100E5000844206D194F8300040F0800084F83000DD
:100E600014E094F8300040F0800084F830000DE089
:100E70001D48844205D194F83000002084F83000E9
:100E800004E094F83000002084F8300070BD10B504
:100E900004461448844208D01348844205D01348BD
:100EA000844202D01248844200D104E040F28B1107
:100EB00010A000F0AEFC00212046FFF7A8FF094873
:100EC000844203D100210820FFF77EF910BD4FF4C2
:100ED0001651016003214171002101718171704738
:100EE000A086010000C000400000014000800940D1
:100EF00000C009402E2E5C447269766572735C7383
:100F00006F757263655C6C7063313778785F75619B
:100F100072742E630000000070B504460D46FC4854
:100F2000844208D0FB48844205D0FB48844202D06A
:100F3000FA48844200D105E040F2CF11AFF24C00F4
:100F400000F067FCF348844201D1257000E0257071
:100F500070BD10B50446EE48844208D0ED48844286
:100F600005D0ED48844202D0EC48844200D105E02F
:100F70004FF4F471AFF2840000F04BFCE54884427A
:100F800001D1207810BD2078FCE72DE9FF5F804675
:100F90008A46934657465C460398012824D100258B
:100FA0001FE04FF0FF3905E0B9F1000F00D106E076
:100FB000A9F1010998F8140010F0200FF4D000BF37
:100FC000B9F1000F00D10EE0102607E017F8011B61
:100FD0004046FFF7A1FF761E641E6D1C0EB1002C6B
:100FE000F4D1002CDDD117E0002512E098F81400B0
:100FF00010F0200F00D10EE0102607E017F8011BBB
:101000004046FFF789FF641E761E6D1C0EB1002C52
:10101000F4D1002CEAD100BF284604B0BDE8F09F0F
:101020002DE9F05F0746894692469B464E46554657
:10103000BBF1010F1DD1002418E04FF0FF3805E08F
:10104000B8F1000F00D105E0A8F10108387D10F0DB
:10105000010FF5D000BFB8F1000F00D108E038460D
:10106000FFF777FF06F8010B6D1E641C002DE4D11D
:1010700010E000240BE0387D10F0010F00D108E0F3
:101080003846FFF766FF06F8010B641C6D1E002D45
:10109000F1D100BF2046BDE8F09F10B504469C4842
:1010A000844208D09B48844205D09B48844202D0A9
:1010B0009A48844200D105E040F27A21AFF2CC1088
:1010C00000F0A7FB9348844204D1207B40F040000D
:1010D000207303E0207B40F04000207310BD2DE919
:1010E000F04104460D4617468948844208D0894895
:1010F000844205D08848844202D08848844200D186
:1011000005E040F2A121AFF2142000F082FB0FB104
:10111000012F00D105E040F2A221AFF2282000F01B
:1011200078FB072D15D2DFE805F00406080A0C0E3F
:10113000110001260DE002260BE0042609E0082636
:1011400007E0802605E04FF4807602E04FF4007659
:1011500000BF00BF6F48844214D15DB1012D09D09A
:10116000022D07D0052D05D0062D03D0032D01D06B
:10117000042D00D116E040F2BE21AFF2882000F02D
:1011800048FB0FE03DB1012D05D0022D03D0052D08
:1011900001D0062D00D105E040F2C221AFF2AC2013
:1011A00000F037FB012F0AD15A48844203D160680E
:1011B0003043606013E06068304360600FE0554882
:1011C000844206D1606840F28F31B14308406060CC
:1011D00005E0606840F20731B14308406060BDE857
:1011E000F08110B504464A48844208D049488442F8
:1011F00005D04948844202D04848844200D105E0E5
:101200004FF43C71AFF2143000F003FB41488442CC
:1012100001D1007D10BD207DFCE710B504463C489F
:10122000844208D03B48844205D03B48844202D0E7
:101230003A48844200D105E040F20731AFF24C3029
:1012400000F0E7FAA06840F2CF31084010BD014637
:10125000087D10F0400F01D0002070470120FCE70E
:1012600070B506460C4600252948864208D0294814
:10127000864205D02848864202D02848864200D1BE
:1012800005E040F22D31AFF2943000F0C2FAE07880
:1012900040B1E078012805D0E078022802D0E0785B
:1012A000032800D105E040F22E31AFF2B83000F053
:1012B000B0FAA07810B1A078012800D105E040F282
:1012C0002F31AFF2D03000F0A4FA207810B120789E
:1012D000012800D105E04FF44C71AFF2E83000F086
:1012E00098FA607810B16078012800D105E040F2EA
:1012F0003131AFF2004000F08CFA45F00105E078A2
:1013000070B101280ED002280FD0032810D110E0B0
:1013100000C00040000001400080094000C00940BA
:1013200000BF09E045F0400506E045F0800503E018
:1013300000BF45F0C00500BF00BF6078012801D1A3
:1013400045F004052078012801D145F00205A07878
:10135000012801D145F008054948864203D105F02E
:10136000CF00307202E005F0CF00307270BD002176
:101370008170C17001210170417070472DE9F04109
:1013800004460F4615463F48844208D03C488442F4
:1013900005D03D48844202D03C48844200D105E05B
:1013A0004FF46271AFF2B44000F033FA0DB1012D89
:1013B00000D105E040F28931AFF2C84000F029FACF
:1013C0000026012D09D13878012801D146F0020606
:1013D0007878012801D146F004062948844215D1C5
:1013E000012D10D1207B40F0800020730020207060
:1013F0002071207B20F0800020731020A06246F036
:101400000100206218E00020206215E0012D11D1BA
:10141000207B40F080002073002020702071207B12
:1014200020F080002073102084F8280046F001008E
:10143000206201E000202062BDE8F08170B5044622
:101440000D461048844208D00D48844205D00E480D
:10145000844202D00D48844200D105E040F2C931F7
:10146000AFF2705000F0D5F90548844203D1206AEC
:101470002843206202E0206A2843206270BD0000F9
:101480000000014000C000400080094000C0094049
:1014900010B504462CB1012211070020FFF7D0F847
:1014A00005E000224FF080511046FFF7C9F810BD4B
:1014B00010B504463CB1012C04D101070020FFF710
:1014C000D3F806E000BF4FF080510020FFF7D6F8B8
:1014D00000BF00BF10BD70B51C240025234E07E0DF
:1014E000E2B23146224800F05FF905462E44641B03
:1014F000002CF5D1622400251E4E07E0E2B23146F1
:101500001B4800F051F905462E44641B002CF5D110
:1015100070BD8AB000BF0120FFF7BAFF0020FFF7BF
:10152000C7FF00F085F9002407E0134A02EB4411DD
:101530006001202200F048FA641C41F66F208442CA
:10154000F3D300240BE041F6652121440B4A182314
:1015500003FB012001AA194600F003FA641C0A2CBF
:10156000F1D300BFFEE7FFF7D4FF000000C0072063
:1015700000C000401CC00720701C0000404E03004B
:1015800000E000BFFDE710B500220121A248FFF7EF
:10159000A6FD00BFA048FFF75AFE0128FAD011E0CF
:1015A0009E48426810301118002301229A48FFF724
:1015B000ECFC30B199484068401CC0B29749486083
:1015C00000E007E095480068C0B294494968C9B294
:1015D0008842E5D100BF91480068C0B28F49496890
:1015E000C9B2884208D1002201218B48FFF777FD5C
:1015F00000208B49087007E001208949087001220A
:1016000011468548FFF76BFD10BD38B524E0002377
:10161000012269468048FFF703FD0446DCB17F489C
:10162000C068C1B27D488068401CC0B2814213D0FE
:101630009DF800107948826800F5887081547748D9
:101640008068401CC0B27549886076480068401CBC
:101650007449086000E000E0D9E700BF38BD70B50C
:101660006D48FFF7DAFD054605F00E04062C06D19D
:101670006948FFF7B6FD064606F09E0600BF042C3B
:1016800001D00C2C01D1FFF7C0FF022C01D1FFF7D4
:101690007AFF70BD10B586B001208DF806000020DD
:1016A0008DF808008DF8070002208DF80500002055
:1016B0008DF8040001A8FFF701FA03208DF805005A
:1016C00001A8FFF7FBF904A8FFF701FC04A95248A1
:1016D000FFF7C1FA03A8FFF74AFE03A94E48FFF738
:1016E000BFFD01214C48FFF792FB012200214A482F
:1016F000FFF7F5FC012202214748FFF7F0FC00202C
:101700004749087045498860C860086048600520FE
:101710000921002807DACA06140E434A00F00F0315
:101720001B1FD45403E0CA06130E404A135400BFD3
:1017300005200121814042094FF0E02303EB8202A2
:10174000C2F8001100BF06B010BD2DE9F04180467F
:101750000D4614462E460027002211464046FFF74C
:10176000BEFC0FE02D48C16800F58870405C307009
:10177000761C2A48C068401CC0B22849C8607F1C3B
:10178000601EC4B2002C07DD24488068C0B2234923
:10179000C968C9B28842E5D1012200214046FFF75D
:1017A0009EFC3846BDE8F0812DE9F04180460D46AB
:1017B00014462E460027002201214046FFF78FFCE9
:1017C0000EE031781548026810308154761C1038CC
:1017D0000068401CC0B2114908607F1C601EC4B282
:1017E000002C08DD0D484068C1B20C480068401C60
:1017F000C0B28142E5D10A48007810B9FFF7C3FEB4
:1018000004E0012211464046FFF769FC3846BDE876
:10181000F08100BFFEE7000000C000402C00001077
:10182000290000100400001018ED00E000E400E0C2
:101830000EB5002002908DF802008DF804008DF89E
:10184000030001208DF8000004208DF80100684697
:10185000FFF734F908208DF801006846FFF72EF9EC
:1018600009208DF801006846FFF728F90A208DF855
:1018700001006846FFF722F90E208DF80100684646
:10188000FFF71CF90F208DF801006846FFF716F9E5
:10189000012248F210711046FEF7D2FE00224FF4EA
:1018A00080410120FEF7CCFE4FF400410120FEF7FD
:1018B000DBFE10210120FEF7D7FE4FF480610120EE
:1018C000FEF7D2FE4FF480710120FEF7D7FE0EBD69
:1018D00000BF0100A0F10100FBD1704770B50446C4
:1018E00000251BE014F0800F05D04FF4007101209B
:1018F000FEF7BAFE04E04FF400710120FEF7BEFED1
:101900004FF480710120FEF7AFFE6006040E4FF425
:1019100080710120FEF7B2FE681CC5B2082DE1DB24
:1019200070BD70B500250024002600BF15E06006DC
:10193000040E0120FEF7ACFE10F4804F01D044F0FD
:1019400001044FF480710120FEF78EFE4FF4807188
:101950000120FEF793FE681CC5B2082DE7DB204688
:1019600070BD2DE9F04104460D461746002660196A
:10197000B0F5800F00D215B90020BDE8F0814FF41A
:1019800000410120FEF77AFE0B20FFF7A7FFC4F30A
:101990000740FFF7A3FFC4F30720FFF79FFFE0B264
:1019A000FFF79CFFFF20FFF799FF002603E0FFF7FA
:1019B000B8FFB855761CAE42F9D34FF40041012070
:1019C000FEF752FE0120D8E72DE9F04705460F4605
:1019D00016464FF000080024A146A819401EB0F595
:1019E000800F00D216B90020BDE8F0874FF4004107
:1019F0000120FEF743FE0520FFF770FFFFF791FF80
:101A000080464FF400410120FEF72EFE4FF40041C6
:101A10000120FEF733FE5020FFF760FF4FF4004136
:101A20000120FEF721FE4FF400410120FEF726FEC3
:101A30000120FFF753FF0020FFF750FF4FF4004154
:101A40000120FEF711FE002440E04FF40041012088
:101A5000FEF714FE0620FFF741FF4FF4004101207E
:101A6000FEF702FE4FF400410120FEF707FE0220C0
:101A7000FFF734FF2919C1F30740FFF72FFF29199A
:101A8000C1F30720FFF72AFF2919C8B2FFF726FF85
:101A9000385DFFF723FF4FF400410120FEF7E4FD1E
:101AA00000BF4FF400410120FEF7E8FD0520FFF7DD
:101AB00015FFFFF736FF81464FF400410120FEF786
:101AC000D3FDB9F1030FECD0601CC4B2B442BCD357
:101AD0004FF400410120FEF7D1FD0620FFF7FEFE86
:101AE0004FF400410120FEF7BFFD4FF400410120FB
:101AF000FEF7C4FD5020FFF7F1FE4FF40041012036
:101B0000FEF7B2FD4FF400410120FEF7B7FD0120C2
:101B1000FFF7E4FE4046FFF7E1FE4FF400410120ED
:101B2000FEF7A2FD01205FE72DE9F0470025002622
:101B300000240027A046A1464FF400410120FEF7F3
:101B40009DFD0520FFF7CAFEFFF7EBFE05464FF4AB
:101B500000410120FEF788FD4FF400410120FEF70F
:101B60008DFD5020FFF7BAFE4FF400410120FEF733
:101B70007BFD4FF400410120FEF780FD0120FFF7BF
:101B8000ADFE0020FFF7AAFE4FF400410120FEF752
:101B90006BFD4FF400410120FEF770FD0620FFF7BA
:101BA0009DFE4FF400410120FEF75EFD4FF4004121
:101BB0000120FEF763FD6020FFF790FE4FF4004127
:101BC0000120FEF751FD00BF4FF400410120FEF758
:101BD00055FD0520FFF782FEFFF7A3FE04464FF4F4
:101BE00000410120FEF740FD032CEDD00120BDE8AF
:101BF000F08770B505460E460024012D17D1C103AC
:101C0000FEF73CFD9F20FFF769FEFFF78AFE2043A9
:101C10000402FFF786FE20430402FFF782FE04431E
:101C2000E9030120FEF720FD3460012070BD0DB1F5
:101C3000022D1BD14FF400410120FEF71FFD902023
:101C4000FFF74CFE0020FFF749FE0020FFF746FE9D
:101C50002846FFF743FEFFF764FE04464FF40041B9
:101C60000120FEF701FD34600120DFE70020DDE701
:101C7000FE0202FE00FE32CE00F212F202FE02006E
:101C80000702020700FF040700070447807F0000E7
:101C900000FE122AC600E2222222E202FE02020016
:101CA00000FF020403000302020243807F000000E1
:101CB000202020FF202080685C4BCA484A5C080036
:101CC0001030100F08494222120A070A126222003D
:101CD000101010FF905000886C4BC8484C58000002
:101CE0000242817F00828242221A0F1262C24200A7
:101CF000FC040404FC0808DF080808DF08080800E2
:101D000007020202874020100B040B3060C0400025
:101D1000FC0404FC0080685C4BC848484A5C08002E
:101D200007010103814222120A070A1262C242001D
:101D3000000404F494949495969494F40404040098
:101D400000101009FC422102040C1633622020000E
:101D500000F88C8BF8005E50505F5050D01E000091
:101D6000003F08081F003E42424242424740700086
:101D70001020FC0404047455565454547404040094
:101D800082611F0007F545454778474545F507003F
:101D900082828A320207FAAAAAAAAFAAFA0202002B
:101DA00000007F28143F22322A262A52827E000019
:101DB000605F44FC44408A4A2A9AFE192949480037
:101DC000201806010648424A2E33123E22420200E3
:101DD00004040404649F0404041FE4440404040091
:101DE0008080404020110A040A11202040C0400099
:101DF00002C2F24EC202405F55555555D55F4000B4
:101E000001007F103F0002020A3242827F0202007C
:101E10000040B2969A92F69A9391999791903000D9
:101E20004020A0904C472A2A121A262240C0400087
:101E300000FE324A8608896E08080C2B4888080084
:101E400000FF0244437E427E42427E427E4040008A
:101E500004C45FF45FC4048C84C5B684848C84009D
:101E6000080B0AFF0A4B48202215081463C0000023
:101E7000002028246BAA2A2A2A2A2AEA2A020000F9
:101E8000088B89995D6929598B09000F3040F00052
:101E900080908C8484F4A58684848484948C8400CB
:101EA0008080804047282810282443C0400000003C
:101EB0004020F85742E4544CE7444CD424444000BA
:101EC00000007F00001F09093F49494F4040700052
:101ED000101010FF9050988888E98E8888988800A4
:101EE0000242817F004040262518081631602000FC
:101EF00000FC4444FC40444C7445665C444440004F
:101F0000000F04040F00007F252525257F00000019
:101F10000000E02EA8A8A8A8AFA8A8A8A8AE2000F6
:101F200040201F0404040404FF0404040404040007
:101F300000FE2222FE108C84F4A58684948C04007A
:101F4000807F41817F0080422518081423E04000F3
:101F500000202C246474ADA6E43424242C24000036
:101F60000024242515150DFE040D171424642400E7
:101F70000000FE9292FE0808E8292EE808080800F2
:101F800040300F20403F80403F00003F4040700005
:101F90000000809F95555515959595959F8000005B
:101FA00000001F0804000000FF000008100F0000E0
:101FB0002020203C24A4643F64A4243C2020200052
:101FC0004444427E43427E427E42437F4246420038
:101FD00000FE020202FE808080FE020202FE00007D
:101FE000007F10101010101010101010107F000043
:101FF000404454D47F54544420F81712F010100079
:102000004020180742827E404020130C336020009D
:10201000202AAAFFAAAAAA60384F8AC8380C08004A
:1020200008C473041C67C0081462C103166CC400A2
:1020300080BEAAEBAABE906202FE106202FE000001
:102040000C0A09FC090A0C42817F0442817F0000CE
:10205000101116D23080444444FE424242400000F7
:10206000040201FF018662180700030C10602000C3
:102070004020F80742D47F545444709F12F010005F
:1020800000007F40300F22623E4020190679200078
:102090000000FE222AB263FE62B2AA22FE00000005
:1020A0008084454425140C070C14252445C44400A1
:1020B0007000FF1020FC24AC76FDB42C04FC000062
:1020C0000000FF0044452524140F14254445440016
:1020D0001021866000FC2CB6FD74AC24FC000000CE
:1020E000047C0344442725140F0C15244744440062
:1020F000040404E4243F24E4243F24E4040404000E
:102100000000003F424242434242424340782000A6
:102110001010FF9050003EE2223E0000F800FF0049
:1021200042817F0040211947817F000047807F0066
:10213000101090FF50100000F80000FC000000009C
:102140000121403F40201807000000010E702000D0
:10215000FC040404FC0000FC003FC200000000007E
:1021600007028242271807000000010618602000BD
:10217000FE020202FE00FE4242427E424242FE0057
:102180000701010103003F404040404040407000D3
:10219000100CE322263A2232E82722263AE20200F5
:1021A00000003F42424242424342424242437800A0
:1021B00000000000807C0800007E84000000000019
:1021C0002010080601000000000001061830100071
:1021D000106000FC04E4242526E4242424E4040004
:1021E00084621907003F4242424342424243700028
:1021F0000000FE424242427E42424242FE00000055
:1022000000003F4040404040404040404078200077
:10221000080808FF88481010FF505052D450100092
:102220000242817F4020584720130C162160200075
:10223000003E22E2223E1010D07F50525CD01000AF
:10224000203F101F4929904C2316081423E040001A
:1022500004C45FF454DF0400FE427E42427E00006C
:10226000080B0AFF0A0B08003F404040404078003E
:10227000101010FF905000FE42427E42427E00004D
:102280000242817F0000003F4040404040407000DB
:10229000809494FF949400FC8484FC8484FC00006B
:1022A000100C03FF010E043F4040404040407000CE
:1022B000202020FF202000FE0202FA0202FE000081
:1022C0001030100F08048043300C030C1063200002
:1022D000808CCD958DD5859F05CD554D55CC040071
:1022E000202E2B2AFE2B2AAE601F0545857F00007D
:1022F00000005F49494F49F9494F4949491F0000CA
:1023000002022262322A262322222A72220202009A
:1023100000008884C2C5A89090A8A5C244CC400003
:102320000101003F44444447444444474070000096
:102330000000F808080C0B0808080808F80000005E
:1023400000007F2121212121212121217F00000066
:102350000808E8FF488800F8080C0B0808F8000097
:10236000040300FF000100FF4141414141FF000023
:10237000020202F212121E16121212F202020200DF
:10238000000000FF41414141414141FF0000000088
:10239000080808FF8848BEA2BEE2A2BEA2BE000096
:1023A0000242817F004464544C47444454E4440056
:1023B0004020F80F0200E222322E222222E2020006
:1023C00000007F0000007F1111111111117F00002A
:1023D0000000FE02F202FE20F8171210F0101000AA
:1023E0000040310C0304B95020130C1360C04000AE
:1023F00000829292FE919180024A4AFE4A4A02006D
:102400004020100C03000000020202FF0202020042
:102410001012D2FE519100FC24A67D2424FC000061
:10242000040300FF0009080D0B09FF090909080052
:102430004242FE424A38CA8C788A82FE8282020078
:1024400020205F5020100C035E40407F4040400041
:102450004242FE4242E000FF004242FE424242004F
:1024600010100F88492018072020203F202020002E
:102470000888FF48A8FC96A5FCC0BE8282BEA000CA
:1024800041807F40300F42847F4021161866210032
:102490001010FF905000FE62A2222222E2220000D1
:1024A00042817F4020584720110A0C1330602000E1
:1024B0008080FC96A5FC80403E0202023E40400027
:1024C00080601F42847F80412719192543C1400045
:1024D00040304EC142CC3002F21AD61212F2020043
:1024E00040201C23403F40402F100F10206F000061
:1024F0001010D0FF509000FE62A22221A1610000C6
:102500000403007F00110E4120110A0E31602000EB
:1025100000FE90909E1010FEE2222221E121000098
:10252000403F00005F20984720130C1B60C0400014
:10253000080888FF48A840B088878C90A0404000D9
:102540000141807F00402018070040807F0000008C
:10255000080808FF4808243820FF20302C280000F5
:102560000242817F0002020202FF02020202020016
:102570004020F02C0324382820FF20302C28000095
:1025800000007F0002020202027F02020202020039
:102590004455C67C44F804FC3AC24475C67C4400E9
:1025A00040320F42300F003F10071A227F02020014
:1025B000000042445C4840FF4050484664400000F0
:1025C00000040404040404FF0404040404060400D6
:1025D0000008C80808887F080808FC488000000038
:1025E000044221100C03000020403F0000070200BD
:1025F000406058C7200000243820FF20302C000005
:1026000044464524242002020202FF020202020084
:1026100004242424FF24240400FE02225A860200FB
:10262000014121190701010100FF000810100F00EE
:1026300000202A2AAA7F2A2AAA00FE429AA642003D
:10264000000402013E020202FF0213221E000000EB
:102650001010D0FF509848FF484800FEC2320E00CC
:10266000040300FF40221A07020200FF08110E00B7
:10267000088868FF488864242C75B62C24642000E0
:10268000020100FF00804121190745857D010000FE
:1026900000FE1212FE0064242C75A6342C64240063
:1026A000C03F41817F0081611F0545857D0100009C
:1026B0002030AC63104444FF444400FE42B20E009C
:1026C000222312128042320F020202FF08100F0072
:1026D00010D0FF50904454D4745FD45454444000FC
:1026E0000300FF00020A090A0AFF0A0B090A020096
:1026F0000082E25E42C2642C3465A6342C24600061
:1027000001007F1010BF41310F4585453D0100009C
:1027100000F888FF8888F8484848FF48484848003B
:102720002063203F10143B120202FF02020202004B
:1027300020102CE7240460242C75A6342C6420007F
:102740000101017F21114021190725453D010100AB
:102750004020F80782642C3465A6342CA474200031
:1027600000007F000041310F050525453D010000B7
:102770004041CE044024242C75A624342C6420002F
:1027800000007F2090412119070545857D0100004B
:102790000404C43C242F2424242F2424E40404000F
:1027A0000001003F45454545474048504F407000B7
:1027B00000FE1212FE2010CC4B4AC80808F8000098
:1027C000807F0181FF00003F42424348584F700024
:1027D000804020D84F4A484848C80808FC080000F4
:1027E0000000003F42424242424348504F40700086
:1027F0004022F21E8A82BAABAAEAAABA8282820078
:1028000000202720F4540A0E1127314AC444000046
:102810002022AA2A2AEA2A3EA000F80000FF00008F
:1028200008180845827F020518000F40807F0000CD
:10283000428AB292021FD25252FF5256DA1212004C
:102840000809FC1310101F75151F95F51F101000B7
:10285000000C0455D555053F05555555050C04008C
:102860000004023D555555555D4149514F4070009A
:102870004020F8178280BEA2A2E2A2A2BE80800001
:1028800000007F0020100806017F030C18301000A4
:102890002010F81722202EAA6AFA6AAA2E202000F9
:1028A00040404B48484A497C484B4848494B4100C6
:1028B00080601CCB281828D04F48C80808F80000B2
:1028C0000000007F2010003F424243404447700018
:1028D000100C2424242425E624242424340C04006D
:1028E000004040424242427F42467A5242404000CB
:1028F000101010FF9050F04F4848C80808F800002A
:102900000242817F00003F424242434448477000F8
:10291000080888FF482800FFC141414951CF000005
:102920000141807F000000FF4023141C3360200021
:102930000040405F55F5555555F5555F4040000046
:1029400011110949250B91FD110B254909190900A0
:1029500090904834E3920848304F8A080808F800FD
:102960002424124984423F000000034180403F007C
:1029700020F897F29AF64020F82F28E808F800008F
:1029800020272417141700003F4141454847700095
:10299000F000FF100C405F55F55555F5555F0000F0
:1029A000201807120D252355897F091523050900D5
:1029B000088868FF488A0202C2F20E820202020000
:1029C000020100FF0004020100FF000001060C00EC
:1029D0000082E25E42C202FC24A67D2424FC0000A8
:1029E00001007F10103F080D0B09FF0909090800BD
:1029F0000044545454FF000000FF54545444400019
:102A0000002038003C4140424C41407000083000FA
:102A10000000FC94949496FD94949494FC0000001F
:102A20000404050406060504FE0404040504040069
:102A30000020202020FF000000FF40203018100060
:102A400010301808047F0000003F404040407800EC
:102A500000222A2A2A7F8040007F2A2A2A22200058
:102A60000011111115171515FF1515151511100069
:102A70002064249494BF80809FA4A4A222380000E4
:102A8000000000FF121212121252927F000000008A
:102A9000000000FE020202F2020202FE000000003C
:102AA0000040402720100807081010276000000091
:102AB0004030EF24242400FE0202E20202FE000065
:102AC00001017F2111494027201807081067C00025
:102AD000002010FC03848CF4A586C4BC948484007C
:102AE0000000007F00007E22222222227E000000C1
:102AF00040221498E40300FE0202FA0202FE0000E3
:102B0000044281403F804027100C030810376000CA
:102B100000201008878A522222528E820000000074
:102B2000020201FF4A4A4A7E4A4A4AFF0103010063
:102B300000404048C4676AD2526A66C240404000C2
:102B4000004070003745454F55454567001060000F
:102B5000806000FF20908494A4C586C4A494800063
:102B6000402018070408007E22222222227E000034
:102B7000080889CE3888F808C8487F48C81808006F
:102B8000020100FF01827F804136081621C040000B
:102B900080844424544C47F4444C542424C44400BA
:102BA000048444340F0404050404FF0404040400F2
:102BB0000424242424AF64F464A42F2424240400D3
:102BC000201008040A0908FF0808090A0418080068
:102BD0000808080808C838FF1868880808080800A6
:102BE000080804020504047F04040403060C04001E
:102BF000104C43465AC242F844C342465A6242000D
:102C0000201008040A0908FF08080B040C18080023
:102C10000000F6545454F40704F49494F6000000B1
:102C200040300F0222423F40300F24443F0000005A
:102C30002030AC633000FE12FE00FE1212FE0000D7
:102C400012134A2A120C13215F201F21413F00005A
:102C50001012D2524A4A4AFE464A4A52D2332200FF
:102C600080601F050505057F050545857F0000007F
:102C700021211111097D4BC94949497901010100FF
:102C8000404121110D43807F02040A12316120006E
:102C9000003E22E23E00EEA8E8080FE8A8A8EE00F9
:102CA000203F109F51314F847F80601F44847F00FC
:102CB00040414EC4808889FE8A8888FC8B88000049
:102CC0008040201F20504C434040407F4040400007
:102CD000004042CC0082BAAAAAAAAAAABA820000DC
:102CE0000040201F204F4A4A4A4F4A4A4A4F40005C
:102CF0000000C05E565A53D2565A525EC0000000C1
:102D000010101795751515171515F51517101000D6
:102D10000000FF2020202000FF4040402020200015
:102D200000007F20100800003F40404040407800F5
:102D300020A0AFA9F9A9A9AFA000FE02225A8600DF
:102D4000007F202E2A2A2E207F00FF04080807007B
:102D50001048474C5444D42824272C34240404001D
:102D60001012121212127F898989898988E8080055
:102D70001088C4732200F808C8487F48C8180800A3
:102D80000100FF0080609F402116081661C04000CE
:102D900000424A4A7E4A42007E4A4B4A4A7E00002E
:102DA00000211109FD4B494949494949F9010100EF
:102DB0000202F2121AB7525252B71212F202020073
:102DC0000000FF49492929013F4949454540600024
:102DD00002D26242FA4762D202CF7A5242C2420023
:102DE000007F0C037F21463F8141261826C1400009
:102DF0000000FF88482808807F8888888484E00055
:102E000004040404040404FF04040404040404008B
:102E10008080BFA4A49494809FA4A4A2A2B88000A0
:102E20004048242F120A0602003F444442427000E8
:102E30000000FF84442484003F4848484444700014
:102E400040504C403E6050534844437000041800CA
:102E50000002F212121212FE11111111F101000002
:102E600000001F00000000FF000008100F0000001D
:102E70000000FC0404F4848506F4040484C4840083
:102E800040300F00207F2010003F41414040700043
:102E9000106000FC04F4545455F6545454F40400E7
:102EA0008442310F0485453D050505FD05050400F7
:102EB0000000F90246404242FA42424202FE00004D
:102EC0000000FF00040412211F000040807F00006A
:102ED00000E428B0FE3028EC40F01E1410F0100082
:102EE00000FF02017F0382FF4020130C33C040002B
:102EF00000FA4C28FF284CFA108C5724649C84005C
:102F0000040584641E0405050404FE04040504008D
:102F10000000C000F011020C04C0304E840000001C
:102F2000404621103F28242221202020380702007B
:102F300000FE2222223E008494A58684A49484006C
:102F40003C033F11113F00040404FF040404040087
:102F500000FED25252DE20A4ACB5E6B4ACA4A4006C
:102F600042414B49494B487C48484B484840400007
:102F700020107F555577002A2E2AFB2A2E2A2A0058
:102F8000000000FF151515151555957F0000000070
:102F90004042CC00FE92929E404C55E65C4440007C
:102FA00040201F24434F484F4042425F424240006E
:102FB00000FE225A8600FF4828007F888484E000B3
:102FC00000FF020443404444447F444444444000DE
:102FD00004DF54F45FC424F807F252FE52F20200F8
:102FE000080909FF090900FF0049311F61C14000BC
:102FF00040414EC400101010FF101010F0000000EF
:103000000040201F20484443404858484740400063
:103010002030AC633200FCA4A5A6A4A4A4BC00008C
:1030200010110949211C037F043F043F447F000025
:1030300000FE02FA02FE0044444C7252C2420000FA
:1030400040271807087720101824424140404000CC
:10305000000000FC9494949596949494949C800021
:1030600040300E01FF04047F04047F0444847F0089
:103070004020F01C07FA2A2A2AFE2A2A2AFA0200ED
:103080000000FF00808345291917212141C140001C
:10309000008444342404FD0606FC041424E44400A3
:1030A000818080414127291111292741C0404000DA
:1030B00008080808080809FE0A880808080808001F
:1030C00000000000000000FF0000010E04000000EE
:1030D000445465C66454F400FF94A485A69C9400EF
:1030E00040221A078242300C030404FF0404040047
:1030F000444C75C6744411F60294E4A5C6BC940011
:103100000042320F0202000F040004047F04040096
:10311000405465C67C44B06C30045465C67C540091
:103120008242320F0213311909080202FF02020023
:103130004042CC0000FCD454D556D454DC000000EE
:1031400040201F2846415F414F414F515F404000A2
:103150001010D0FF509020222222E22222222000B2
:10316000040300FF0009040340807F0001061C00E7
:1031700000F84848FF2A2A8A1A2010886C47020063
:10318000C03F80601C05053D4042514844437200E9
:1031900000FE1212FE003AAABEAAAABEAABA0200F5
:1031A000C03F41817F40221A52827E020A72220071
:1031B000004044545454D4FF545454545444400094
:1031C00008080404FE4321100304081423622000AD
:1031D00000FD26147F94A6FD909867245C848400EB
:1031E000808482BEABAAAABEABAAAABE80808000A1
:1031F00000FA8C68FF284CFA20182FC8C83808003D
:10320000002338003B40424B50424160000B3100EC
:1032100000007E22E222227E0000FC0000FF00006F
:103220008041310D0321613F00000740C07F000055
:103230000810FE0202FA8AABCE9AAA8AFA020200AB
:1032400082611F0808057C92918A8A84E50808003B
:103250000010D0FF9000D0FF509000108CE742008B
:10326000040300FF000700FF00472211180E0400AE
:1032700008488A0CE818D414F41410FF1214100033
:103280002010090619203F201F111107182078006F
:103290001021C620BC20FF2828F21AD612F2020004
:1032A000047F40422120134C4327100F1027600059
:1032B000081106C0000C04E4A4A59694948C0400A4
:1032C00004FC0300808444270404041724C404007D
:1032D00000180404F494949596949484940C040037
:1032E00004844424371C1404040F1434E4440400FC
:1032F000080888FF48281CE4A4A5969494840C0030
:103300000141807F0044241F0404040F346404003E
:1033100000000000FE12121212F111111010000034
:1033200002824262331E0A020203060A32E24200AD
:103330000002CC001010F01000FFC0203810000078
:10334000027E21100C030020403F000304180800F7
:10335000088868FF4888E2222222FE222222E20018
:10336000020100FF0000FF08040201224C807F00E0
:103370000002F212121212FE1212121212F20200C5
:1033800000007F000804030001020C24403F0000FD
:103390008888AAAAAAAAAAFEAAAAAAABEA8888002A
:1033A00040402222120A06FF060A122267C040008D
:1033B0004030CF0828180009FA0C0808FC0B080058
:1033C00000007F20100841310F010101FF010100C1
:1033D000807000FF100CE22222E23E2222E2020074
:1033E00040300C030204FF0806010146807F000004
:1033F000106000FC1494949596F494949414040032
:103400008442390700FF1008060146887F0000004B
:103410000010101112FC14101010F81712100000F8
:1034200000018141310F01010101FF010101010092
:10343000044444FC444400F88888FF8888A81800A5
:103440000818084F241887402314081463C040004C
:10345000044494A404EF242424FF2424A46424001A
:103460000808F986601F81472911292741C04000BB
:103470000808FF884812965A32FE315995919000FB
:1034800042817F000101FF49497F4949FF01000056
:103490000808FF8848001E10D0BF909092141000BA
:1034A00041817F0020504826211608162140400007
:1034B0004030EF24242414109050FFD0101000004E
:1034C00001017F21110108060504FF04070408001B
:1034D000106001E600F8888888FF8888881808004E
:1034E0000404FF40308F80412618182661C0400038
:1034F0002020FF202004F45454FF5455F60400000B
:103500000000FF0004040F351547857F0704040001
:1035100040B494949F94D4340010FF1010F0000035
:10352000080848847E050242300C0320403F00001A
:10353000080888FF4822FAAAAAFFAAAAABFA020042
:103540000141807F0004050C140544847E050400BD
:1035500040302CEB28280800F8888C8B8888F800ED
:103560000101017F211109007F20202020207F0000
:1035700048841362060AC242685742464AC20200A1
:103580001011F8060100FF444444444444FF000085
:10359000008060F80F02F8080C0B0A0808F8000019
:1035A0000100007F00007F2121212121217F0000D7
:1035B000000000FC545456D554545454FC000000F0
:1035C00000007E02020202FF02020222423E0000CE
:1035D0004040FC566544FC00F88C8B8888F800005D
:1035E00080601F0146827F007F202020207F000016
:1035F00000FE1212FE40349494949F94943414006C
:10360000C03F41817F00040444847E05040404001B
:1036100000FE2222FE0004F45454FF5455F6040028
:10362000C03F42827F00083B09498B7D090B08009F
:1036300010618660A4A4BFA4A46010FF1010F00065
:1036400004FE010848887E0584601C0340807F00DA
:10365000083106C03000F8080C0B080808F8000014
:103660000202FF000000FF414141414141FF0000D3
:1036700002FA8282FE82202214080C12B00000009E
:1036800008082444201F404122140816216020000D
:10369000101010FF9050E8A8A8A8FFA8AAACE80056
:1036A0000242817F0000FF040404FF0444847F0081
:1036B000000000000000FF2040408080000000006B
:1036C000000000000000FF000000000103000000F7
:1036D000FC0404FC04F4949494FF949596F4040080
:1036E00007020207007F0404047F0424443F000013
:1036F000080889CE2A9848000000FF20408000007A
:10370000020100FF010204000000FF0000000300AE
:103710001010FF101000FCA4A6A5A4A4BC800000FB
:1037200008180F040410171414FC141414171000B4
:1037300000020202028242FE0642C282020302002C
:10374000000804020100007F0000000107020000E1
:1037500008080888C8B88F8AF88888888808080008
:10376000040201003F000000FF0010201F000000C5
:1037700000202020BC202020FF24242424202000FE
:103780000044444241202020171008040302000096
:1037900048840B32861AD25A54F35A565AD212001F
:1037A0001011FC0308080F1A2A0F49897D0F080021
:1037B00040444C7546645C4440FE0242629A0600F6
:1037C00000007E222222227E00FF000808100F0047
:1037D0007000FF083004C4645C47F44444C404002F
:1037E0000000FF0402011F000000FF10201F000066
:1037F0001010FF50904CA4DC54352654A40C040047
:1038000042817F0004423544857D05152465010011
:1038100020110A8CF320AAAAAABFAAAAAA222000D1
:10382000044281601F00FF0A0A0A4A8A7F000000E2
:10383000109094B4DF94949410FF1012D490000070
:103840000808047E21020C5220100F162140380077
:103850001010D0FE509000101010D0FE101010006C
:10386000080601FF000110080443807F00000000EB
:1038700000101010101010D030FF10101010100099
:103880000010100804020140807F000000000000CA
:1038900000FE0202FA02FE0010109070FF101000ED
:1038A0008043201807087320080641807F0000002D
:1038B00000FE2222FE828AB286EA81A1918D8000DA
:1038C000007F11113F40300C03FF010618702000EB
:1038D000003E22E2223E8AB286DAB281B18D000039
:1038E000203F101F0929100C03FF030408301000AB
:1038F00000848494A48484D2A282A29A82808000CC
:1039000020201010080402FF0102040818301000E3
:10391000828AB286DBA1918D8820100886644000DF
:1039200020100806FF020458482022110807020050
:1039300002023252921F3252121F9252320202007F
:1039400000424222120A06FF060A123262220200D6
:103950008242A25A925732023257925232020200E7
:10396000048442352445857D050514256502020041
:1039700000504C58AF9A4AA240669A8A162200001C
:1039800002020101FF492B0D19296FD00901010025
:103990002020282CAA6B38AC2464A62C2020000000
:1039A00002424555524A2924241212090B060200EC
:1039B00008088989492919CF09192949898988005D
:1039C0000141404F4545453F2525252F70210000E9
:1039D00000C2B21E1292729290FF90924C48480020
:1039E000412010092621201010100F1C2240F00049
:1039F0007000FF0854645CF74400FC2424E22200B9
:103A00000000FF00080804FF42300F0000FF000024
:103A10007000FF083020A4663D2464A62C202000FE
:103A20000000FF020655524A292412100903020021
:103A3000806000FF201800F00000FF0200F010007E
:103A400040300E01020C007F20203F2020FF0000AC
:103A5000020202824F623A1222424F828202020026
:103A6000010101003F41414149514F4031010100F5
:103A70008080FC96A5FC2010C8444344C830100048
:103A800080601F42847F00003F40444C477000002C
:103A900000804020D04844434448D03060C04000BB
:103AA000000000007F80808088988F80E0400000C8
:103AB000106001866020D048444344C83060200034
:103AC0000404FE0100007F808084888780E000007D
:103AD00002E282F212DF52D25217FA16DA92120082
:103AE000108E621F001F151D5720130C334030002D
:103AF0000808FF884800F097F505F59597F0000055
:103B000042817F00404222120AFF060A32622200EE
:103B10002438E0FF30AC80605E48487F4848400071
:103B2000080700FF41221F204F494949494F4000E3
:103B3000088868FF2840FAAAAAFFAAFFAAAAFA00E2
:103B4000020100FF000000FE4A4A4A4A4AFE000005
:103B50000202FAAAAAAAFFAAAAFFAAAAAAFA02001D
:103B60000000007E2A2A2A2A2A2A2A2A7E00000009
:103B7000040404E4A4BFA4A4A4BFA4E404040400B3
:103B80000808080B0A0A0AFE0A0A0A0B08080800B5
:103B90000000FE02FA0AEA0AFA0202F202FE02003B
:103BA0006018074027100F1067200027403F0000D3
:103BB0001028A7A4ACB4A4F8A4A7A4ACB42404000F
:103BC00040402F20100804FF0408142867C040005C
:103BD0004020F81702FE02F202FE00F800FF00008B
:103BE00000007F4020130C03043B1027403F0000DF
:103BF0004040FF4141FF404040FF4141FF40400005
:103C000040300F20403F4020180720403F00000078
:103C10000831866000FE02F202FE00F80000FF009C
:103C200004FC03008047300F1067000740807F00CE
:103C30000000FE121252525252525252521E0000B4
:103C400080601F0222322E222222222A72220200A9
:103C500000BE22E23E00F899AACCF8CCBBAAF8003C
:103C6000203F201F111100FE4A4A4A4A4AFE000026
:103C7000080808FF884892925212FE119191900014
:103C80000242817F00007F2424203F2024247F00E3
:103C9000000000021EE20A722282621E0200000080
:103CA0004040202010100906060910102060200056
:103CB0000444444444CF7444445F44444444440072
:103CC000000804FE01444444447F4444444440000A
:103CD00000040484845F249424445F8484040400E6
:103CE000024221100D49817F010509712001010067
:103CF000808848C8A89888FF8898A8A848C848001D
:103D00000040405F525252525252525F4040400077
:103D100004C4BC8484844024948CFF8CB464240048
:103D200002017F10103F40405F5252525F404000FE
:103D30000808FF884804844F2494244F8404040016
:103D400042817F0001211A42827F020A1231010062
:103D5000904CA4549C5435063454D434140C0400B0
:103D6000044422150445857D050D146523060200D3
:103D700000202010189772101012F4081030100054
:103D800000007C222120203E212221207C000000F6
:103D90008088A8A8A9AEEAB8A8ACABAAA888800079
:103DA00040201048464544447C444444444040003C
:103DB000404042CC0410484849CA2A282818080024
:103DC0000000003F100A0202023F42414141390017
:103DD000080888FF482800FE222222E12121200035
:103DE0000141807F40201807000001FF02040C0001
:103DF00040C07C407F2828A8007F88888484E00019
:103E000042422222120A06FF060A121222622200EF
:103E1000044C5226DA21191010109070FF10100077
:103E200012124A89443F0008040241807F000000CA
:103E3000080808FF88087C4BCA7ACE4A78008000C0
:103E40000242817F04040212112469DA0202030093
:103E5000101010FF905050C86C5B48CC5840400088
:103E60000242817F028195544A29241009030100EE
:103E700000F888FF88F800F92A2EF82C2BFA0000A9
:103E80001031101F0A1C08090909FF090909080057
:103E90004030CF08281810FC9794F49C94F0000050
:103EA00000007F2010000404122548DB04040700F2
:103EB0004041CE4410087C4BCA7ACA4E4A78000072
:103EC00000007F201004021114242B420202030080
:103ED0002038A7603000FC04F455F65454F4040074
:103EE00010110949211847484B4A7F4A4A4B400064
:103EF0004030EF242400C44C744546645C444400C4
:103F000001017F2191601F000000000000000000FF
:103F10000004E4444C7454454664544C44644400E6
:103F200040300F0000000000000000000000000012
:103F300000FC0001E2A8B2E2B2AAE20202FE000026
:103F400000FF00080B0A0A7F0A0A0B48807F000066
:103F500004F41475567414F400F21AD61212F20016
:103F600040415F5555555F410047300F10206700B5
:103F70000000007E4A4A4A4A4A4A4A7E000000003F
:103F800000007F2525252525252525257F000000E6
:103F900020118A4CF300007E4A4A4A4A4A7E0000B9
:103FA000024180601F007F252525252525257F00CE
:103FB000101010FF1010024262D24AC642E04000C8
:103FC0000818080704024A2412090641807F0000ED
:103FD000403010929C90909F9098969410381000CA
:103FE000000242E2524A6622222A32E242020200E1
:103FF00020180809EEAAA8AFA8A8EC0B2A180800F8
:1040000000003E02020202FF020212221E00000015
:1040100080808080FFA0A090908884828080800033
:1040200000000000FF402112040810306020000052
:104030004020F8270230929C909F90989634100070
:1040400000007F000022722A2E22222A7222020001
:104050000000FE1212FE004262D24AC642C00000B8
:1040600040300F21413F482412090423603F0000E3
:104070000000FE020202020202020202020202002A
:1040800040300F00000000000000000000000000B1
:1040900000E428B0BFB028E440F01F129070100078
:1040A00000FF000F084F807F4020130C33C04000FA
:1040B00000F848FF48F8024222F22AE62220E000F7
:1040C000000702FF025748241308064180601F00C2
:1040D000FE0202FE0080BEAAAAAAAAAABE80000012
:1040E00007020207007F242424242424247F0000C4
:1040F0004020F80F02007E2A2A2A2A2A2A7E00005F
:1041000000007F00007F25252525252525257F000A
:1041100040484848FF484882C2BE82A2C2BE000052
:10412000601F20407F4242405F484848485F40004F
:10413000080808FF884880403000FF0010A0600099
:104140000242817F0040402020110B040201000048
:104150004030EF24242484601800FE00102060000A
:1041600001017F2151494020201113080402010060
:104170000004F4545F54F40400FE222222FE0000E6
:10418000040405057F050544300F0121413F00006F
:10419000FC0404FC00F4545F54F400FE2222FE00F0
:1041A00007010103000505FF0585601F41817F00B0
:1041B0001021C630F4545F54F400FE2222FE0000A9
:1041C00004FE01080909FF0949201F41817F000001
:1041D0000000F45A515054FA5150545AF100000062
:1041E0000404854525150DFF0D15152545C444000E
:1041F000FE0202FE8040381000FF000890602000A0
:1042000007020287804040202013080403010000B9
:10421000403000FF108C40300000FF0008106000AC
:1042200040300E81824C402020101308040300000F
:10423000000484C4A49C8784F4848484848400005F
:104240000404040404040404FF0404040404040037
:10425000080808FF482808E00000FF404040000030
:104260000242817F0020203F20203F20202020008C
:104270000808FF8864B4ADA6B464981712F0100063
:1042800042817F0000FF0A4AFF40330C1360200088
:104290000004EB2AFF2AAAEA00003C0040FE0000CE
:1042A00000101014151555957F15151514101000D4
:1042B0001088C4334240FE202404FC040404FC00A3
:1042C0000100FF0000000F442218072060201F009B
:1042D0001021C600A4B5AEB4A480F01F10F01000E9
:1042E00004FC0300FF0A4A8A7F4020171CE34000B9
:1042F00008C8FF488008C8FF4888FE02629A060086
:1043000003007F000201007F0000FF0808100F007B
:104310000000FE222222223E22222222E20200006D
:1043200000007F424242427E4242424243404000BD
:104330000000FE4252D252D25252525252424000D9
:1043400040300F00007F2011060814222342400055
:104350004020100C0800007F0000040810702000AE
:10436000404044444444447F444444444444400022
:104370000000C05F55555555555555555F400000D7
:1043800040300F0405FD45250D15354DC54404008D
:10439000403000FF10201808887F8808281808007F
:1043A000000000FF0080601C03003F4040407000A0
:1043B000106106C0300602E22222E202060200007C
:1043C00002027F000040300F00003F404040780074
:1043D00000FE22528E00C4B48CE7848484840400DE
:1043E00000FF020423100C40807F000204183000FC
:1043F000404848FF48484090484423948830100083
:10440000601E203F424250525249494446424000B9
:10441000080809CE2AD8801050901010FF10100004
:10442000040201FF010E0400000341807F00000030
:10443000080808FF88400C057654575476050C0090
:104440000242817F0000101555957F15151510004B
:10445000109272FE911140308F04F48404140C0009
:10446000020100FF0011080643807F0001061800CA
:104470001010FF1010F84848C808FF080AEC480060
:10448000040C0742320F08584F20130C33403800F9
:1044900010D0FF5090462A5A46434C543248800070
:1044A0000300FF0000404755654565554740400003
:1044B0000000F8484848C808FF08090AC8880800EA
:1044C00040300F0008504F20100B0C122140F0001C
:1044D000008080BEA2A2A2A2A2A2A2BE80800000F2
:1044E000404040444444447F4444444444404000A9
:1044F00008282A2AFA0A0AFE0A09F949292C8800FA
:10450000222211110B0C067F02040D19311101003A
:104510001012D2FE911180BFA1A1A1A1BF80000005
:10452000040300FF00414444447F444444444000A9
:10453000484824F30800F20202FE12121212000090
:104540000020380339414145594141710109310089
:10455000106102F0804AB2AEA0A3ACB452888000D1
:10456000047C03404040576444446457404040004A
:104570002021E60208F888888808FF080ACC88000D
:1045800000003F90681F20403F20100F1423780048
:104590000010109272A2A2F2AAAA66A2121800003B
:1045A000100806010444847F04040401061808006E
:1045B0004042CC00005E5252D252525E4000000097
:1045C00040201F20484949494F494949484840002F
:1045D00002FA8282BE80007E4A4A7F4A4A7E0000FA
:1045E00004042242201F010101070525453D010069
:1045F0001012D2FE911100126202FE02423A120023
:10460000040300FF000100010101FF01010101009D
:1046100000FC0404FC20584F4A4848C80808080019
:10462000000F020207003048444241404040700001
:10463000106000FC443CE4242506E42424E4040047
:10464000442299472119070911007F10107F0000AB
:10465000080808FF88682424243F24E42424200038
:104660000242817F000101051949817F010101009A
:104670008080BEAAAAAAAABE8000FE202010000048
:1046800040300E10203F444440404748484F4000CF
:104690001060028C6080F84040FE202010F0000086
:1046A00008087C0300003F40405F404244437000E4
:1046B0004041CE040000FE2222A222227E00000001
:1046C00040201F2028464140404041424C44400089
:1046D00000F212121E2020FC2020FE1010F8100004
:1046E000000141817F00003F40404340444770004B
:1046F0000002FA82FE8040FC2020FF1010F800002B
:1047000008080424403F003F40404F4044477000A9
:1047100002FE929292FE0200F00000FF2020200094
:10472000101F080808FF24203F20203F20202000E1
:104730002020A03C202020FF24242424A42020008A
:1047400000007F4050484641424458407F000000EE
:10475000804030FC0722908C57E222120A060000AB
:10476000000000FF008984824559211109050300DA
:10477000000000FE222222E2222222227E000000ED
:1047800040300C03000000000304081030602000DB
:10479000202024A42424E43F24E424A4242420006E
:1047A00010088443310C0340807F000001060C0098
:1047B00004E4243F24E40A3282FE083282FE000030
:1047C0004021160816212249504F4249504F4000BF
:1047D000000000FE2222222222E1212121202000AD
:1047E000402018070000000101FF02040C00000037
:1047F000807000FF100C00FE8282828282FE000028
:1048000040300E01024C20190E0000020419700005
:10481000000484C4A4B49D968494A4C484040000B9
:1048200000804020180700003F40404140700000D9
:1048300000021CC800F8080808FF080808F8000073
:104840000404FE010003010101FF01010103000056
:104850000000F808080808FF08080808F800000029
:10486000004043414141417F212121297320000023
:1048700000806026A4A4A4ACB7A4A4A4246E200045
:104880000082423A120242827E02020A7222020030
:1048900000504C444444FC4546D46444D44C440049
:1048A0000080402018061110083F4442417100006A
:1048B0000808FF884800F0101010FF101010F000DA
:1048C00022413F0000003F2121213F2121213F00C3
:1048D000F111FF11FF91F121FE2040FE2040FF0069
:1048E0007F25242424247F201F00007F00007F00D8
:1048F000FE42FE42FE042424E43F2424242400003B
:104900000F0487442F110D03051D45857F05050004
:10491000003E22E2223E849494FF94949484840086
:10492000203F201F1151300C031C44847F040400DD
:104930000012D2FE519100FE52527E525242FE00AF
:10494000040300FF8041300F001F09095F807F00D2
:104950001012D232FF31511008907F90080C0000E5
:10496000004130003B40424A514040600933010061
:1049700010081453565AD27A545352565A120200FF
:10498000004121150D070D350545857F05050500FD
:104990004020F00C030808887F0808FC080000008D
:1049A00000007F4020100C030000007F4040780092
:1049B000109854331A00FE52527E525242FE0000AA
:1049C0001111098949300F001F09095F807F00001C
:1049D000FE2222FE2024E4FC22F200FF40201000F0
:1049E0003F11113F040300FF43300E010EF0400061
:1049F000000082828282FE82828282FF02000000A8
:104A000000202020203F20202020203F2030200098
:104A1000000000FEAAAAABAAAAAAAAFE00000000F3
:104A20000484844424140C070C142566C444040034
:104A3000000888C92E9848000808F80808FC0800F3
:104A40000201007F01024420100C0320403F0000BF
:104A50000000FC40404040FF4040404040FC00001F
:104A600000007E202020203F20202020207E0000EB
:104A70008868FF2840FE0ACA4ACA0A4242FA42002F
:104A80000100FF40300F202B121F1041827F0000D9
:104A90000000FE0AEA2A2AEA0AA22222FE222200B4
:104AA00040300F2429311915100027423F00000023
:104AB00000BE22E2223E84A4AFA4F4A4EFB4A4007A
:104AC000203F201F11090804FE4A4B4A4AFE0000FD
:104AD0004030EF242400FC2424FC1010FF10F000D0
:104AE00001017F2111407F21215F300E21403F00D5
:104AF00020504C67544CE418FF4849FE48480800D1
:104B00000022222222223F00FF22223F22222000D6
:104B100010218660FE225A86102CE32428101000F3
:104B200008FC0300FF0224134D817F0105093000BA
:104B3000FE0232CA4620302CE32428102020000038
:104B4000FF02044320114D817F010509113000004F
:104B50000424948CFF8C94A0A494FF8C94242400AF
:104B60000040201C1020207F444444454440400025
:104B70000282F24E42C202FC4040FF4040FC000074
:104B800001007F10103F007E20203F20207E00008B
:104B90004020D82722EC002424A47F24342E240093
:104BA00000007F00207F22117F252525257F000022
:104BB000808282FA8A9AAECB9AAACAFA828280004E
:104BC00082FAAADFAA7A4280FAAACF9AAAFA8000C9
:104BD0000808FF884804A4A4F5AEAC94D48404006B
:104BE00042817F000000FE4A4A7E4A4A4AFE010096
:104BF00020F85752F2525AF600F010FF10F0000061
:104C0000403F02023F42827F4043427F222B70009E
:104C100000C078971210F0000000FF204080800054
:104C20004120100B040B101020205F404041400039
:104C3000101010FF50005E5050D05F5050505E007A
:104C40000242817F0000FE02037E027E0242FE00DD
:104C5000000000FF00000000FE00000000FF000058
:104C60000080601F000000003F000000007F000087
:104C7000000C2414AC24252624E42C14240C040059
:104C80004040202213120A46827F020202020000E4
:104C90001010D0FF509020A86CAB3A2A26A020001C
:104CA000040300FF2025151249847F0619301000E7
:104CB0004020F80742444444F44F444446644000D2
:104CC00000007F000000020B1222520A07020000BF
:104CD0008080FC96A5FC80403E0202027E4040009F
:104CE00080601F42847F00007E222222227E0000FC
:104CF000FC040404FC405E5050D05F50505E400005
:104D0000070202020700FE027F02023E827E0000CE
:104D1000000080BCA4A4A4FFA4A4A4BC8000000044
:104D200000001F08080808FF080808081F00000006
:104D3000102080FC8444A4958E94A444C4848400F0
:104D40008261180700003F4044484740407100001E
:104D5000004C44E4544464D546444C54D4242C00C0
:104D6000000000FF4462554955434140FF000000E8
:104D7000F808FF08F82024ACB4A5A6B4ACA4200021
:104D80000F00FF080F0080AFAAAAFFAAAAAF8000F9
:104D90000000FC44444444C5FE44444444440400EC
:104DA00080601F4020180601FF0102040830100037
:104DB0000000F80106F0909292F2828202FE00005A
:104DC0000000FF0002020202020A104F807F000072
:104DD0004020D04C434448D8301000FC0000FF0075
:104DE00000003F40404244437800000720403F001D
:104DF000FC0404FC4020180F0AF80848281C08008E
:104E00000F020207804020180601061870E04000DB
:104E1000807000FF108860180FE80808281800004C
:104E200040300C83845820180601061860C04000EA
:104E30000808FF88C894F49494FC9292F29290002F
:104E400042817F0008484B48487F48484B4808004B
:104E500000704EC8484894F494FE9292F2929000EA
:104E6000000202FF4222084F487F48484F4808008E
:104E700080909494F49494FE9292F2939290900085
:104E8000000444444744447F4444474444440000AD
:104E90004040445454D4745F5454D4545444400057
:104EA000040402027F4A4A4A4A4A7E01030602007B
:104EB000088868FF284454D4745F54D45444400094
:104EC000020100FF020201FE4A4A4A4AFF020200B2
:104ED000F212FE12FE12F204745556545474040079
:104EE0007F2A292829297F0849897D0B090808007C
:104EF00000FE0222EA2A2A6AAA2AAA6A22000000DE
:104F0000807F00F84F4A4949484949FA06020000A3
:104F1000106186700004745455565454740404008F
:104F200004FC030008080949897D0B0909080800E9
:104F3000002030AC633008C80808FF0808C8080023
:104F4000103213120A0A000704047F848487F000D9
:104F50000022AAAA6AEABAAFAAAAEA2A6AA2A0000A
:104F6000019D947E547FC202829E977E547DC00034
:104F7000110BC5BF80D38DBF2020FF1012941000ED
:104F80000201FF4A4A7F4A4A2010090E3241F000CE
:104F90002030A8673200F050505F5454F4040000F1
:104FA0002223221212080B0A0AFE0A0A0B08080022
:104FB000106080FC04C404FD8684FC8484464400A4
:104FC00082611C43403F201F10003F404040700062
:104FD00004146424C40F847424AF24A4642404003F
:104FE0000404FC03804120100C030C3060C040001E
:104FF00082E25E42C20A08C93E0A088C7A090800A9
:10500000007F10101F322B262A71322B262A7100A6
:10501000E000FE2020FF2028FC4B4AFC4848080006
:105020001F100F08001F0800FF22223F222220002D
:10503000242424FC2222A08494A58684A4948400A1
:10504000007E2223227E00040404FF0404040400E2
:1050500000044464DD4624044466DD640404040062
:1050600000203A033A434248524342630A30000068
:10507000002122F608148847221E222242C6400040
:10508000010101E19F454D3505057D818181E100EB
:1050900040414EC4000012929292921202FE000011
:1050A0000000007F2010001F08081F20403F000064
:1050B0000000F00000FF202000FF40202010100022
:1050C00020203F10100F0808003F4040404078006B
:1050D00000E42424FF2424E40000FC000000FF007E
:1050E00020130C02FF02040B30000F0020403F0091
:1050F000FE02FA02FE0000FEAAAAAAAABE800000D2
:1051000043300F106302114824130847807F0000CA
:1051100000021CC0304C300F08F80808281808009E
:10512000025E4320201008040301060830602000BE
:1051300002FE9292FE0200F29C94909896F4000077
:10514000101F0808FF0438003C4042447004180057
:105150000084443C94DF7494947F1414F404040099
:105160000040350534424649584142740B702000D6
:1051700000FC048466BDA42424E4240404FC000090
:1051800000FF4140484844434344584040FF00002A
:10519000804020182F4AC8B80888780808FC080002
:1051A000004848442221100807030E44807F000075
:1051B00000000000FF000000807F80000000000071
:1051C000402018078041361807000106187020009B
:1051D00000000000FE00000000FE80000000000053
:1051E00020302C232021362C23202023263C28006D
:1051F0000002DC484454D47C575454D454444000F6
:1052000002FE0582864525150F152564C546040056
:105210002438E0FFB02C00FE22222222FE000000F3
:10522000080700FF0043407F424242427F40400067
:10523000F212FE12FE12F242487F48487F484000B8
:105240007F25242425257F00FF49494949FF000087
:10525000484453E2464A8240B423262A22222200AE
:1052600080601C43817F008645350F1565C544006D
:105270002010FC0702007E2222E222227E00000093
:1052800000007F4020100F10203F42424342400068
:1052900000BE22E23E002CD44C45F64C54EC0400F7
:1052A000203F201F11111C151515FF1515151C0089
:1052B000080403FAAEAAAAACABAAAEFA0202020034
:1052C0004848282B5A6A5E4A4A5A6ADB28682800EE
:1052D000000C24E4544C45F644444CD424040C0003
:1052E00000001C15151515FF151515151C000000DF
:1052F0001010FF905080CE784858EF4848484E0034
:1053000042817F000100FF4A4A4A7F4A4A4A4000E0
:10531000000080CE78484858EF484848484E400042
:10532000020100FF252525253F25252525252000CF
:105330004020F807824EF848485FE848486E400031
:105340000000FF000000FF2525253F252535200012
:1053500000FF1111FF2010E827A4A4A4B4AC200082
:10536000C03F41817F80601F007F404448477000FC
:10537000083080FC2424E42D3624E4243424040062
:1053800082611C030A090809FE0A09090A080800C3
:105390002438A0FFB02CA4443C4586443C448400FF
:1053A000080601FF000504040404FF0404040500CA
:1053B000106106E0904434448586443444840400FB
:1053C0000404FF000404040404FF040404040400AF
:1053D0000041635549C15F506153CD415F400000BA
:1053E0000008080C0A090AFC080A090A0C08080047
:1053F0001010D0FF50900090101010FF10101000EF
:10540000040300FF000100000340807F0000000053
:10541000000404C4641C27252424A464240400007C
:10542000040201FF0002020242827F020202020025
:10543000101010509010101010FF101010181000C5
:105440000000000001070040807F00000000000015
:1054500002C2BE8282022425E63C242426250400C2
:1054600002017F503F51494745457D454565410013
:105470001010FF901040C05F55D55555555F400046
:1054800042817F0020201F1515FF21171967210079
:10549000080808FF884880A9AEE8B8ACABA8880027
:1054A0000242817F0048444645447C4444444000D5
:1054B000080808FF4840487E4848487E4848400061
:1054C0000242817F0000FF4949494949FF0000002D
:1054D0001010FF9050807C4880FF00C07C88000046
:1054E00042817F0041444444457F45444444410057
:1054F00040302CE7242440487F48487F48484000FB
:10550000010101FF412100FF4949494949FF0000CC
:105510000808FF884804049F4434449F040404009E
:1055200041817F000202FD4545454544FD010100E2
:105530008082840C10101010FE101010101000004B
:1055400040201F2050484443404142445C482000D2
:1055500000108C83465A221A142342469A828200F3
:1055600001010000FD454545454545FD00010000A0
:10557000083080FE1212BE533252BE1212120200C6
:1055800042211C0302F94A4A4A4A4AF9030202002C
:10559000101010FF905014040404FC0404040400D0
:1055A0000242817F0000000040807F000000000078
:1055B000202020202020A07FA020202020202000AC
:1055C00000804020100C03000106083060C040003D
:1055D0000000007E222222E22222227E00800000A1
:1055E00020211111090503FF030509113161210073
:1055F00000020202C2B21E121212129272120200B3
:10560000404242212010110B08040201000000005A
:105610004020F807425454D47F54D454544440009A
:1056200000007F0404222314487F0815310602007D
:1056300008EAAAAAEFAAAAEA0808FF0ACC88080082
:1056400020ABAA7E2B2A7EAB2820110E3340F0001F
:10565000806424243F2424FF2424243FA4642400C1
:105660000000003F010101FF0111211F00000000A7
:1056700000C2B21E12D23240605847405060C00093
:105680004120100D030000FE4242424242FE000053
:10569000804030EF2220203FD0101214181000005C
:1056A0000000007F00000000010608102078400084
:1056B000001008FC838A8888878C95A644443000B3
:1056C0000000009F4020100E102020DF400000004E
:1056D000201008FC030A48880F182445866404003B
:1056E00020211111F94523010709192765C141003E
:1056F000201008C73A504444447F44C44444400006
:10570000000201FF0002021A0242827F020202002E
:105710004042CC001010545454FF54547C101000DC
:1057200040201F2040484956625F4245485840008B
:1057300000000008EC2A292828282AEC180000007C
:10574000002038003D414145594141710418300065
:1057500002FE121212FE22180808FF08082818007C
:10576000101F110909FF84601807003F40407000B6
:10577000080808FF482800FE22222222FE0000001E
:105780000242817F00202023222222222320200087
:1057900080808080FE828A92F2A282FE80808000D9
:1057A0000040300C030000000020403F00000000DB
:1057B0000000F828292E2AF8282C2B2AF8000000AF
:1057C00008080B09090909FF090909090B0808005C
:1057D00000FC2526FC2625FC0000FE22528A06003D
:1057E000040505057F0505050400FF0008100F00EE
:1057F000080888FF4828F92A2CF82C2A2BF80000E2
:105800000141807F0008090909FF09090909080009
:1058100000FE1212FE0000FE22222222FE000000E4
:10582000807F0181FF00404744444444474040009A
:10583000000000FE22222222222222FE000000007E
:10584000404040474444444444444447404040006E
:10585000002824AB2A2AEA2AAAAA2AEA0A02000075
:105860008080844C55221D314A84800F3040F000E6
:105870004020F8270200FE2222222222FE00000001
:1058800000007F0020202F22222222222720200019
:10589000407000FF0810F92E2828F82C2BF8000083
:1058A000000000FF000405050505FF0505050400CF
:1058B0001061867000908C40BF101028448000005A
:1058C00004FC038088462018070C122260C04000A8
:1058D0002021EE0442724EC000E404FC424240002B
:1058E00000003F502A14081720474447444444000E
:1058F00002F212121E00F92A2CF8282C2BFA0000B2
:10590000014381413F080B0909FF0909090B080000
:105910000082423A428282FE929292929682800065
:105920000180809E9292927F5252525E60C04000EF
:10593000000040425C4840407F40504E44C0000060
:10594000000020222222222222222222227F000064
:10595000101010FF9050144870407F60504CC400ED
:105960000242817F000000222222222222223F00C6
:105970000020180ACC48484F4848CC0A281808008C
:1059800000808040330E0202023E43404078000017
:1059900040828A32D207129292D7B2929282020049
:1059A0000809F8062110884423184780403F00006A
:1059B0001010D0FF5090544870407E60504CC00092
:1059C000040300FF000120222222222222227F0043
:1059D000000002020202FE0202020202FE000000B9
:1059E000004020100C030000202060201F00000059
:1059F000101010FF905000FC041625847C0000005D
:105A00000242817F001C10111F11111D41817F0076
:105A1000007E22E2227E0092A24A3201A19D8800ED
:105A2000203F201F1111007F2424202424247F00E4
:105A30004020F8176252CE42E24200F000FF000020
:105A40000000FF0042427F222222004F807F0000A0
:105A5000000000FC041665240444847C000000005F
:105A600000382021213F212121394181413F00007F
:105A70000808896E58445454D47F5454D454400078
:105A80000201FF412210080603065A827F0202002B
:105A90000000003E4A4A4A4A4A4ACA4E4070000044
:105AA00002020202063A120242827F02020202004F
:105AB0000022722A26E22A722200F80000FF00006B
:105AC0000042C242223F221212000F40807F00009B
:105AD0001012D2FE911108B2824A3281A1910C00BB
