:020000040000FA
:10000000501F0820D1010000D9010000DB010000D1
:10001000DD010000DF010000E10100000000000040
:10002000000000000000000000000000E3010000EC
:10003000E5010000000000007F0200004F6F00009B
:10004000EB01000061860000798700006B880000EA
:1000500043FA0100F97C0000897F0000AD810000B7
:1000600073840000EB010000EB010000798C0000BC
:10007000EB010000EB010000EB010000EB010000D0
:10008000EB01000071FC0000EB010000EB0100003F
:10009000EB010000EB010000EB010000EB010000B0
:1000A000EB010000EB010000EB010000EB010000A0
:1000B000EB010000EB010000EB010000EB01000090
:1000C000EB010000EB010000EB01000000F002F882
:1000D00000F06FF80AA090E8000C82448344AAF173
:1000E0000107DA4501D100F064F8AFF2090EBAE871
:1000F0000F0013F0010F18BFFB1A43F0010318475C
:10010000BCA50200FCA5020010F8013B0A4413F054
:10011000030408BF10F8014B1D1108BF10F8015B64
:10012000641E05D010F8016B641E01F8016BF9D153
:10013000002D15D010F8014B03F00C030C2BA1EB94
:1001400004040ABF10F8013BA4EB8314A4EB0324BE
:1001500005F1010314F8016B5B1E01F8016BF9D581
:10016000914238BF10F8013BD1D3704700230024DF
:1001700000250026103A28BF78C1FBD8520728BFB7
:1001800030C148BF0B607047662900F0B580002081
:1001900070471FB59DE8030020F0ACF820F012FB7B
:1001A00004000020002121F0BBFAE0601FBD10B563
:1001B00010BD20F040FC1146FFF7EBFF07F077FB86
:1001C00020F05EFC03B4FFF7F2FF03BC1DF07DFCE2
:1001D0000948804709480047FEE7FEE7FEE7FEE7DB
:1001E000FEE7FEE7FEE7FEE7FEE7FEE70448054917
:1001F000054A064B7047000039040000CD0000009E
:1002000050EF0720501F082050FF072050FF072005
:1002100072B6704762B67047EFF3108072B67047DF
:1002200080F310887047B0FA80F0704790FAA0F021
:10023000704730BF704720BF70470000EFF3108059
:1002400072B6704780F3108870471D484FF0FF0169
:100250000170002080F309881A48012101701A48B2
:100260004FF08051016062B6FEE717484FF08051B1
:100270000160704714484FF080510160704772B6BA
:10028000EFF3098028B1203880E8F00F0F490968A2
:10029000086000B50E4880475DF804EB0D480E4934
:1002A0000A78027009480D490A680260106890E8EF
:1002B000F00F203080F309884EF0040E62B67047CC
:1002C00022ED00E02600001004ED00E02C000010FC
:1002D000196F00001B0000101C00001034000010FB
:1002E00070477047704770477047704700487047C5
:1002F000F85E00107047704720F013B9FFFFFFFF52
:100300007D480068C0F30160032864D17B48006821
:1003100010F0030006D0012823D002283FD0032884
:1003200058D100E000BF74480068C0F30E0000F12F
:1003300001004FEA4000724900FB01F07149D1F819
:100340008810C1F3074101F10101B0FBF1F16E48E2
:100350000068C0B200F10100B1FBF0F06B49086029
:1003600038E065480068C0F30E0000F101004FEA74
:100370004000674900FB01F06249D1F88810C1F3E1
:10038000074101F10101B0FBF1F15F480068C0B223
:1003900000F10100B1FBF0F05C4908601AE056483A
:1003A0000068C0F30E0000F101004FEA004155481B
:1003B000D0F88800C0F3074000F10100B1FBF0F174
:1003C00051480068C0B200F10100B1FBF0F04F49A4
:1003D000086000BF2FE04948006810F0030006D015
:1003E000012810D0022819D0032823D100E000BF33
:1003F00045480068C0B200F101004149B1FBF0F08E
:100400004249086016E040480068C0B200F10100AF
:100410003F49B1FBF0F03D4908600BE03A48006805
:10042000C0B200F101004FF40041B1FBF0F03749D8
:10043000086000BF00BF704700203649086031489F
:10044000D0F8A00110F0200F05D000BF314800689F
:1004500010F0400FFAD003202B4908604FF0000045
:100460002849C1F8A8012C490860244908604FF0C8
:1004700023002A4908604FF0AA00294908604FF07C
:10048000550008604FF00100264908604FF0AA00AF
:10049000234908604FF055001A49C1F88C0000BF8D
:1004A0001548006810F0806FFAD003201D490860DD
:1004B0004FF0AA001349C1F88C004FF055001849BD
:1004C000086000BF0C48006810F0407FFAD002209E
:1004D0001549086015480B49C1F8C4004FF00000E9
:1004E0001349086043F23A00064908604FF00000E3
:1004F000104908607047000088C00F400CC10F40D1
:1005000000093D0000C00F4004C10F4000C007209B
:10051000001BB700A0C10F40ACC10F4084C00F400A
:100520008CC00F4080C00F4008C10F40DE87E80735
:10053000C8C10F4008ED00E010B50A46202801D2DE
:10054000034601E0A0F120031946202814D2464BAF
:100550001B684FF0030404FA01F423EA0403434C3C
:10056000C4F8A831404B1B6802FA01F443EA0403C3
:100570003E4CC4F8A83113E03D4B1B684FF0030418
:1005800004FA01F423EA0403384CC4F8AC31384BC4
:100590001B6802FA01F443EA0403344CC4F8AC319A
:1005A00010BD0146202903D20A462F4B186803E0EC
:1005B000A1F120022E4B186820FA02F303F0030089
:1005C000704770B506462B4804683046FFF7E9FFD0
:1005D000054635B1012D06D0022D06D0032D08D1D8
:1005E00005E0042505E0012503E0022501E00825DA
:1005F00000BF00BFB4FBF5F4204670BD01290AD14D
:100600001D4A12681D4B00EA030342EA0302174B1E
:10061000C3F8C4200AE049B9174A1268174B23EA05
:10062000000302EA0302114BC3F8C4207047002004
:100630001349086030BF7047042012490860082041
:100640000F49086030BF704704200E490860092038
:100650000B49086030BF704704200A490860032036
:100660000749086030BF7047A8C10F4000C00F4065
:10067000ACC10F4000C00720C4C00F40DEF7EFEF51
:10068000C0C00F4010ED00E001460020052912D245
:10069000DFE801F00305080B0E00F7480CE0F64810
:1006A000203009E0F448403006E0F348603003E0D1
:1006B000F148803000E000BF00BF704701460020D5
:1006C000052912D2DFE801F00305080B0E00EA4805
:1006D0000CE0E948203009E0E748403006E0E64811
:1006E000603003E0E448803000E000BF00BF7047A6
:1006F00001460020052912D2DFE801F00305080BAE
:100700000E00DD480CE0DC48203009E0DA484030DB
:1007100006E0D948603003E0D748803000E000BFF1
:1007200000BF70472DE9F04107460D461646384692
:10073000FFF7AAFF04463CB11EB1206828432060A1
:1007400002E02068A8432060BDE8F08170B506464D
:100750000C463046FFF798FF054605B1AC6170BD09
:1007600070B506460C463046FFF78EFF054605B1CC
:10077000EC6170BD70B505462846FFF785FF04465D
:100780000CB1606970BD0020FCE718B912B9BB4B11
:10079000196014E0022803D112B9B94B19600EE0B8
:1007A00020B9012A02D1B74B196008E0022804D110
:1007B000012A02D1B44B196001E000BFFEE7704787
:1007C00003463BB932B9B148006820FA01F000F0A5
:1007D00001007047022B07D132B9AD48006820FAFA
:1007E00001F000F00100F4E743B9012A06D1A9485D
:1007F000006820FA01F000F00100EAE7022B08D1BE
:10080000012A06D1A448006820FA01F000F0010096
:10081000DFE700BFFEE710B9A04A116006E002283A
:1008200002D19F4A116001E000BFFEE7704770B53A
:1008300004460D461646324629462046FFF772FF0B
:1008400070BD70B504460D4629462046FFF77EFF71
:1008500070BD70B504460D4629462046FFF780FF5F
:1008600070BD10B504462046FFF784FF10BD70B57B
:1008700004460D461646324629462046FFF785FFB8
:1008800070BD70B504460D461646324629462046D0
:10089000FFF796FF70BD10B503460C46214618467B
:1008A000FFF7B9FF10BD2DE9F04107460D4616468A
:1008B0003846FFF7E9FE04463CB11EB120692843E3
:1008C000206102E02069A8432061BDE8F0812DE9A4
:1008D000F04180460E4615461F464046FFF7EEFEA5
:1008E00004468CB147B11EB16088284360800BE09C
:1008F00020882843208007E01EB16088A8436080DC
:1009000002E02088A8432080BDE8F0812DE9F04175
:1009100080460E4615461F464046FFF7CFFE04466A
:100920008CB147B11EB1608A284360820BE0208AF7
:100930002843208207E01EB1608AA843608202E05B
:10094000208AA8432082BDE8F0812DE9F0410746C6
:100950000E4614463846FFF7B1FE05461DB10EB1EE
:100960006C8300E02C83BDE8F0812DE9F04107465F
:100970000E4614463846FFF7A1FE05461DB10EB1DE
:10098000EC8300E0AC83BDE8F08170B506460D460F
:100990003046FFF793FE044624B10DB1E08A70BDE6
:1009A000A08AFCE70020FAE72DE9F04180460C46DA
:1009B00016461F464046FFF79BFE05467DB13FB1F8
:1009C000002C0CDB032C0ADC285D3043285506E0A4
:1009D000002C04DB032C02DC285DB0432855BDE865
:1009E000F0812DE9F04180460C4616461F464046F0
:1009F000FFF77EFE0546BDB15FB1002C14DB032C72
:100A000012DC05F11000005D304305F110010855BE
:100A10000AE0002C08DB032C06DC05F11000005D69
:100A2000B04305F110010855BDE8F0812DE9F04112
:100A300007460C4615463846FFF75AFE064636B1BD
:100A4000002C04DB032C02DC06F118000555BDE880
:100A5000F0812DE9F04107460C4615463846FFF770
:100A600047FE064636B1002C04DB032C02DC06F1FF
:100A70001C000555BDE8F08100C0092090800240AF
:100A8000B080024094800240B480024084800240E2
:100A9000A480024088800240A88002408C800240EE
:100AA000AC80024070B506460C463046FFF720FE8B
:100AB00005463DB1002C05DB032C03DC05F11400D9
:100AC000005D70BD0020FCE70146F848814201D17D
:100AD00000207047F648814201D10120F9E7F5482E
:100AE000814201D10220F4E74FF0FF30F1E70146E7
:100AF000082088612020086000BF086810F0080FF7
:100B0000FBD020208861486800F0F8007047016839
:100B100011F0200F01D020218161102101600821F6
:100B2000816170470246106810F0200F01D020202C
:100B30009061C8B290600820906100BF106810F00A
:100B4000080FFBD0506800F0F80070470346012AF8
:100B500002D10420186001E0042098610820986107
:100B600000BF186810F0080FFBD09868087058682C
:100B700000F0F800704770B504460E46CB4884423A
:100B800005D0CB48844202D0CA48844200D103E059
:100B9000D821C9A006F0C7FFC448844205D10E2061
:100BA000FFF70FFDB0FBF6F510E0C148844205D118
:100BB0002620FFF706FDB0FBF6F507E0BD488442AE
:100BC00004D13420FFF7FDFCB0FBF6F56808206186
:100BD0002069281A606170BD70B504460D46B3489F
:100BE000844205D0B248844202D0B248844200D147
:100BF00004E04FF48071B0A006F095FFAB4884424A
:100C000008D101218020FFF7F9FC02210E20FFF717
:100C100093FC18E0A648844208D10121C804FFF7DC
:100C2000EDFC02212620FFF787FC0CE0A14884425E
:100C300008D101218806FFF7E1FC02213420FFF7EB
:100C40007BFC00E070BD29462046FFF794FF64203E
:100C5000A06100BFF6E710B504469448844205D071
:100C60009348844202D09348844200D104E04FF478
:100C7000987191A006F057FF4020A0618B488442F4
:100C800004D100218020FFF7B9FC10E0884884429D
:100C900005D100214FF40020FFF7B0FC07E08548A4
:100CA000844204D100214FF08060FFF7A7FC10BD03
:100CB00070B504460D460DB1012D00D104E040F29F
:100CC00051117DA006F02FFF7848844205D0784866
:100CD000844202D07748844200D104E04FF4A971E5
:100CE00075A006F020FF012D02D14020206001E018
:100CF0004020A06170BD70B504460D46A5B16B489B
:100D0000844203D10A2000F07AFC21E06848844242
:100D100003D10B2000F073FC1AE06648844217D11F
:100D20000C2000F06CFC13E06048844203D10A20E0
:100D300000F071FC0CE05E48844203D10B2000F00F
:100D40006AFC05E05B48844202D10C2000F063FCA1
:100D500070BD2DE9F04105462846FFF7B5FE064671
:100D60005D4850F83640686800F0F8076762F82F71
:100D700003D10820A861BDE8F081574800EBC60008
:100D80004068002857D1202F48D006DC082F0BD010
:100D9000102F0AD0182F4CD115E0282F14D0302F47
:100DA0003DD0382F45D13FE000BF2020A8616068CA
:100DB00038B1A06828B120684000A8600820A86168
:100DC00000E012E036E000BFD4E9021088420BD206
:100DD000606848B1E1686068405CA860E068401CF9
:100DE000E0600820A86118E000BF01203A4901EB4B
:100DF000C6014860606958B1206948B1A06830B147
:100E0000606820B1202028600C20A86105E031E056
:100E1000606A40F480606062A8E00BE000BF606A36
:100E200040F40070606292E0606A40F4807060623A
:100E300000BF8CE0A7E0284800EBC600406801280E
:100E4000F8D1402F24D006DC082F0BD0102F0AD069
:100E5000382F7BD175E0482F6ED0502F3ED0582FC1
:100E600074D155E000BF2020A861206950B16069AD
:100E700040B100BF0121206801EB4000A8600820BC
:100E8000A86104E0606A40F4806060626EE079E02E
:100E9000D4E90501401E814202D20420286001E00D
:100EA0000420A8610820A8616CE0000000C0014097
:100EB00000C0054000000A40447269766572735CA8
:100EC000736F757263655C6C7063313778785F69D6
:100ED00032632E63000000000CE10720206950B14E
:100EE000D4E90510884206D2A868A269216988540D
:100EF000A069401CA061D4E90501401E814202D2D4
:100F00000420286001E00420A8610820A86139E0DD
:100F1000206950B1D4E90510884206D2A868A269B8
:100F200021698854A069401CA061606A40F4806017
:100F300060621BE00AE0FFE7606A40F400706062F4
:100F400005E0606A40F48070606200BF00BFD4E9D1
:100F50000710884209D20020E060202028600C2081
:100F6000A861206A401C20620BE000BF00212846D7
:100F7000FFF7C1FE2846FFF7CAFD0120FE4941F8F0
:100F8000260000BF00BF00BFF5E62DE9F041044692
:100F90002046FFF799FD8046F84850F838506068C1
:100FA00000F0F806AE61F82E03D10820A061BDE87C
:100FB000F08116F0070F68D1F0100C38142864D2B5
:100FC000DFE800F00F631063152816292C476348EB
:100FD0005A6363636363630A042020600820A0618E
:100FE0005FE000BF042020600820A06159E000BF3E
:100FF000D5E90410884208D2E86830B1A0686A696F
:10100000E96888546869401C6861042020600820F1
:10101000A06146E000BF0820A06142E00021204618
:10102000FFF769FE0820A06147030FE0206810F079
:10103000080F04D001212046FFF75DFE07E07F1E68
:1010400027B9A86940F48060A8611FE0EEE700BFFF
:1010500027E000BFD5E90110884208D2286830B1E6
:10106000A9682868405CA060A868401CA8600420AB
:1010700020600820A06114E0042020600820A06106
:10108000A86940F48060A86100E000BF002120460C
:10109000FFF731FE2C20A0610120B94941F828005A
:1010A00000BF00BF00BF82E72DE9F84306460C46AB
:1010B0001746D4F80480D4F810900020E060A061B6
:1010C0006062002F7ED1206200BFD4F80480D4F883
:1010D00010900020E060A06100253046FFF707FD7A
:1010E0000546082D0BD0102D09D0206A401C206227
:1010F000D4E90710884201D96562ABE0E5E7A06852
:10110000A0B3606890B320784006010E3046FFF728
:1011100009FD0546182D0BD0206A401C2062D4E939
:101120000710884203D945F40070606292E0CCE772
:1011300018E098F800103046FFF7F4FC0546282D1B
:101140000BD0206A401C2062D4E90710884203D9E2
:1011500045F4007060627DE0B7E708F10108E068DF
:10116000401CE060D4E902108842E2D3A068B8B124
:101170006068A8B1606998B1206988B13046FFF70E
:10118000B6FC0546082D0BD0102D09D0206A401C56
:101190002062D4E90710884201D965625AE094E7D9
:1011A0006069002850D0206900284DD020780122A5
:1011B00002EB4000C1B23046FFF7B4FC0546402DBB
:1011C0000DD000E04BE0206A401C2062D4E90710FB
:1011D000884203D945F4007060623BE075E72FE078
:1011E000D4E90501401E814211D2012269463046F0
:1011F000FFF7ACFC0546502D1BD0206A401C206236
:10120000D4E90710884201D9656223E05DE7002236
:1012100069463046FFF79AFC0546582D09D0206AEA
:10122000401C2062D4E90710884201D9656211E0B0
:101230004BE79DF8000009F8010BA069401CA06174
:10124000D4E905108842CBD33046FFF760FC01207B
:10125000BDE8F8833046FFF75AFC0020F8E7012F7D
:101260001AD13046FFF730FCC0B2009043489DF8D9
:10127000001040F83140002040499DF8002001EB6B
:10128000C20148600820B061202030600121304652
:10129000FFF731FD0120DBE70020D9E72DE9F84F0A
:1012A00004460D461646D5F80090D5F80CA000204F
:1012B000A8606861A861002E5DD10420206028200C
:1012C000A06100200090834672E0206810F0080FB3
:1012D00065D000200090606800F0F80717F0070F55
:1012E00059D1F8100C38142855D2DFE800F00F540B
:1012F0001054152716282B3254334B54545454543D
:10130000540A042020600820A06147E000BF0420A8
:1013100020600820A06141E000BFD5E904108842A8
:1013200007D2E86828B1A0680AF8010B6869401C78
:101330006861042020600820A0612FE000BF082021
:10134000A0612BE00820A061012000904FF0000B6D
:1013500024E000BFD5E90110884207D2286828B1EF
:1013600019F8010BA060A868401CA8600420206048
:101370000820A06112E029E024E107200CE1072009
:1013800030E10720042020600820A06101200090A7
:101390004FF0000B02E00820A06112E008E0009886
:1013A00030B158460BF1010BB0F5803F00D900E099
:1013B0008BE70420A06147F48060A8610120BDE8AC
:1013C000F88F0420A061AF610020F8E7012E15D14D
:1013D0002046FFF779FB8046934840F838500120BB
:1013E000914901EBC8014860042020602820A061D9
:1013F00001212046FFF77FFC0120E0E70020DEE727
:1014000070B504460D468948844205D08848844218
:1014100002D08848844200D105E040F29941AFF201
:10142000685006F080FB2878002803DB2878032822
:1014300000DC05E040F29A41AFF2845006F073FB05
:10144000A87810B1A878012800D105E040F29B41AE
:10145000AFF29C5006F067FBA878012800D100E0AD
:101460000020697840EA4100C6B2287830B10128EE
:101470000AD002280ED0032818D111E0E660E878DF
:1014800000F0FE00206311E02662E87800F0FE0024
:1014900060630BE06662E87800F0FE00A06305E0A0
:1014A000A662E87800F0FE00E06300BF00BF70BDF8
:1014B00070B504460D4616465C48844205D05C482B
:1014C000844202D05B48844200D105E040F2CD4125
:1014D000AFF21C6006F027FB022D00D000BF00BF5A
:1014E0000EB1012E00D105E040F2CF41AFF23860DD
:1014F00006F019FB012E03D1E0692843E06104E006
:10150000E0690721A9430840E06170BD70B5044659
:101510000D464648844205D04548844202D045489D
:10152000844200D105E040F2E941AFF2746006F078
:10153000FAFA0DB1012D00D105E040F2EA41AFF217
:10154000886006F0F0FA012D08D1E06940F0010052
:10155000E061042020602820A06105E0E06900F03F
:101560000600E0612C20A06100203349086070BDB6
:1015700010B504462D48844205D02D48844202D03F
:101580002C48844200D105E040F20C51AFF2D86003
:1015900006F0C9FAE06AC0B210BD30B503460020BB
:1015A00008249C61DC6A244D2D684C55224C24682B
:1015B000641C214D2C602C462468944200D30120E9
:1015C00030BD70B505462846FFF77EFA04461B4835
:1015D00050F824600020194941F82400304670BDBD
:1015E00070B505462846FFF76FFA0446144850F8D0
:1015F00024600020124941F82400304670BD00F0FC
:101600001F020121914042094FF0E02303EB8202C7
:10161000C2F80011704700F01F0201219140094AF1
:10162000430942F8231070470CE1072000C0014035
:1016300000C0054000000A4004C0072024E1072044
:1016400030E1072080E100E0F0B504460B46154686
:10165000194660003B4A102901D31039401C52F84A
:1016600020604FEA410C032707FA0CF7BE4342F80B
:10167000206052F820604F0005FA07F73E4342F819
:101680002060F0BDF0B504460B46154619466000D3
:101690002C4A4032102901D31039401C52F82060E6
:1016A0004FEA410C032707FA0CF7BE4342F82060CB
:1016B00052F820604F0005FA07F73E4342F82060D9
:1016C000F0BD30B50B461F496831012A07D151F8EA
:1016D000204001259D402C4341F8204006E051F870
:1016E000204001259D40AC4341F8204030BD0128F9
:1016F00006D11449896A41F00801124A916206E054
:1017000028B91049896A21F008010E4A9162704790
:10171000012800D1052201B90A220A4BDA67704775
:1017200010B50446A27861782078FFF78DFFE27843
:1017300061782078FFF7A6FF227961782078FFF79B
:10174000C0FF10BD00C0024010B50446F8488442F6
:1017500000D103E03821F7A006F0E5F901214802A5
:10176000FEF74CFF0020207020722073FF202074B1
:101770000020206410BD10B50446ED48844200D11D
:1017800003E04E21EBA006F0CEF9002020720021EC
:101790004FF40070FEF732FF10BD10B50446E44868
:1017A000844200D103E05C21E2A006F0BCF9207A7B
:1017B00040F002002072207A00F01100207210BD6B
:1017C00070B504460D46DA48844200D103E06C212E
:1017D000D8A006F0A8F90DB1012D00D103E06D21CC
:1017E000D4A006F0A0F9012D04D1207A40F0010028
:1017F000207203E0207A00F01200207270BD70B5F4
:1018000004460D461646CA48844200D103E093219F
:10181000C8A006F088F90EB1012E00D103E0942192
:10182000C4A006F080F96DB1012D0BD0022D09D0B6
:10183000032D07D0042D05D0052D03D0062D01D092
:10184000072D00D103E09521BAA006F06CF9012E16
:1018500030D1082D2DD2DFE805F004090E13181D34
:101860002227207B40F00100207322E0207B40F003
:10187000020020731DE0207B40F00400207318E07C
:10188000207B40F01000207313E0207B40F0080024
:1018900020730EE0207B40F02000207309E0207BC5
:1018A00040F04000207304E0207B40F08000207373
:1018B00000BF30E0082D2DD2DFE805F004090E133B
:1018C000181D2227207B00F0FE00207322E0207BE1
:1018D00000F0FD0020731DE0207B00F0FB00207372
:1018E00018E0207B00F0EF00207313E0207B00F075
:1018F000F70020730EE0207B00F0DF00207309E08A
:10190000207B00F0BF00207304E0207B00F07F000C
:10191000207300BF00BF70BD70B504460D4616466B
:101920008348844200D103E0EF2182A006F0FBF857
:101930000EB1012E00D103E0F0217EA006F0F3F8F5
:101940006DB1012D0BD0022D09D0032D07D0042D30
:1019500005D0052D03D0062D01D0072D00D103E0C1
:10196000F12174A006F0DFF8012E30D1082D2DD220
:10197000DFE805F004090E13181D2227207C00F073
:10198000FE00207422E0207C00F0FD0020741DE0A9
:10199000207C00F0FB00207418E0207C00F0EF00B9
:1019A000207413E0207C00F0F70020740EE0207C0F
:1019B00000F0DF00207409E0207C00F0BF002074FC
:1019C00004E0207C00F07F00207400BF30E0082D90
:1019D0002DD2DFE805F004090E13181D2227207C04
:1019E00040F00100207422E0207C40F002002074CE
:1019F0001DE0207C40F00400207418E0207C40F0C2
:101A00001000207413E0207C40F0080020740EE0E9
:101A1000207C40F02000207409E0207C40F0400051
:101A2000207404E0207C40F08000207400BF00BFE0
:101A300070BD70B506460D4614463D48864200D13D
:101A400004E040F243113BA006F06DF86DB1012DAA
:101A50000BD0022D09D0032D07D0042D05D0052D64
:101A600003D0062D01D0072D00D104E04FF4A27160
:101A700030A006F058F8082D11D2DFE805F0041167
:101A80001E2B384654763B2C00D804E040F2491116
:101A900028A006F048F804F03F0086F8200072E025
:101AA0003B2C00D804E040F24F1122A006F03BF896
:101AB00004F03F0086F8240065E0172C00D804E00D
:101AC00040F255111BA006F02EF804F01F0086F816
:101AD000280058E0062C00D804E040F25B1115A065
:101AE00006F021F804F0070086F830004BE01F2CC8
:101AF00001D804B104E040F261110EA006F013F821
:101B000004F01F0086F82C003DE01CB1B4F5B77F4F
:101B100000D804E04FF4B47106A006F004F8C4F352
:101B20000800B0862FE0ACB10C2C13D818E00000F0
:101B300000400240447269766572735C736F75721F
:101B400063655C6C7063313778785F7274632E63A1
:101B50000000000040F26F11AFF2280005F0E3FF33
:101B600004F00F0086F838000DE0B4F5805F00D275
:101B700005E04FF4BB71AFF2440005F0D4FFC4F3AD
:101B80000B00B08700BF00BF70BD70B505460C46A6
:101B9000FC48854200D105E040F28D11AFF26C00A7
:101BA00005F0C1FF6CB1012C0BD0022C09D0032C25
:101BB00007D0042C05D0052C03D0062C01D0072C0F
:101BC00000D105E04FF4C771AFF2980005F0ABFF0C
:101BD000082C2BD2DFE804F004090E13181D21266F
:101BE00095F8200000F03F0070BD95F8240000F04B
:101BF0003F00F9E795F8280000F01F00F4E795F89A
:101C0000300000F00700EFE795F82C0000F01F000F
:101C1000EAE7A88EC0F30800E6E795F8380000F080
:101C20000F00E1E7A88FC0F30B00DDE70020DBE742
:101C300070B504460D46D348844200D105E040F219
:101C4000B111AFF2101005F06EFF287B00F01F00FD
:101C500004F120042073287C00F007002074A88A77
:101C6000C0F30800A082287A00F01F0020722879B3
:101C700000F03F002071287800F03F002070287E9F
:101C800000F00F002076A88BC0F30B00A083A4F116
:101C9000200470BD70B504460D46BA48844200D198
:101CA00005E040F2C711AFF2741005F03CFF04F1FB
:101CB0002004207B00F01F00E860207C00F007007B
:101CC0002861A08AC0F308006861207A00F01F0034
:101CD000A860207900F03F006860207800F03F00A5
:101CE0002860207E00F00F00A861A08BA4F12004E2
:101CF000C0F30B00E86170BD70B505460E46144692
:101D0000A048854200D105E040F2E511AFF2DC10B9
:101D100005F009FF082E7ED2DFE806F00412202E1F
:101D20003C4C5D6D3B2C00D205E04FF4F571AFF2F9
:101D3000FC1005F0F8FE04F03F0085F860006AE052
:101D40003B2C00D205E04FF4F871AFF2182005F0FB
:101D5000EAFE04F03F0085F864005CE0172C00D236
:101D600005E04FF4FB71AFF2342005F0DCFE04F027
:101D70001F0085F868004EE0062C00D205E04FF405
:101D8000FE71AFF2502005F0CEFE04F0070085F89A
:101D9000700040E01F2C02D2012C00D905E040F277
:101DA0000221AFF2702005F0BEFE04F01F0085F89E
:101DB0006C0030E0012C03D9B4F5B77F00D205E008
:101DC00040F20921AFF2942005F0ADFEC4F3080003
:101DD000A5F874001FE0012C02D90C2C00D205E0FC
:101DE0004FF40471AFF2B42005F09DFE04F00F0033
:101DF00085F878000FE040F6FF70844200D205E0DD
:101E000040F21721AFF2D42005F08DFEC4F30B0091
:101E1000A5F87C0000BF00BF70BD024608292DD286
:101E2000DFE801F004090E13181D222792F8600064
:101E300000F03F00704792F8640000F03F00F9E7BF
:101E400092F8680000F01F00F4E792F8700000F0CC
:101E50000700EFE792F86C0000F01F00EAE7B2F825
:101E60007400C0F30800E5E792F8780000F00F0076
:101E7000E0E7B2F87C00C0F30B00DBE70020D9E715
:101E800070B504460D463F48844200D105E040F25B
:101E90005121AFF2603005F046FE287B00F01F00B4
:101EA00004F160042073287C00F007002074A88AE5
:101EB000C0F30800A082287A00F01F002072287961
:101EC00000F03F002071287800F03F002070287E4D
:101ED00000F00F002076A88BC0F30B00A083A4F1C4
:101EE000600470BD70B504460D462648844200D19A
:101EF00005E040F26721AFF2C43005F014FE04F1B2
:101F00006004207B00F01F00E860207C00F00700E8
:101F10002861A08AC0F308006861207A00F01F00E1
:101F2000A860207900F03F006860207800F03F0052
:101F30002860207E00F00F00A861A08BA4F160044F
:101F4000C0F30B00E86170BD70B505460C460D4846
:101F5000854200D105E040F28221AFF2284005F031
:101F6000E2FD012C01D0022C00D105E040F28321DA
:101F7000AFF2404005F0D7FD2878204204D0012080
:101F800070BD0000004002400020F9E770B5044633
:101F90000D465548844200D105E040F29521AFF24C
:101FA0006C4005F0C0FD012D01D0022D00D105E0EF
:101FB00040F29621AFF2844005F0B5FD2078284329
:101FC000207070BD70B504460D464748844200D16C
:101FD00005E040F2A521AFF2A44005F0A4FD0DB14B
:101FE000012D00D105E040F2A621AFF2B84005F086
:101FF0009AFD012D04D1207A00F00300207203E045
:10200000207A40F01000207270BD70B505460E4673
:1020100014463548854200D105E040F2BF21AFF2B9
:10202000EC4005F080FD0CB1012C00D105E04FF42F
:102030003071AFF2005005F076FDB6F5003F00D2EA
:1020400005E040F2C121AFF2145005F06CFD701EA6
:10205000C0F31000012C01D1610400E0002108430D
:10206000286470BD2DE9F04105460C4616461E4811
:10207000854200D105E040F2D721AFF2485005F08B
:1020800052FD002C02DB042C00DC05E04FF436711D
:10209000AFF2605005F047FD05F1440707EB8407F8
:1020A0003E60BDE8F0812DE9F04105460C460E4842
:1020B000854200D105E040F2EF21AFF2885005F0F3
:1020C00032FD002C02DB042C00DC05E04FF43C71F7
:1020D000AFF2A05005F027FD05F1440606EB84069B
:1020E00037683846BDE8F0810040024070B50546CB
:1020F00035B1012D09D0022D0CD0032D14D10EE0E5
:102100000220FEF75EFA04460EE00420FEF759FABC
:10211000044609E02C20FEF754FA044604E02E2081
:10212000FEF74FFA044600BF00BF204670BD2DE900
:10213000F04781460C464846FFF7D8FF0026054683
:1021400000232946A1FB047C06FB04C205FB0321F6
:10215000FD4A38461DF022FF05462846BDE8F087B7
:1021600001464FF0FF30B1F1402F01D100200DE0CA
:10217000F64A914201D1012008E0F54A914201D18D
:10218000022003E0F34A914200D10320704770B56A
:1021900005460C46B5F1402F08D0EC48854205D0E5
:1021A000EB48854202D0EB48854200D103E09F21F5
:1021B000E9A005F0B8FC4CB1012C07D0022C05D0E9
:1021C000032C03D0042C01D0052C00D103E0A02166
:1021D000E1A005F0A8FC28680121A1400840C6B292
:1021E0000EB1012070BD0020FCE770B505460C461D
:1021F000B5F1402F08D0D548854205D0D448854256
:1022000002D0D448854200D103E0BD21D2A005F020
:102210008AFC4CB1012C07D0022C05D0032C03D032
:10222000042C01D0052C00D103E0BE21CAA005F08A
:102230007AFC2868211D01228A401040C6B20EB1E6
:10224000012070BD0020FCE770B505460C46B5F1D5
:10225000402F08D0BD48854205D0BD48854202D0F8
:10226000BC48854200D103E0D621BBA005F05BFC51
:102270004CB1012C07D0022C05D0032C03D0042C28
:1022800001D0052C00D103E0D721B3A005F04BFC11
:1022900028680121A1400843286070BD70B505463B
:1022A0000C46B5F1402F08D0A848854205D0A84873
:1022B000854202D0A748854200D103E0ED21A6A0C7
:1022C00005F031FC4CB1012C07D0022C05D0032CB9
:1022D00003D0042C01D0052C00D103E0EE219EA0F8
:1022E00005F021FC2868211D01228A401043286046
:1022F00070BD20B90A4601231370536003E00A46FB
:102300000023537000BF70472DE9F04704460D4687
:102310001646B4F1402F08D08C48844205D08C4832
:10232000844202D08B48844200D104E04FF4927181
:1023300089A005F0F8FB1DB1012D01D000D000D11E
:1023400004E040F2251184A005F0EDFBB4F1402F2C
:1023500008D101210220FEF751F900210220FEF7E9
:10236000EBF822E07948844208D101210420FEF7ED
:1023700045F900210420FEF7DFF816E07448844296
:1023800008D101218805FEF739F900212C20FEF73C
:10239000D3F80AE06F48844207D10121C805FEF74F
:1023A0002DF900212E20FEF7C7F8A06A20F00300C7
:1023B000A062A06AA0620020A0602061E060606866
:1023C00040F002006060606820F00200606085B943
:1023D0003746387818B97868401EE06017E0204624
:1023E000FFF7BEFE81467968FFF7A1FE401EE06060
:1023F0000DE0B046A06A20F00C00A062464698F8B6
:102400000100012803D1A06A40F00400A0624FF04F
:10241000FF302060BDE8F08710B50446B4F1402FCE
:1024200008D04A48844205D04948844202D04948ED
:10243000844200D104E040F26D1147A005F073FB27
:1024400000206060B4F1402F04D100210220FEF78B
:10245000D5F818E03D48844204D100210420FEF75D
:10246000CDF810E03A48844205D100214FF48000B5
:10247000FEF7C4F807E03748844204D100214FF446
:102480008000FEF7BBF810BD70B504460D46B4F1F0
:10249000402F08D02D48844205D02D48844202D0D8
:1024A0002C48844200D104E04FF4C7712AA005F003
:1024B0003AFB012D04D1606840F00100606003E048
:1024C000606820F00100606070BD10B50446B4F192
:1024D000402F08D01D48844205D01D48844202D0B8
:1024E0001C48844200D104E04FF4D3711AA005F0D7
:1024F0001AFB606840F002006060606820F0020033
:10250000606010BD70B504460D46B4F1402F08D090
:102510000E48844205D00E48844202D00D488442C1
:1025200000D104E040F2C5110BA005F0FCFA2879B7
:1025300040B12879012805D02879022802D02879CD
:10254000032819D11EE0000040420F000080004027
:102550000000094000400940447269766572735C6E
:10256000736F757263655C6C7063313778785F7414
:10257000696D65722E6300004FF4E371AFF22800BD
:1025800005F0D1FA287830B1012807D0022808D008
:1025900003280CD108E0A868A0610AE0A868E061FF
:1025A00007E0A868206204E0A868606201E000BF5C
:1025B000FEE700BF6069297801EB410207219140E5
:1025C00088436061687838B16069297801EB41021D
:1025D0000121914008436061E87840B16069297841
:1025E00001EB4101491C01228A4010436061A87837
:1025F00040B16069297801EB4101891C01228A40C0
:1026000010436061E06B2978042202EB4102032150
:1026100091408843E063287900F003002978042280
:1026200002EB41018840E16B0843E06370BD70B587
:1026300004460E461546B4F1402F08D04348844264
:1026400005D04348844202D04248844200D105E08C
:1026500040F2FB11AFF2001005F065FA36B1012E21
:1026600006D0022E06D0032E08D105E0A56107E0B2
:10267000E56105E0256203E0656201E000BFFEE779
:1026800000BF70BD70B504460D46B4F1402F08D0B0
:102690002E48844205D02E48844202D02D488442E0
:1026A00000D105E040F22121AFF2541005F03BFAD1
:1026B000A06A297801EB4102072191408843A0627A
:1026C000687838B1A06A297801EB41020121914074
:1026D0000843A062A87840B1A06A297801EB4101C3
:1026E000491C01228A401043A062E87840B1A06AE8
:1026F000297801EB4101891C01228A401043A06224
:1027000070BD70B504460D46B4F1402F08D00F4897
:10271000844205D00E48844202D00E48844200D143
:1027200005E04FF40F71AFF2D01005F0FCF90DB1D8
:10273000012D00D105E040F23D21AFF2E41005F09B
:10274000F2F90DB9E06A70BD206BFCE70080004033
:1027500000000940004009402DE9F04F87B00446D1
:102760000D460020069005900490804601200390BD
:102770000020029082468346FE480190FE48844233
:1027800004D10620FDF71DFF064616E0FB488442F3
:1027900004D10820FDF715FF06460EE0F8488442F4
:1027A00004D13020FDF70DFF064606E0F5488442CF
:1027B00003D13220FDF705FF06463609012742E026
:1027C0004FF0000936E007FB06F007EB0901B0FB0C
:1027D000F1F004900498B0FBF5F80498B0FBF5F123
:1027E00005FB1100B0EB550F01D908F10108B8F154
:1027F000020F1DD9B8F5803F1AD20498B0FBF8F04B
:1028000005900598A84203D80598A5EB000B02E0B7
:102810000598A0EB050B0198834509D20397CDF8E5
:102820000890C246CDF804B0BBF1000F00D104E01F
:1028300009F10109B9F10F0FC5D900BFBBF1000FB4
:1028400000D102E07F1C0F2FBAD900BF05EB450075
:102850006421B0FBF1F10198814232D9C74884422A
:1028600016D1207B40F0800020734FEA1A2020719F
:1028700084F800A0207B00F07F002073F0210398F3
:1028800001EA0010029901F00F010843A06216E06E
:10289000207B40F0800020734FEA1A20207184F8DA
:1028A00000A0207B00F07F002073F021039801EA54
:1028B0000010029901F00F01084384F8280001205C
:1028C0000690069807B0BDE8F08F70B504460D4637
:1028D000A948844208D0A948844205D0A848844227
:1028E00002D0A848844200D103E0BF21A6A005F091
:1028F0001AF9687940B16879012805D06879022809
:1029000002D06879032800D103E0C0219EA005F021
:102910000AF9A87910B1A879012800D103E0C121F2
:1029200099A005F000F9287958B12879012808D034
:102930002879022805D02879032802D0287904288C
:1029400000D103E0C22190A005F0EDF88A4884424E
:1029500003D101210820FDF751FE8848844203D1AC
:1029600001211020FDF74AFE8548844203D1012150
:102970000806FDF743FE8348844203D1012148063F
:10298000FDF73CFE7D48844221D1072020720020C3
:10299000207200E02678207D10F0010FFAD180200F
:1029A00084F8300000BF207D10F0200FFBD0002005
:1029B00084F83000606020732062207484F84C003A
:1029C00084F8540084F85000267E267D18E0072005
:1029D00020720020207200E02678207D10F0010F88
:1029E000FAD1802084F8300000BF207D10F0200F45
:1029F000FBD0002084F83000606020732062267DC8
:102A00006048844202D1002084F8240020462968CE
:102A1000FFF7A2FE5948844203D1207B00F0C00694
:102A200002E0207B00F0C006687930B1012806D0B2
:102A3000022807D0032808D108E000BF09E046F0CB
:102A4000010606E046F0020603E000BF46F003067A
:102A500000BF00BF2879C0B146F0080628790128D8
:102A600006D0022806D0032807D004280BD107E09F
:102A700000BF09E046F0100606E046F0200603E03D
:102A800046F0300600E000BF00BFA87928B1012859
:102A900002D146F0040601E000BF00BF00BF374886
:102AA000844201D1267300E0267370BD70B50446E0
:102AB0000D463148844208D03048844205D0304821
:102AC000844202D02F48844200D104E040F2E23137
:102AD0002DA005F028F80DB1012D00D104E040F241
:102AE000E33129A005F01FF8012D10D123488442BD
:102AF00006D194F8300040F0800084F8300014E0F3
:102B000094F8300040F0800084F830000DE01B485D
:102B1000844205D194F83000002084F8300004E0AD
:102B200094F83000002084F8300070BD10B50446E1
:102B30001148844208D01148844205D0104884428C
:102B400002D01048844200D104E040F28B110EA064
:102B500004F0E9FF00212046FFF7A8FF0648844261
:102B600003D100210820FDF749FD044884421ED10D
:102B7000002119E0A086010000C0004000000140D3
:102B80000080094000C00940447269766572735C38
:102B9000736F757263655C6C7063313778785F75DD
:102BA0006172742E630000001020FDF727FDFC48C1
:102BB000844204D100214FF08070FDF71FFDF948D9
:102BC000844204D100214FF00070FDF717FD10BDC5
:102BD0004FF416510160032141710021017181718F
:102BE00070470146087D10F0400F01D0002070476B
:102BF0000120FCE770B504460D46EB48844208D03E
:102C0000EA48844205D0E648844202D0E54884423E
:102C100000D105E04FF4F171AFF2940004F083FFAE
:102C2000E248844201D1257000E0257070BD10B5E6
:102C30000446DD48844208D0DC48844205D0D848A8
:102C4000844202D0D748844200D105E04FF4FE719F
:102C5000AFF2CC0004F067FFD448844201D1207861
:102C600010BD2078FCE72DE9FF5F80468A46934639
:102C700057465C460398012824D100251FE04FF0F9
:102C8000FF3905E0B9F1000F00D106E0A9F1010913
:102C900098F8140010F0200FF4D000BFB9F1000F25
:102CA00000D10EE0102607E017F8011B4046FFF7A1
:102CB000A1FF761E641E6D1C0EB1002CF4D1002CF9
:102CC000DDD117E0002512E098F8140010F0200F75
:102CD00000D10EE0102607E017F8011B4046FFF771
:102CE00089FF641E761E6D1C0EB1002CF4D1002CE1
:102CF000EAD100BF284604B0BDE8F09F2DE9F05F9F
:102D00000746894692469B464E465546BBF1010F03
:102D10001DD1002418E04FF0FF3805E0B8F1000F96
:102D200000D105E0A8F10108387D10F0010FF5D0C1
:102D300000BFB8F1000F00D108E03846FFF777FF79
:102D400006F8010B6D1E641C002DE4D110E0002478
:102D50000BE0387D10F0010F00D108E03846FFF796
:102D600066FF06F8010B641C6D1E002DF1D100BF3B
:102D70002046BDE8F09F10B504468B48844208D039
:102D80008A48844205D08648844202D085488442DD
:102D900000D105E040F28E21AFF2142004F0C3FE12
:102DA0008248844204D1207B40F04000207303E03D
:102DB000207B40F04000207310BD2DE9F041044617
:102DC0000D4617467848844208D07848844205D09A
:102DD0007348844202D07348844200D105E040F237
:102DE000B521AFF25C2004F09EFE0FB1012F00D19F
:102DF00005E040F2B621AFF2702004F094FE072DFA
:102E000015D2DFE805F00406080A0C0E11000126B1
:102E10000DE002260BE0042609E0082607E08026E4
:102E200005E04FF4807602E04FF4007600BF00BF6B
:102E30005E48844214D15DB1012D09D0022D07D026
:102E4000052D05D0062D03D0032D01D0042D00D172
:102E500016E040F2D221AFF2D02004F064FE0FE081
:102E60003DB1012D05D0022D03D0052D01D0062D39
:102E700000D105E040F2D621AFF2F42004F053FE79
:102E8000012F0AD14948844203D160683043606011
:102E900013E06068304360600FE04448844206D12C
:102EA000606840F28F31B1430840606005E06068BF
:102EB00040F20731B14308406060BDE8F08110B5D1
:102EC00004463948844208D03848844205D0344802
:102ED000844202D03348844200D105E04FF441716E
:102EE000AFF25C3004F01FFE3048844201D1007D17
:102EF00010BD207DFCE710B504462B48844208D065
:102F00002A48844205D02648844202D0254884427B
:102F100000D105E040F21B31AFF2943004F003FE23
:102F2000A06840F2CF31084010BD70B506460C468F
:102F300000251D48864208D01C48864205D0184806
:102F4000864202D01748864200D105E040F22F3178
:102F5000AFF2CC3004F0E7FDE07840B1E078012832
:102F600005D0E078022802D0E078032800D105E0FF
:102F70004FF44C71AFF2F03004F0D5FDA07810B1F1
:102F8000A078012800D105E040F23131AFF20840CD
:102F900004F0C9FD207810B12078012808D10DE097
:102FA0000080094000C0094000C00040000001400E
:102FB00040F23231AFF2304004F0B5FD607810B12C
:102FC0006078012800D105E040F23331AFF248408B
:102FD00004F0A9FD45F00105E07830B1012806D0E4
:102FE000022807D0032808D108E000BF09E045F017
:102FF000400506E045F0800503E000BF45F0C00550
:1030000000BF00BF6078012801D145F00405207899
:10301000012801D145F00205A078012801D145F031
:103020000805FA48864203D105F0CF00307202E06D
:1030300005F0CF00307270BD00218170C170012198
:103040000170417070472DE9F04104460F46154666
:10305000EF48844208D0ED48844205D0ED488442D0
:1030600002D0ED48844200D105E040F28A31AFF24F
:10307000E84004F058FD0DB1012D00D105E040F20B
:103080008B31AFF2FC4004F04EFD0026012D09D13A
:103090003878012801D146F002067878012801D15C
:1030A00046F00406D948844215D1012D10D1207B69
:1030B00040F080002073002020702071207B20F0E1
:1030C000800020731020A06246F00100206218E00A
:1030D0000020206215E0012D11D1207B40F08000FE
:1030E0002073002020702071207B20F0800020734E
:1030F000102084F8280046F00100206201E0002042
:103100002062BDE8F08170B504460D46C048844297
:1031100008D0BE48844205D0BE48844202D0BE4892
:10312000844200D105E040F2CB31AFF2A45004F06C
:10313000FAFCB648844203D1206A2843206202E0A8
:10314000206A2843206270BD70B504460D46B2481F
:10315000844200D105E040F20C41AFF2D45004F0BB
:10316000E2FC0DB1012D00D105E040F20D41AFF2BE
:10317000E85004F0D8FC012D06D194F8240040F06A
:10318000020084F8240006E02DB994F8240000F031
:103190003D0084F8240070BD70B504460D469E487D
:1031A000844200D105E040F22441AFF2246004F0F3
:1031B000BAFC0DB1012D00D105E040F22541AFF27E
:1031C000386004F0B0FC012D06D194F8240040F0E2
:1031D000010084F8240005E094F8240000F03E008B
:1031E00084F8240070BD2DE9F04105460C468A485C
:1031F000854200D105E040F24541AFF2746004F031
:1032000092FC6CB1012C0BD0022C09D0032C07D0FE
:10321000042C05D0052C03D0062C01D0072C00D19E
:1032200005E040F24641AFF2A06004F07CFC60078C
:10323000870E95F8240020F0380647F00400064376
:1032400006F03F0085F82400BDE8F0812DE9F0414B
:1032500004460D46164600276C48844200D105E01E
:1032600040F26541AFF2E06004F05DFC0DB1012D6C
:1032700000D105E040F26641AFF2F46004F053FC87
:103280000EB1012E00D105E040F26741AFF20870A7
:1032900004F049FC15B1012D04D101E0012702E041
:1032A000022700E000BF00BF012E03D1207C38437D
:1032B000207404E0207CF321B94308402074BDE869
:1032C000F0812DE9F04104460D4617464F488442EF
:1032D00000D105E040F28D41AFF2547004F023FCC0
:1032E0001DB1012D01D0022D00D105E040F28E412B
:1032F000AFF26C7004F017FC0FB1012F00D105E0A4
:1033000040F28F41AFF2807004F00DFC25B1012D29
:1033100004D0022D06D103E0102604E0402602E08E
:10332000802600E000BF00BF012F03D1207C304386
:10333000207404E0207CF321B14308402074BDE8F0
:10334000F08110B504463148844200D105E04FF4C5
:103350009761AFF2CC7004F0E6FB207E10BD70B533
:1033600006460C462948864200D105E040F2CC4191
:10337000AFF2EC7004F0D7FBA07810B1A078012870
:1033800000D105E040F2CD41AFF6040004F0CBFBE4
:10339000E07810B1E078012800D105E040F2CE419C
:1033A000AFF61C0004F0BFFBE079FF2800DA05E06F
:1033B00040F2CF41AFF6300004F0B5FB607910B1B8
:1033C0006079012800D105E04FF49A61AFF648001A
:1033D00004F0A9FB207910B12079012800D105E083
:1033E00040F2D141AFF6600004F09DFBA079FF28C8
:1033F00000DA05E040F2D241AFF6740004F093FB2E
:10340000207810B12078012808D10DE0000001409B
:1034100000C000400080094000C0094040F2D34194
:10342000AFF69C0004F07FFB607810B16078012853
:1034300000D105E040F2D441AFF6B40004F073FBD4
:103440000025E07801280ED145F0100560790128AB
:1034500001D145F020052079012801D145F008056A
:10346000E07986F854002078012801D145F0010563
:10347000A078012804D145F00405A07986F8500011
:10348000607808B945F0020505F03F0086F84C0069
:10349000307B40F03800307370BD012906D190F8C0
:1034A0004C2022F0020280F84C2005E090F84C20DD
:1034B00042F0020280F84C2070472DE9F0470446A4
:1034C000894692461F469FB1257BA84628F01008E2
:1034D00084F80C800123524649462046FFF7C3FB7F
:1034E000064600BF207D10F0400FFBD025730BE097
:1034F0000123524649462046FFF7B5FB064600BF6A
:10350000207D10F0400FFBD03046BDE8F08713B5AA
:10351000044601231A4601A92046FFF7CEFF1CBD31
:1035200070B504460D46164600233246294620460D
:10353000FFF7C3FF70BD00000146002002E0491CF8
:10354000421CD0B20A78002AF9D170472DE9F04127
:1035500005460E4614460027FA48007820B111208F
:1035600020700020BDE8F0812878012808D00228CA
:1035700007D0032802D0042804D100E000BF00BF18
:1035800000BF03E0012020700020EBE700BFFCF744
:1035900055FE0746686930603068FFF7CDFF80460A
:1035A0003846FCF74FFE002020704046DAE72DE950
:1035B000F04105460E4614460027E248007818B14F
:1035C00012202070BDE8F0812878012808D0022858
:1035D00007D0032802D0042804D100E000BF00BFB8
:1035E00000BF02E001202070ECE700BFFCF726FEE0
:1035F00007466E613846FCF725FE0020207000BFAC
:10360000E0E7F0B5024612F8384F95785678A2F107
:1036100038020B4618680FE000F10B073F5DB74317
:1036200000F10B0C0CF8047067463F5D17B9877A00
:10363000AF4387721B1D18680028EDD1F0BDC24949
:10364000C24A1278885CC249095CBF4A515C01EBEE
:10365000C001C04A1170704710B50024FCF7EEFDA0
:103660000446B8480078F8B9BB480078E0B9FFF7DD
:10367000E6FFBA48B749097850F82100B849086010
:10368000B4480078B749097888420DD0B44800683A
:10369000C06B401CB2490968C863B3480068401C4D
:1036A000B1490860FCF7E1FD2046FCF7CBFD10BDF9
:1036B00070B501460024AD4D2D68EC61AB4C24681B
:1036C00021620B4618681BE0A84C246894F8385017
:1036D00000F10B04645DA54D2D6895F839502C431D
:1036E000A24D2D6895F8386000F10B05AC55847A31
:1036F0009E4D2D6895F83A502C4384721B1D186816
:103700000028E1D1994C246894F83820904CA45CAE
:10371000964D2D6895F83950AC438D4DAC542C46E0
:10372000A45C44B9914C246894F83A50874C2478AE
:10373000AC43864D2C7070BD2DE9FF4F83B083469E
:103740000E461546DDF84080002000903060D946D6
:10375000D9F8004018E02078062807D2DFE800F00A
:103760000604050307080AE009E008E000BF00BFFF
:10377000012088F80000002007B0BDE8F08F00BFEE
:1037800009F10409D9F80040002CE4D16D48007813
:1037900020B1022088F800000020EDE76E48007894
:1037A00020B10D2088F800000020E5E7FCF746FD79
:1037B00000900020029082460190D946D9F800403E
:1037C0005DE02078062849D2DFE800F048172A0398
:1037D000494A208960B12089401E208110C60120FD
:1037E0000290002001C50AF101001FFA80FA03E0EF
:1037F000019840F0010001903CE0606858B16068B9
:1038000001C50020606010C6012002900AF101008D
:103810001FFA80FA03E0019840F00200019029E0CD
:103820006768F88AA8B13969081D3861086801C558
:10383000B9683869884201D178683861F88A401ED1
:10384000F88210C6012002900AF101001FFA80FAE6
:1038500003E0019840F0040001900BE000BF00BFBE
:103860000098FCF7EFFC00203060012088F8000091
:10387000504681E700BF09F10409D9F80040002C47
:103880009FD10298012809D1002030600098FCF7F0
:10389000D9FC002088F8000050466DE733480068E6
:1038A00090F83400019941F0800108432F490968DC
:1038B00081F8340000202D49096881F835002B4932
:1038C0000698096808635846FFF7F2FE0098FCF76F
:1038D000B9FCFFF7C1FEFCF7B1FC0090234800687B
:1038E00090F8350020B101281BD0022818D100E043
:1038F00000BF1E480068C4693CB110C6002030609B
:103900000AF101001FFA80FA09E00120174909684D
:1039100081F83500594615480068FFF772FE06E049
:1039200000BF594611480068FFF76BFE00BF00BF9B
:103930000E48006890F83500D0B1012841D0022827
:103940003ED137E019000010262C02001D000010A7
:103950001E0000101C0000101A0000109C0A00102D
:10396000340000101B000010000000102C0000109C
:10397000207806280DD2DFE800F00C0607030D0EB4
:10398000002001C511E000BFFB480068406A01C586
:103990000BE000BF00BF0098FCF754FC0020306033
:1039A000012088F800005046E6E600BF002088F8B5
:1039B00000000CE0002001C50E2088F8000006E0A1
:1039C00000BF002001C50A2088F8000000BF00BF2A
:1039D0000020E949096881F83400E749096881F85D
:1039E0003500E5490968C861E34909680862E249A8
:1039F000096848620098FCF725FC5046BCE67CB597
:103A0000002514E06946284602F028FD064666B9FE
:103A1000DA4850F8254044B1012C06D0D4E902011F
:103A200000EB8100A0640198E064681CC5B23F2DE2
:103A3000E8D97CBD002402E0282002F017FED0481F
:103A400000780028F8D0CF4800686421B0FBF1F07E
:103A5000CC4908600846006828B90020CA490870A7
:103A6000FF2002F03DFD00BFFCF7E8FB0446C7481D
:103A70000068C74908600020C44908602046FCF778
:103A8000E1FBC3480068BF490968B0FBF1F0C0F131
:103A90006400BD49087003F0EEF9FFF7B0FF142091
:103AA00002F0E4FDE0E700B585B0032000218022AC
:103AB000B84BCDE90132CDE903104FF6FE703E233D
:103AC000B54A0090AFF2930002F045FB05B000BD8F
:103AD000002400BFFCF7B2FB0446AC480068401C61
:103AE000AA4908602046FCF7ADFB03F0C0F9F1E7F6
:103AF00000B585B0032000218022A84BCDE901321A
:103B0000CDE903104FF6FF703F23A54A0090AFF2B6
:103B10003F0002F020FB05B000BD04E0002200F8E9
:103B2000012B4A1E91B20029F8D1704730B5F0211F
:103B30009C48FFF7F2FF9B4B03F11805002408E0B7
:103B4000002018705D6098A0586118331835601C0B
:103B500084B2092CF4D300201870586092A05861E8
:103B600090489249086030BD30B54FF4E761904805
:103B7000FFF7D3FF4FF480718048FFF7CEFF8C4BE7
:103B800003F15405002404E05D6154335435601C96
:103B9000C4B2152CF8D300205861864908608448C7
:103BA0008549086030BD0022844B1A70844900208A
:103BB00004E0002201F8012B421CD0B20828F8D3FF
:103BC0000022804B1A70804B1A70804B1A606A4B2F
:103BD0001A60704700207E4908607E4908707E495F
:103BE00008707E4908707E4908707E490860674900
:103BF0000860674908606349086061490870704758
:103C000010B503F023F9FFF7E5FFFFF7CCFFFFF74F
:103C1000ABFFFFF78BFF00F0AAFE01F084F901F083
:103C20008EFFFFF765FFFFF73EFF03F097F803F005
:103C300011F903F0A1F910BD69480078012808D1F5
:103C400064480078FF2804D262480078401C61492B
:103C50000870704710B5002461480078012830D101
:103C6000FCF7ECFA04465B48007820B1594800782C
:103C7000401E5849087057480078F8B956480078EF
:103C8000E0B9FFF7DCFC3D484F49097850F82100C6
:103C90004E4908604C4800784A49097888420DD05E
:103CA0004A480068C06B401C48490968C8634D48D1
:103CB0000068401C4B490860FCF7DCFA2046FCF722
:103CC000C1FA10BD10B5002445480078012811D173
:103CD000FCF7B4FA04463F48007840B93E48007803
:103CE000FF2804D23C480078401C3B49087020461D
:103CF000FCF7A8FA10BD10B5002439480078012857
:103D000021D1FCF79BFA044633480078C0B1324811
:103D10000078401E304908700846007860B92D4888
:103D2000007828B92046FCF78DFAFFF795FC0AE0E9
:103D30002046FCF787FA06E02046FCF783FA02E00B
:103D40002046FCF77FFA10BD10B52548007890B9E1
:103D5000FFF775FC1C4800781A49087007481A4993
:103D6000097850F82100194908600846006802499E
:103D70000860FCF76AFA10BD2C0000109C0A0010C5
:103D800018000010100000100C0000102800001097
:103D9000140000109C060010980800109C080010E9
:103DA000980A00105C0500103F000000040000109D
:103DB0009C0B001038000010300000101D00001097
:103DC0001E0000101B0000101C000010340000102A
:103DD00048000010190000101A0000102700001001
:103DE000260000100000001010B50024022002F090
:103DF0003DFCFCF723FA04460020DF49086020461A
:103E0000FCF720FA142002F031FCFCF717FA044604
:103E1000D9480068D94908600120D949087020466E
:103E2000FCF710FA10BD70B5002603F07FF8FCF720
:103E300005FA0646D3480068401CD249086030465F
:103E4000FCF700FAD0480078012857D1CF48007815
:103E500020B1012804D0022809D103E001250BE09C
:103E6000002509E001250120C849087004E001256A
:103E70000020C649087000BF00BF05B970BDC44826
:103E8000046837E0FCF7DAF90646206B70B3206B64
:103E9000401E2063206B48BB94F8340010F0370FAD
:103EA00009D014F8340F20F0370020700120607022
:103EB000A4F1340402E0002084F8350094F83400C2
:103EC00010F0080F12D104F13804A078B149097834
:103ED00040EA0100AF4908702078AF49085C61787A
:103EE00040EA010014F83819AB4A5054646930466E
:103EF000FCF7A8F994F836003F28C3D100BFBDE70E
:103F000040F221107047704710B590F8382001F149
:103F10000B039B5C90F83940A34301F10B04A354BD
:103F200023469B5C23B98B7A90F83A40A3438B726B
:103F300010BD2DE9F04F05460F4690469946A87AE8
:103F400096490E5C05F10B00805D11F800B00BEB9B
:103F5000C60000F0FF0A924850F82A40002004F101
:103F60002404E0602760207C20EA0800207484F8A4
:103F70001190207CA4F1240410F0080F0DD194F8C6
:103F80003A00844909780843824908708248805D74
:103F900094F8391008438049885529462046FFF790
:103FA000B3FF206A20B12046216AFFF72AFBE561B2
:103FB0005046BDE8F08F10B57A4A1268D061794A50
:103FC000126892F8383000F10B02D25C754B1B6816
:103FD00093F839301A43734B1B6893F8384000F15B
:103FE0000B031A55827A6F4B1B6893F83A301A43C9
:103FF00082726C4A126892F83810674A525C694BB8
:104000001B6893F839309A43634B5A541A46525CF2
:1040100042B9644A126892F83A305E4A12789A437A
:104020005C4B1A7010BD0023837200F10B0100225B
:1040300004E0002301F8013B531CDAB2082AF8D34C
:10404000704705E011F8013B00F8013B531E9AB29E
:10405000002AF7D170472DE9F84F05460F469046E4
:104060009946DDE90AAB00200090FCF7E7F80090E4
:104070004D480468002C79D004F11C0454F8080C55
:10408000494908600098FCF7DDF844F81C7CA576E7
:10409000002020766076606144F818BC44F810ACCB
:1040A00044F8148C0C9824F80C0C24F80A9C00207A
:1040B000E077E810207705F00700E076217F012007
:1040C0008840A077E17E0120884060770020206052
:1040D0006060E060A0602062A0626062E0622063D5
:1040E000A4F11C04064606E0002104F1500040F84B
:1040F0002610701CC6B2002EF6D0204602F010FF2B
:10410000204602F0A8FEFCF799F80090244840F8F9
:1041100025401F48006860610020A0611C480068BD
:1041200010B11B48006884611948046004F1380428
:10413000A0781849097840EA0100164908702078EB
:104140001549085C617840EA010014F83819124AF0
:1041500050541648007800F1010014490870009886
:10416000FCF770F80020BDE8F88FFFE70098FCF737
:1041700069F84220F7E70000280000101000001046
:104180001800001048000010260000103C0000102D
:10419000380000101D0000101E000010262C020028
:1041A0009C0A00102C0000103000001027000010A6
:1041B0002DE9F05F04460F4691461E464FF0000B76
:1041C0002078052804D0012030700020BDE8F09F41
:1041D00009F0800ABAF1000F04D029F080094FF0ED
:1041E000010801E04FF0000800203070FCF726F8CD
:1041F0008346B9F1000F2CD0B9F1010F3BD0B9F1D2
:10420000020F03D0B9F1030F46D111E0208900EA73
:104210000705BD4206D1B8F1010F05D12089A84399
:10422000208101E0702030705846FCF70BF83AE02E
:10423000208900EA070535B1B8F1010F05D12089C1
:10424000A843208101E0702030705846FBF7FAFF48
:1042500029E0208927EA0005BD4206D1B8F1010F07
:1042600005D120892843208101E070203070584614
:10427000FBF7E8FF17E0208927EA000535B1B8F120
:10428000010F05D120892843208101E07020307082
:104290005846FBF7D7FF06E05846FBF7D3FF00254B
:1042A0006F20307000BF00BF28468FE72DE9F04136
:1042B00006460D460027FD48007820B110202870E2
:1042C0000020BDE8F081FBF7B9FF0746F848046815
:1042D00084B100684068F649086005202070268196
:1042E00000206060F3A0E0603846FBF7ABFF0020E1
:1042F000287004E03846FBF7A5FF7220287020469E
:10430000DFE730B501464A6808682AB9CC686060C2
:1043100028B10025456002E0106000B142608B6862
:1043200000259D6230BDF0B506460F46B4680020FA
:1043300004F12C0460602780207A20F02000207295
:104340004FF000006072207AA4F12C04A8B904F1A7
:104350003804A078D849097840EA0100D6490870A5
:104360002078D649085C617840EA010014F83819D1
:10437000D24A50544FF0010500E000253046FFF7C7
:10438000C0FF2846F0BD2DE9F04704468946154692
:104390004FF0000AC548007820B10F202870204651
:1043A000BDE8F0872078052803D00120287020463A
:1043B000F6E7FBF743FF8246606808B1012700E09B
:1043C0000027B9F1000F03D0B9F1010F3CD119E07A
:1043D0008FB9B8A0E06000202070B5480068606028
:1043E00000202081B24804605046FBF72BFF0020DC
:1043F0002870002605E05046FBF724FF492028706E
:10440000264628E0D4F8048005E000214046FFF766
:104410008AFFD8F80080B8F1000FF6D1A5A0E060BF
:1044200000202070A2480068606000202081A04821
:1044300004605046FBF706FF012F01D1FFF70CF98E
:1044400000202870002606E05046FBF7FBFE072000
:104450002870264600BF00BF3046A1E72DE9F04195
:1044600005460E46144600279048007820B11120DA
:1044700020700020BDE8F081FBF7E0FE07462878B9
:10448000052806D03846FBF7DDFE0120207000200D
:10449000F0E7E86830603068FFF74EF8804638464D
:1044A000FBF7D0FE002020704046E3E72DE9F04105
:1044B00005460E46144600277C48007818B11220A5
:1044C0002070BDE8F081FBF7B9FE07462878052883
:1044D00005D03846FBF7B6FE01202070F1E7EE600C
:1044E0003846FBF7AFFE0020207000BFE9E7F0B5CB
:1044F0001446059E724F3F6897F8347047F02007C6
:10450000DFF8BCC1DCF800C08CF834700027DFF89D
:10451000B0C1DCF800C08CF83570694F3F683E636D
:10452000674F3F68B9620C828B74654F3F688F603C
:1045300047680F6000274F60C860456805B1696033
:1045400041605F4F3F6897F838205C4FBF5CDFF8F1
:1045500070C1DCF800C09CF839C027EA0C07DFF80E
:104560005CC10CF802706746BF5C5FB9544F3F688E
:1045700097F83AC0504F3F7827EA0C07DFF838C168
:104580008CF80070F0BD2DE9F04F89B005460F465C
:1045900091469A46129E002002904448007828B125
:1045A00002203070002009B0BDE8F08F4548007847
:1045B00018B10D2030700020F5E72878052803D0C9
:1045C000012030700020EEE709F0800BBBF1000FF6
:1045D00004D029F080094FF0010801E04FF00008F5
:1045E000FBF72CFE0290B9F1000F4AD0B9F1010F90
:1045F00078D0B9F1020F03D0B9F1030F71D120E0E7
:10460000288900EA0704BC420FD1B8F1010F02D19A
:104610002889A04328812A48006884850298FBF7EE
:1046200011FE002030702046BDE74B463A4604A9F3
:104630002846CDF800A0FFF75AFF0298FBF702FECC
:1046400078E0288900EA07047CB1B8F1010F02D1B3
:104650002889A04328811A48006884850298FBF7BE
:10466000F1FD0020307020469DE74B463A4604A9F4
:104670002846CDF800A0FFF73AFF0298FBF7E2FDCD
:1046800058E0288927EA0004BC421ED1B8F1010F86
:1046900002D128892043288109480068848502982E
:1046A000FBF7D0FD0020307020467CE71900001099
:1046B000080000103F0000001D0000101E00001048
:1046C0002C0000101A0000100CE04B463A4604A9DA
:1046D0002846CDF800A0FFF70AFF0298FBF7B2FDCD
:1046E00028E01FE0288927EA00047CB1B8F1010F17
:1046F00002D1288920432881AD480068848502982A
:10470000FBF7A0FD0020307020464CE74B463A46B0
:1047100004A92846CDF800A0FFF7E9FE0298FBF7B0
:1047200091FD07E00298FBF78DFD00246F203070AB
:10473000204638E700BFFEF78FFFFBF77FFD0290B2
:104740009B48006890F8350020B39948006890F8BD
:104750003500039000209649096881F8350004A8C7
:10476000FFF7CFFD00209249096881F834000298D4
:10477000FBF768FD00240398012805D0022802D128
:104780000E20307003E000BF0A20307000BF00BF71
:10479000204608E786480068848DB8F1010F1ED1D5
:1047A000B9F1000F0ED0B9F1010F0CD0B9F1020F21
:1047B00003D0B9F1030F0AD100E000BF2889A0435C
:1047C00028810BE000BF28892043288106E0029859
:1047D000FBF738FD6F2030700020E4E600BF029840
:1047E000FBF730FD002030702046DCE670B5002578
:1047F000FBF724FD05466E480068848D2846FBF7CC
:1048000021FD204670BD2DE9FC5F04468946924695
:104810001E46002000902078052804D0012030702A
:104820000020BDE8FC9FFBF709FD0090BAF1000FE6
:1048300003D0BAF1010F0AD104E0208920EA09006F
:1048400020810BE0208940EA0900208106E00098E1
:10485000FBF7F8FC712030700020E2E700BF4FF05A
:10486000000B656855E0A87C40B3012838D00228C9
:1048700002D0032844D111E02089298A00EA0107E7
:10488000288AB84209D139462846FFF74CFD8046B0
:10489000B8F1010F01D14FF0010B38E02089298ACE
:1048A00000EA01074FB139462846FFF73CFD804634
:1048B000B8F1010F01D14FF0010B28E0288A2189BE
:1048C00020EA0107288AB84209D139462846FFF76D
:1048D0002AFD8046B8F1010F01D14FF0010B16E01F
:1048E000288A218920EA01074FB139462846FFF777
:1048F0001AFD8046B8F1010F01D14FF0010B06E01F
:104900000098FBF79FFC6F203070002089E700BF04
:104910002D68002DA7D10098FBF794FCBBF1010F87
:1049200001D1FEF799FEFBF789FC009020890190E8
:104930000098FBF787FC00203070019871E72DE9A3
:10494000F04104460D4600272078052804D00120B8
:1049500028700020BDE8F081FBF770FC074626892F
:104960003846FBF76FFC002028703046F2E770B540
:1049700050211048FFF7D1F80E4C04F11006002525
:1049800009E0002020706660AFF2D820E0601034AB
:104990001036681C85B2042DF3D3002020706060AF
:1049A000AFF2F020E06003480349086070BD0000EA
:1049B0002C0000104C0600100800001070B50446D2
:1049C00000262078012801D0002070BDFBF736FCBE
:1049D00006466568002060603046FBF733FC2846D9
:1049E000F3E770B505460026E848007808B10020D6
:1049F00070BDFBF723FC0646E5480468006820B15B
:104A0000E34800684068E24908603046FBF71AFC5A
:104A10004CB101202070002020816560DDA0606124
:104A20002046FFF700FB2046E2E72DE9F047044669
:104A3000884615464FF000092078012804D001204F
:104A400028702046BDE8F087D048007818B10F20C4
:104A500028702046F6E7FBF7F1FB8146A07A08B103
:104A6000012700E00027B8F1000F03D0B8F1010FD3
:104A70003AD119E08FB9C7A0606100202070C44806
:104A80000068606000202081C14804604846FBF750
:104A9000D9FB00202870002605E04846FBF7D2FB32
:104AA00049202870264626E005E000230222194608
:104AB0002046FFF73EFAA07A0028F6D1B5A0606143
:104AC00000202070B2480068606000202081B0485B
:104AD00004604846FBF7B6FB012F01D1FEF7BCFD91
:104AE00000202870002606E04846FBF7ABFB0720B5
:104AF0002870264600BF00BF3046A3E72DE9F041ED
:104B000005460F4614464FF000082878012804D0C7
:104B1000012020700020BDE8F0819C48007818B189
:104B2000022020700020F6E79B48007818B10D2085
:104B300020700020EFE7FBF781FB80466E6846B1EE
:104B4000002068604046FBF77DFB00202070304667
:104B5000E1E79248006890F8340040F002008F4985
:104B6000096881F8340000208C49096881F8350013
:104B70008A48006807632846FFF71DFA4046FBF79E
:104B800061FBFEF769FDFBF759FB8046834800682F
:104B900090F8350020B101280DD002280AD105E097
:104BA0007E480068466A002020700DE000260E2036
:104BB000207009E000BF294678480068FFF7A4F993
:104BC00000260A20207000BF00BF0020734909683A
:104BD00081F834007149096881F835006F49096826
:104BE000C8616E49096808626C49096848624046B4
:104BF000FBF728FB30468EE72DE9F04104460F46CF
:104C000015464FF000082078012804D001202870B4
:104C10000020BDE8F081FBF711FB8046A07A20B3AD
:104C200000267FB1012F0CD107E002231A46002194
:104C30002046FFF77EF9701CC6B2A07A0028F4D196
:104C400009E000BF02231A4600212046FFF771F950
:104C5000701CC6B200BF00BF4046FBF7F3FAFEF778
:104C6000FBFC0E2028703046D3E74046FBF7EAFAFB
:104C70000020287000BFCCE770B504460D46002622
:104C80002078012801D0012070BDFBF7D7FA064635
:104C9000A07A60B10023022229462046FFF749F995
:104CA0003046FBF7CFFAFEF7D7FC0020ECE7606850
:104CB00020B13046FBF7C6FA1420E5E765603046C0
:104CC000FBF7C0FA0020DFE72DE9F04104460E466D
:104CD000154600272078012802D00120BDE8F08188
:104CE000FBF7ACFA0746A07AE8B115F0010F0AD03D
:104CF00005E00023022231462046FFF71AF9A07A88
:104D00000028F6D105E00023022231462046FFF7B5
:104D100010F93846FBF796FA15F0040F01D1FEF7AB
:104D20009BFC0020DAE7606820B13846FBF78AFA7E
:104D30001420D3E766603846FBF784FA0020CDE7FD
:104D40002DE9F04704460D464FF000092078012870
:104D500002D00120BDE8F087FBF770FA8146A07A07
:104D6000287304F10B0705F10408002605E017F885
:104D7000010B08F8010B701CC6B2082EF7D360684F
:104D800028604846FBF75EFA0020E3E719000010B0
:104D9000040000103F0000001A0000102C0000105A
:104DA0002DE9F84F05460F4690469A4600200090A0
:104DB000FBF744FA00906B480468006820B169482A
:104DC00000684068674908600098FBF73BFA2CB917
:104DD0005A208AF800000020BDE8F88F2E4605EB27
:104DE00008094FF0000B05E0C6F800904E46C1449C
:104DF0000BF1010B781E5845F6D800203060256075
:104E000065602761E760C4F808808AF800002046E2
:104E1000E2E72DE9F04104460D460027FBF70EFAC4
:104E20000746206968B16668306860602069401E86
:104E300020613846FBF706FA002028703046BDE8AE
:104E4000F0813846FBF7FEF95D2028700020F6E778
:104E50002DE9F04106460C461546002742480078E9
:104E600020B1112028700020BDE8F081FBF7E6F9A1
:104E70000746706920602068FEF75EFB8046384672
:104E8000FBF7E0F9002028704046EDE72DE9F041FE
:104E900005460E46144600273348007818B1122004
:104EA0002070BDE8F081FBF7C9F907466E6138460E
:104EB000FBF7C8F90020207000BFF2E770B5044688
:104EC0000D460026FBF7BAF90646D4E903108842DE
:104ED00004D33046FBF7B6F95E2070BD60682860E9
:104EE00065602069401C20613046FBF7ABF900206B
:104EF000F3E770B505460C460026FBF79FF906461A
:104F00002868206068686060A868A060E868E06061
:104F1000286920613046FBF795F9D4E90301401A6E
:104F20006061002070BD70B578211048FEF7F5FD76
:104F30000E4C00250BE0681C00EB40000B4901EB18
:104F4000C00060600AA060611834681C85B2042D3E
:104F5000F1D30020606006A0606104480149086048
:104F600070BD00004000001019000010D4120010A5
:104F70003F0000002DE9F04104460D46002720784F
:104F8000042804D0012028700020BDE8F081F848F2
:104F9000007818B1022028700020F6E7FBF74EF9E0
:104FA000074620890612207AFF2820D1208900F4A4
:104FB0007F4020812089EF49096891F83610084325
:104FC0002081EC4800686060EA48006890F836008C
:104FD000B04205DC3846FBF735F97820287004E04C
:104FE0003846FBF72FF9002028700120CDE738461E
:104FF000FBF728F90020287000BFC6E72DE9F04133
:1050000005460E460027DA48007820B1102030709F
:105010000020BDE8F081FBF711F90746D64850F8AB
:10502000250030B13846FBF70DF9282030700020FC
:10503000EFE70120D04941F82500D04804684CB979
:10504000002041F825003846FBF7FCF804203070BA
:105050002046DEE7C94800684068C849086038460D
:10506000FBF7F0F804202070FF2040EA05202081A3
:1050700000206060C2A060612046FEF7D4FF0020DF
:1050800030702046C5E730B590F83820BD4B9B5CAA
:1050900090F83940A343BB4CA35423469B5C33B9DF
:1050A00090F83A40B84B1B78A343B74C237000F8F4
:1050B000361FB64B1970C1F3C203837001F00703AA
:1050C000437084780123A340037144780123A340F3
:1050D000C3700379AC4C24782343AB4C23708378A2
:1050E000A84CE35CC47823438478A0F13600A54D36
:1050F0002B55A14B43F8210030BD2DE9F84F044654
:105100008A461546002000902078042804D001200B
:1051100028702046BDE8F88F9548007818B10F2018
:1051200028702046F6E7FBF789F80090A07A10B1C6
:105130004FF0010801E04FF00008BAF1000F03D072
:10514000BAF1010F58D120E0B8F1000F16D18CA0B0
:105150006061208907120020874941F827002070EC
:1051600086480068606000202081844804600098C0
:10517000FBF768F800202870002605E00098FBF790
:1051800061F84920287026463DE02089071294F8EE
:1051900008B0D4F80490B9F1000F07D099F83600A0
:1051A000B84203D159464846FFF76DFF05E000239A
:1051B000102219462046FEF7BCFEA07A0028F6D140
:1051C0006FA060612089071200206B4941F8270019
:1051D00020706A4800686060002020816748046091
:1051E0000098FBF72FF8B8F1010F01D1FEF734FA60
:1051F00000202870002606E00098FBF723F807201F
:105200002870264600BF00BF304683E72DE9F74FE0
:1052100082B005461746002001902878042804D063
:105220000120387005B0BDE8F08F5148007810B10A
:1052300002203870F6E75648007810B10D2038701B
:10524000F0E7FAF7FBFF019028894FEA2028287A37
:10525000FF281FD1288900F47F40288128894549EB
:10526000096891F836100843288142480068686050
:105270004048006890F83600404505DC0198FAF790
:10528000E1FF7820387004E00198FAF7DBFF002096
:105290003870C7E795F808B06C6894F83600404558
:1052A00065DD3448006890F8360058455FDA94F8B8
:1052B0003890344810F8090094F83910084216D094
:1052C000304810F8090094F8391088432D4901F846
:1052D0000900084610F8090030B994F83A102A4835
:1052E00000788843284908704FF0010A15E0E66904
:1052F0008EB114F8381F06F10B00405C61788843CA
:1053000014F8382906F10B01885404D1B07A94F8C6
:105310003A108843B0724FF0000A04F8368F2078B4
:10532000C010A070207800F007006070A178012004
:1053300088402071617801208840E070A4F1360433
:10534000BAF1010F26D104F13804A0780E4909788A
:1053500040EA01000C49087020780A49085C61782D
:1053600040EA010014F83819064A505427E029E0B1
:10537000190000102C0000109C0A001004000010FE
:105380003F0000001E0000101D0000101B00001058
:105390001A000010E66996B1B07A04F13804A178D9
:1053A00040EA0100B072217806F10B00405C6178A0
:1053B00040EA010014F8382906F10B0188547148BD
:1053C00040F828407048006890F8340040F0100021
:1053D0006D49096881F834004FF000006A49096896
:1053E00081F8350068490398096808632846FEF784
:1053F000E2FD0198FAF726FFFEF72EF9FAF71EFFF5
:1054000001906148006890F8350020B1012809D06A
:10541000022806D102E0002038700BE00E20387020
:1054200008E000BF294658480068FEF76DFD0A20D5
:10543000387000BF00BF00205349096881F834006C
:105440005149096881F835004F490968C8614E49DA
:10545000096808620198FAF7F5FE00BFE2E62DE957
:10546000F041044600274948007810B10520BDE806
:10547000F0812078042801D00120F8E7FAF7DEFE59
:10548000074620890612257A3F49606809688842E4
:1054900004D03846FAF7D6FE6420E8E73A480068B8
:1054A00090F83600B04204D1294637480068FFF72B
:1054B000EAFD0120334941F82600A07A08B3002311
:1054C000102219462046FEF734FD0546208900F4D7
:1054D0007F4020812089284320812A4850F82500D8
:1054E0006060B54206DC3846FAF7ACFEFEF7B4F869
:1054F0007820BCE73846FAF7A5FEFEF7ADF80020A5
:10550000B5E7208940F0FF00208100206060384628
:10551000FAF798FE0020AAE72DE9F04705460C4669
:105520004FF000091948007810B10620BDE8F08757
:105530002878042801D00120F8E7FAF77FFE814699
:1055400028890012E072287AA072A07AFF2802D17E
:105550000120607201E000206072A87A207205F1DB
:105560000B082646002705E018F8010B06F8010B8A
:10557000781CC7B2082FF7D34846FAF763FE00201D
:10558000D4E700009C0A00102C0000101900001045
:105590002DE9F04106460D464FF00008307802280C
:1055A00004D0012028700020BDE8F081FAF746FE03
:1055B00080467468E08A78B12169081D20610F680F
:1055C000E08A401EE082A1682069884201D16068BB
:1055D00020610020287002E01F202870002740462C
:1055E000FAF730FE3846DFE72DE9F04106460F4670
:1055F0004FF00008F748007810B10020BDE8F081B6
:10560000FAF71CFE8046F4480468006820B1F248AE
:1056100000684068F04908604046FAF713FEFCB1A4
:10562000FAF70CFE8046ED480568D5B100680068C1
:10563000EA4908604046FAF705FE6E6006EB87000F
:10564000A860EE602E61AF820020E8820220207008
:10565000002020816560E2A060612046FEF7E3FC47
:1056600008E0DD4800686060DB4804604046FAF707
:10567000E9FD00242046C1E72DE9F04704468946AC
:1056800015464FF0000A2078022804D00120287027
:105690002046BDE8F087CF48007818B10F20287069
:1056A0002046F6E7FAF7CAFD8246A07A10B14FF01D
:1056B000010801E04FF00008B9F1000F03D0B9F183
:1056C000010F49D121E0B8F1000F17D1C4A06061EA
:1056D0006668C24800683060C048066000202070DC
:1056E000BD480068606000202081BB4804605046CF
:1056F000FAF7A8FD00202870002705E05046FAF7C9
:10570000A1FD4920287027462DE005E00023042252
:1057100019462046FEF70DFCA07A0028F6D1B0A06D
:1057200060616668AD4800683060AC480660002083
:105730002070A9480068606000202081A6480460AD
:105740005046FAF77FFDB8F1010F01D1FDF784FF54
:1057500000202870002706E05046FAF773FD072066
:105760002870274600BF00BF384692E770B505464F
:105770000026FAF763FD06466C686068E0606068C2
:1057800020610020E0823046FAF75CFD002070BD09
:105790002DE9F0470746884615464FF0000938784E
:1057A000022804D0012028700020BDE8F087894835
:1057B000007818B1022028700020F6E789480078A8
:1057C00018B10D2028700020EFE7FAF737FD814669
:1057D0007C68E08A98B12169081D20610E68E08A22
:1057E000401EE082A1682069884201D16068206182
:1057F0004846FAF727FD002028703046D5E77A485A
:10580000006890F8340040F004007749096881F896
:10581000340000207449096881F835007248006836
:10582000C0F830803846FEF7C6FB4846FAF70AFD56
:10583000FDF712FFFAF702FD81466B48006890F809
:10584000350020B101280DD002280AD105E06648B4
:105850000068466A002028700DE000260E2028709F
:1058600009E000BF394660480068FEF74DFB00269E
:105870000A20287000BF00BF00205B49096881F83A
:1058800034005949096881F8350057490968C861E9
:105890005549096808625449096848624846FAF758
:1058A000D1FC304681E72DE9F04104460F4615460C
:1058B0004FF000082078022804D001202870002032
:1058C000BDE8F081FAF7BAFC8046A07A20B3002642
:1058D0007FB1012F0CD107E00223042200212046D2
:1058E000FEF727FB701CC6B2A07A0028F4D109E0AD
:1058F00000BF0223042200212046FEF71AFB701C81
:10590000C6B200BF00BF4046FAF79CFCFDF7A4FEFC
:105910000E2028703046D3E74046FAF793FC00206B
:10592000287000BFCCE72DE9F04105460E46002760
:105930002878022802D00120BDE8F081FAF77EFC29
:105940000746A87A60B10023042231462846FEF7B4
:10595000F0FA3846FAF776FCFDF77EFE0020EBE71A
:105960006C68E08AA18A884204DB3846FAF76AFC50
:105970001E20E1E7E168081DE0600E60E08A401C3F
:10598000E082D4E90210884201D16068E0603846C4
:10599000FAF758FC0020CFE72DE9F04105460E4606
:1059A00000272878022802D00120BDE8F081FAF70C
:1059B00045FC0746A87AC8B1002304223146284690
:1059C000FEF7B7FA3846FAF73DFCFDF745FE002032
:1059D000EBE7000019000010040000104400001064
:1059E0003F0000001A0000102C0000106C68E08AD4
:1059F000A18A884204DB3846FAF724FC1E20D4E74B
:105A000061682069884201D1A06820612069001F77
:105A1000206120690660E08A401CE0823846FAF77F
:105A200011FC0020C1E72DE9F04105460F4616465E
:105A30004FF000082878022802D00120BDE8F0814C
:105A4000FAF7FCFB8046A87AE8B116F0010F0AD0FD
:105A500005E00023042239462846FEF76AFAA87AB0
:105A60000028F6D105E00023042239462846FEF737
:105A700060FA4046FAF7E6FB16F0040F01D1FDF795
:105A8000EBFD0020DAE76C68E08AA18A884204DB3B
:105A90004046FAF7D7FB1E20D0E716F0020F0BD0D6
:105AA00061682069884201D1A06820612069001FD7
:105AB00020612069076009E0E168081DE0600F606F
:105AC000D4E90210884201D16068E060E08A401C9D
:105AD000E0824046FAF7B6FB0020AFE72DE9F04739
