:020000040000FA
:10000000B0C20720E1000000E9000000EB000000A2
:10001000ED000000EF000000F10000000000000013
:10002000000000000000000000000000F3000000DD
:10003000F500000000000000F7000000F9000000DB
:10004000FB000000FB000000FB000000FB000000C4
:10005000FB0000001B160000FB000000FB0000007E
:10006000FB000000FB000000FB000000FB000000A4
:10007000FB000000FB000000FB000000FB00000094
:10008000FB000000FB000000FB000000FB00000084
:10009000FB000000FB000000FB000000FB00000074
:1000A000FB000000FB000000FB000000FB00000064
:1000B000FB000000FB000000FB000000FB00000054
:1000C000FB000000FB000000FB000000DFF80CD08C
:1000D00000F0C0F8004800472D150000B0C207200E
:1000E0000648804706480047FEE7FEE7FEE7FEE7D2
:1000F000FEE7FEE7FEE7FEE7FEE7FEE73904000065
:10010000CD00000010B50A46202801D2034601E0C8
:10011000A0F120031946202814D2464B1B684FF04B
:10012000030404FA01F423EA0403434CC4F8A8319D
:10013000404B1B6802FA01F443EA04033E4CC4F846
:10014000A83113E03D4B1B684FF0030404FA01F49F
:1001500023EA0403384CC4F8AC31384B1B6802FA6C
:1001600001F443EA0403344CC4F8AC3110BD014639
:10017000202903D20A462F4B186803E0A1F1200280
:100180002E4B186820FA02F303F00300704770B595
:1001900006462B4804683046FFF7E9FF054635B1AF
:1001A000012D06D0022D06D0032D08D105E004252F
:1001B00005E0012503E0022501E0082500BF00BF9E
:1001C000B4FBF5F4204670BD01290AD11D4A12681E
:1001D0001D4B00EA030342EA0302174BC3F8C42095
:1001E0000AE049B9174A1268174B23EA000302EAEA
:1001F0000302114BC3F8C420704700201349086064
:1002000030BF704704201249086008200F49086079
:1002100030BF704704200E49086009200B49086070
:1002200030BF704704200A4908600320074908606E
:1002300030BF7047A8C10F4000C00F40ACC10F4095
:1002400000000010C4C00F40DEF7EFEFC0C00F4049
:1002500010ED00E0064C074D06E0E06840F00103B9
:1002600094E8070098471034AC42F6D3FFF732FF0A
:1002700098020000D802000002E008C8121F08C15E
:10028000002AFAD170477047002001E001C1121F17
:10029000002AFBD1704700002C1C00000000001059
:1002A0002C00000078020000581C000000C007204D
:1002B000AC00000078020000581C00002C00001068
:1002C0001002000088020000041D0000ACC00720DE
:1002D000040200008802000000000000000000008E
:1002E000000000000000000000000000000000000E
:1002F000000000000000000000000000FFFFFFFF02
:1003000094480068C0F30160032864D192480068F3
:1003100010F0030006D0012823D002283FD0032884
:1003200058D100E000BF8B480068C0F30E0000F118
:1003300001004FEA4000894900FB01F08849D1F8EB
:100340008810C1F3074101F10101B0FBF1F18548CB
:100350000068C0B200F10100B1FBF0F08249086012
:1003600038E07C480068C0F30E0000F101004FEA5D
:1003700040007E4900FB01F07949D1F88810C1F3B3
:10038000074101F10101B0FBF1F176480068C0B20C
:1003900000F10100B1FBF0F0734908601AE06D480C
:1003A0000068C0F30E0000F101004FEA00416C4804
:1003B000D0F88800C0F3074000F10100B1FBF0F174
:1003C00068480068C0B200F10100B1FBF0F0664976
:1003D000086000BF2FE06048006810F0030006D0FE
:1003E000012810D0022819D0032823D100E000BF33
:1003F0005C480068C0B200F101005849B1FBF0F060
:100400005949086016E057480068C0B200F1010081
:100410005649B1FBF0F0544908600BE051480068C0
:10042000C0B200F101004FF40041B1FBF0F04E49C1
:10043000086000BF00BF704720204D490860484851
:10044000D0F8A00110F0200F05D000BF4848006888
:1004500010F0400FFAD00320424908604FF000002E
:100460003F49C1F8A801434908604FF001003A49EB
:1004700008604148414908604FF0AA0040490860BF
:100480004FF0550008604FF001003E4908604FF002
:10049000AA003B4908604FF055003149C1F88C0073
:1004A00000BF2C48006810F0806FFAD00320354957
:1004B00008604FF0AA002A49C1F88C004FF055009F
:1004C0002F49086000BF2348006810F0407FFAD031
:1004D00023202D4908604FF0AA002149C1F8AC0043
:1004E0004FF05500294908604FF001002849086085
:1004F0004FF0AA00254908604FF055001849C1F88F
:10050000AC0000BF2348006810F4806FFAD00320CD
:100510001F4908604FF0AA001149C1F8AC004FF024
:1005200055001A49086000BF1A48006810F4407F5F
:10053000FAD01948194908604FF000000849C1F87D
:10054000C80143F23A0008604FF000001449086007
:100550007047000088C00F400CC10F4000093D00EB
:1005600000C00F4004C10F4000000010001BB70086
:10057000A0C10F40ACC10F401700010084C00F4064
:100580008CC00F4080C00F40A4C00F40ACC00F40D3
:10059000A0C00F40A8C00F40DE872804C4C00F4091
:1005A00008ED00E001460020052912D2DFE801F045
:1005B0000305080B0E00F7480CE0F648203009E070
:1005C000F448403006E0F348603003E0F148803002
:1005D00000E000BF00BF704701460020052912D28D
:1005E000DFE801F00305080B0E00EA480CE0E948DB
:1005F000203009E0E748403006E0E648603003E09C
:10060000E448803000E000BF00BF70470146002092
:10061000052912D2DFE801F00305080B0E00DD48C2
:100620000CE0DC48203009E0DA48403006E0D948E8
:10063000603003E0D748803000E000BF00BF704763
:100640002DE9F04107460D4616463846FFF7AAFF4A
:1006500004463CB11EB120682843206002E02068B7
:10066000A8432060BDE8F08170B506460C463046D0
:10067000FFF798FF054605B1AC6170BD70B5064641
:100680000C463046FFF78EFF054605B1EC6170BDA4
:1006900070B505462846FFF785FF04460CB1606932
:1006A00070BD0020FCE718B912B9BB4B196014E00B
:1006B000022803D112B9B94B19600EE020B9012A02
:1006C00002D1B74B196008E0022804D1012A02D1F7
:1006D000B44B196001E000BFFEE7704703463BB929
:1006E00032B9B148006820FA01F000F0010070470B
:1006F000022B07D132B9AD48006820FA01F000F0B2
:100700000100F4E743B9012A06D1A948006820FA9C
:1007100001F000F00100EAE7022B08D1012A06D11E
:10072000A448006820FA01F000F00100DFE700BFF4
:10073000FEE710B9A04A116006E0022802D19F4AE4
:10074000116001E000BFFEE7704770B504460D463A
:100750001646324629462046FFF772FF70BD70B537
:1007600004460D4629462046FFF77EFF70BD70B552
:1007700004460D4629462046FFF780FF70BD10B5A0
:1007800004462046FFF784FF10BD70B504460D46B1
:100790001646324629462046FFF785FF70BD70B5E4
:1007A00004460D461646324629462046FFF796FF78
:1007B00070BD10B503460C4621461846FFF7B9FF39
:1007C00010BD2DE9F04107460D4616463846FFF7A5
:1007D000E9FE04463CB11EB120692843206102E0D5
:1007E0002069A8432061BDE8F0812DE9F0418046F1
:1007F0000E4615461F464046FFF7EEFE04468CB1F6
:1008000047B11EB16088284360800BE020882843F0
:10081000208007E01EB16088A843608002E0208845
:10082000A8432080BDE8F0812DE9F04180460E46C6
:1008300015461F464046FFF7CFFE04468CB147B130
:100840001EB1608A284360820BE0208A2843208200
:1008500007E01EB1608AA843608202E0208AA843B4
:100860002082BDE8F0812DE9F04107460E4614468E
:100870003846FFF7B1FE05461DB10EB16C8300E0AE
:100880002C83BDE8F0812DE9F04107460E46144661
:100890003846FFF7A1FE05461DB10EB1EC8300E01E
:1008A000AC83BDE8F08170B506460D463046FFF7D3
:1008B00093FE044624B10DB1E08A70BDA08AFCE726
:1008C0000020FAE72DE9F04180460C4616461F4607
:1008D0004046FFF79BFE05467DB13FB1002C0CDB87
:1008E000032C0ADC285D3043285506E0002C04DB8D
:1008F000032C02DC285DB0432855BDE8F0812DE9CA
:10090000F04180460C4616461F464046FFF77EFEE5
:100910000546BDB15FB1002C14DB032C12DC05F1E0
:100920001000005D304305F1100108550AE0002C6D
:1009300008DB032C06DC05F11000005DB04305F177
:1009400010010855BDE8F0812DE9F04107460C463D
:1009500015463846FFF75AFE064636B1002C04DB32
:10096000032C02DC06F118000555BDE8F0812DE9E5
:10097000F04107460C4615463846FFF747FE064647
:1009800036B1002C04DB032C02DC06F11C000555FB
:10099000BDE8F08100C0092090800240B080024094
:1009A00094800240B480024084800240A4800240CF
:1009B00088800240A88002408C800240AC800240C7
:1009C00070B506460C463046FFF720FE05463DB1A1
:1009D000002C05DB032C03DC05F11400005D70BD69
:1009E0000020FCE7F0B504460B46154619466000AA
:1009F0003B4A102901D31039401C52F820604FEABD
:100A0000410C032707FA0CF7BE4342F8206052F866
:100A100020604F0005FA07F73E4342F82060F0BD22
:100A2000F0B504460B461546194660002C4A403284
:100A3000102901D31039401C52F820604FEA410CB4
:100A4000032707FA0CF7BE4342F8206052F82060F3
:100A50004F0005FA07F73E4342F82060F0BD30B57D
:100A60000B461F496831012A07D151F82040012562
:100A70009D402C4341F8204006E051F820400125DC
:100A80009D40AC4341F8204030BD012806D11449B7
:100A9000896A41F00801124A916206E028B91049BA
:100AA000896A21F008010E4A91627047012800D13D
:100AB000052201B90A220A4BDA67704710B50446CD
:100AC000A27861782078FFF78DFFE278617820784E
:100AD000FFF7A6FF227961782078FFF7C0FF10BDED
:100AE00000C002402DE9F04F87B004460D460020BB
:100AF000069005900490804601200390002002900B
:100B000082468346F6480190F648844204D1062086
:100B1000FFF73DFB064616E0F348844204D1082067
:100B2000FFF735FB06460EE0F048844204D1302042
:100B3000FFF72DFB064606E0ED48844203D1322044
:100B4000FFF725FB06463609012742E04FF0000972
:100B500036E007FB06F007EB0901B0FBF1F004906B
:100B60000498B0FBF5F80498B0FBF5F105FB110013
:100B7000B0EB550F01D908F10108B8F1020F1DD9EA
:100B8000B8F5803F1AD20498B0FBF8F005900598AC
:100B9000A84203D80598A5EB000B02E00598A0EB4E
:100BA000050B0198834509D20397CDF80890C246FA
:100BB000CDF804B0BBF1000F00D104E009F1010948
:100BC000B9F10F0FC5D900BFBBF1000F00D102E092
:100BD0007F1C0F2FBAD900BF05EB45006421B0FB85
:100BE000F1F10198814232D9BF48844216D1207B6D
:100BF00040F0800020734FEA1A20207184F800A092
:100C0000207B00F07F002073F021039801EA0010A0
:100C1000029901F00F010843A06216E0207B40F02A
:100C2000800020734FEA1A20207184F800A0207BF6
:100C300000F07F002073F021039801EA0010029970
:100C400001F00F01084384F828000120069006985F
:100C500007B0BDE8F08F70B504460D46A148844248
:100C600008D0A148844205D0A048844202D0A048C0
:100C7000844200D103E0BF219EA000F0A8FD687966
:100C800040B16879012805D06879022802D06879D6
:100C9000032800D103E0C02196A000F098FDA879B8
:100CA00010B1A879012800D103E0C12191A000F082
:100CB0008EFD287958B12879012808D02879022892
:100CC00005D02879032802D02879042800D103E030
:100CD000C22188A000F07BFD8248844203D101211B
:100CE0000820FFF771FA8048844221D10720207242
:100CF0000020207200E02678207D10F0010FFAD14C
:100D0000802084F8300000BF207D10F0200FFBD041
:100D1000002084F83000606020732062207484F822
:100D20004C0084F8540084F85000267E267D18E09C
:100D3000072020720020207200E02678207D10F02D
:100D4000010FFAD1802084F8300000BF207D10F020
:100D5000200FFBD0002084F83000606020732062F8
:100D6000267D6348844202D1002084F82400204676
:100D70002968FFF7B7FE5C48844203D1207B00F06E
:100D8000C00602E0207B00F0C006687930B101287F
:100D900006D0022807D0032808D108E000BF09E0E8
:100DA00046F0010606E046F0020603E000BF46F00A
:100DB000030600BF00BF2879C0B146F008062879B5
:100DC000012806D0022806D0032807D004280BD11A
:100DD00007E000BF09E046F0100606E046F02006F6
:100DE00003E046F0300600E000BF00BFA87928B15C
:100DF000012802D146F0040601E000BF00BF00BF99
:100E00003948844201D1267300E0267370BD70B565
:100E100004460D463348844208D03348844205D006
:100E20003248844202D03248844200D104E04FF478
:100E3000787130A000F0CBFC0DB1012D00D104E0A1
:100E400040F2E1312BA000F0C2FC012D10D1264868
:100E5000844206D194F8300040F0800084F83000DD
:100E600014E094F8300040F0800084F830000DE089
:100E70001D48844205D194F83000002084F83000E9
:100E800004E094F83000002084F8300070BD10B504
:100E900004461448844208D01348844205D01348BD
:100EA000844202D01248844200D104E040F28B1107
:100EB00010A000F08CFC00212046FFF7A8FF094895
:100EC000844203D100210820FFF77EF910BD4FF4C2
:100ED0001651016003214171002101718171704738
:100EE000A086010000C000400000014000800940D1
:100EF00000C009402E2E5C447269766572735C7383
:100F00006F757263655C6C7063313778785F75619B
:100F100072742E630000000070B504460D46FC4854
:100F2000844208D0FB48844205D0FB48844202D06A
:100F3000FA48844200D105E040F2CF11AFF24C00F4
:100F400000F045FCF348844201D1257000E0257093
:100F500070BD10B50446EE48844208D0ED48844286
:100F600005D0ED48844202D0EC48844200D105E02F
:100F70004FF4F471AFF2840000F029FCE54884429C
:100F800001D1207810BD2078FCE72DE9FF5F804675
:100F90008A46934657465C460398012824D100258B
:100FA0001FE04FF0FF3905E0B9F1000F00D106E076
:100FB000A9F1010998F8140010F0200FF4D000BF37
:100FC000B9F1000F00D10EE0102607E017F8011B61
:100FD0004046FFF7A1FF761E641E6D1C0EB1002C6B
:100FE000F4D1002CDDD117E0002512E098F81400B0
:100FF00010F0200F00D10EE0102607E017F8011BBB
:101000004046FFF789FF641E761E6D1C0EB1002C52
:10101000F4D1002CEAD100BF284604B0BDE8F09F0F
:101020002DE9F05F0746894692469B464E46554657
:10103000BBF1010F1DD1002418E04FF0FF3805E08F
:10104000B8F1000F00D105E0A8F10108387D10F0DB
:10105000010FF5D000BFB8F1000F00D108E038460D
:10106000FFF777FF06F8010B6D1E641C002DE4D11D
:1010700010E000240BE0387D10F0010F00D108E0F3
:101080003846FFF766FF06F8010B641C6D1E002D45
:10109000F1D100BF2046BDE8F09F10B504469C4842
:1010A000844208D09B48844205D09B48844202D0A9
:1010B0009A48844200D105E040F27A21AFF2CC1088
:1010C00000F085FB9348844204D1207B40F040002F
:1010D000207303E0207B40F04000207310BD2DE919
:1010E000F04104460D4617468948844208D0894895
:1010F000844205D08848844202D08848844200D186
:1011000005E040F2A121AFF2142000F060FB0FB126
:10111000012F00D105E040F2A221AFF2282000F01B
:1011200056FB072D15D2DFE805F00406080A0C0E61
:10113000110001260DE002260BE0042609E0082636
:1011400007E0802605E04FF4807602E04FF4007659
:1011500000BF00BF6F48844214D15DB1012D09D09A
:10116000022D07D0052D05D0062D03D0032D01D06B
:10117000042D00D116E040F2BE21AFF2882000F02D
:1011800026FB0FE03DB1012D05D0022D03D0052D2A
:1011900001D0062D00D105E040F2C221AFF2AC2013
:1011A00000F015FB012F0AD15A48844203D1606830
:1011B0003043606013E06068304360600FE0554882
:1011C000844206D1606840F28F31B14308406060CC
:1011D00005E0606840F20731B14308406060BDE857
:1011E000F08110B504464A48844208D049488442F8
:1011F00005D04948844202D04848844200D105E0E5
:101200004FF43C71AFF2143000F0E1FA41488442EF
:1012100001D1007D10BD207DFCE710B504463C489F
:10122000844208D03B48844205D03B48844202D0E7
:101230003A48844200D105E040F20731AFF24C3029
:1012400000F0C5FAA06840F2CF31084010BD014659
:10125000087D10F0400F01D0002070470120FCE70E
:1012600070B506460C4600252948864208D0294814
:10127000864205D02848864202D02848864200D1BE
:1012800005E040F22D31AFF2943000F0A0FAE078A2
:1012900040B1E078012805D0E078022802D0E0785B
:1012A000032800D105E040F22E31AFF2B83000F053
:1012B0008EFAA07810B1A078012800D105E040F2A4
:1012C0002F31AFF2D03000F082FA207810B12078C0
:1012D000012800D105E04FF44C71AFF2E83000F086
:1012E00076FA607810B16078012800D105E040F20C
:1012F0003131AFF2004000F06AFA45F00105E078C4
:1013000070B101280ED002280FD0032810D110E0B0
:1013100000C00040000001400080094000C00940BA
:1013200000BF09E045F0400506E045F0800503E018
:1013300000BF45F0C00500BF00BF6078012801D1A3
:1013400045F004052078012801D145F00205A07878
:10135000012801D145F008054948864203D105F02E
:10136000CF00307202E005F0CF00307270BD002176
:101370008170C17001210170417070472DE9F04109
:1013800004460F4615463F48844208D03C488442F4
:1013900005D03D48844202D03C48844200D105E05B
:1013A0004FF46271AFF2B44000F011FA0DB1012DAB
:1013B00000D105E040F28931AFF2C84000F007FAF1
:1013C0000026012D09D13878012801D146F0020606
:1013D0007878012801D146F004062948844215D1C5
:1013E000012D10D1207B40F0800020730020207060
:1013F0002071207B20F0800020731020A06246F036
:101400000100206218E00020206215E0012D11D1BA
:10141000207B40F080002073002020702071207B12
:1014200020F080002073102084F8280046F001008E
:10143000206201E000202062BDE8F08170B5044622
:101440000D461048844208D00D48844205D00E480D
:10145000844202D00D48844200D105E040F2C931F7
:10146000AFF2705000F0B3F90548844203D1206A0E
:101470002843206202E0206A2843206270BD0000F9
:101480000000014000C000400080094000C0094049
:1014900010B504462CB1012211070020FFF7D0F847
:1014A00005E000224FF080511046FFF7C9F810BD4B
:1014B00010B504463CB1012C04D101070020FFF710
:1014C000D3F806E000BF4FF080510020FFF7D6F8B8
:1014D00000BF00BF10BD70B51C240025144E07E0EE
:1014E000E2B23146134800F03DF905462E44641B34
:1014F000002CF5D1622400250F4E07E0E2B2314600
:101500000C4800F02FF905462E44641B002CF5D141
:1015100070BD00BF0120FFF7BBFF0020FFF7C8FF31
:1015200000F064F900F0DEFA00BFFEE7FFF7F1FF1C
:1015300000C0072000C000401CC0072000E000BF22
:10154000FDE710B500220121A248FFF7C8FD00BF4A
:10155000A048FFF77CFE0128FAD011E09E484268BF
:1015600010301118002301229A48FFF70EFD30B108
:1015700099484068401CC0B29749486000E007E0C5
:1015800095480068C0B294494968C9B28842E5D11B
:1015900000BF91480068C0B28F494968C9B288420B
:1015A00008D1002201218B48FFF799FD00208B49CB
:1015B000087007E00120894908700122114685481A
:1015C000FFF78DFD10BD38B524E0002301226946E8
:1015D0008048FFF725FD0446DCB17F48C068C1B2F2
:1015E0007D488068401CC0B2814213D09DF8001035
:1015F0007948826800F58870815477488068401C7B
:10160000C0B27549886076480068401C744908601B
:1016100000E000E0D9E700BF38BD70B56D48FFF7C6
:10162000FCFD054605F00E04062C06D16948FFF7BF
:10163000D8FD064606F09E0600BF042C01D00C2CF7
:1016400001D1FFF7C0FF022C01D1FFF77AFF70BD77
:1016500010B586B001208DF8060000208DF8080036
:101660008DF8070002208DF8050000208DF8040099
:1016700001A8FFF723FA03208DF8050001A8FFF762
:101680001DFA04A8FFF723FC04A95248FFF7E3FA68
:1016900003A8FFF76CFE03A94E48FFF7E1FD012107
:1016A0004C48FFF7B4FB012200214A48FFF717FD21
:1016B000012202214748FFF712FD00204749087028
:1016C00045498860C86008604860052009210028F5
:1016D00007DACA06140E434A00F00F031B1FD45446
:1016E00003E0CA06130E404A135400BF052001212F
:1016F000814042094FF0E02303EB8202C2F800115F
:1017000000BF06B010BD2DE9F04180460D461446DD
:101710002E460027002211464046FFF7E0FC0FE06E
:101720002D48C16800F58870405C3070761C2A48EE
:10173000C068401CC0B22849C8607F1C601EC4B28B
:10174000002C07DD24488068C0B22349C968C9B2AB
:101750008842E5D1012200214046FFF7C0FC38460F
:10176000BDE8F0812DE9F04180460D4614462E4635
:101770000027002201214046FFF7B1FC0EE031783E
:101780001548026810308154761C10380068401CDF
:10179000C0B2114908607F1C601EC4B2002C08DD75
:1017A0000D484068C1B20C480068401CC0B281427C
:1017B000E5D10A48007810B9FFF7C3FE04E0012222
:1017C00011464046FFF78BFC3846BDE8F08100BF6C
:1017D000FEE7000000C000402C00001029000010AF
:1017E0000400001018ED00E000E400E00EB5002059
:1017F00002908DF802008DF804008DF8030001209E
:101800008DF8000004208DF801006846FFF756F9B6
:1018100008208DF801006846FFF750F909208DF87F
:1018200001006846FFF74AF90A208DF80100684672
:10183000FFF744F90E208DF801006846FFF73EF9E6
:101840000F208DF801006846FFF738F9012248F2B1
:1018500010711046FEF7F4FE00224FF48041012083
:10186000FEF7EEFE4FF400410120FEF7FDFE1021D1
:101870000120FEF7F9FE4FF480610120FEF7F4FE2F
:101880004FF480710120FEF7F9FE0EBD00BF01008C
:10189000A0F10100FBD1704770B5044600251BE0A4
:1018A00014F0800F05D04FF400710120FEF7DCFE2C
:1018B00004E04FF400710120FEF7E0FE4FF4807168
:1018C0000120FEF7D1FE6006040E4FF48071012066
:1018D000FEF7D4FE681CC5B2082DE1DB70BD70B503
:1018E00000250024002600BF15E06006040E01203C
:1018F000FEF7CEFE10F4804F01D044F001044FF407
:1019000080710120FEF7B0FE4FF480710120FEF7D8
:10191000B5FE681CC5B2082DE7DB204670BD2DE979
:10192000F04104460D46174600266019B0F1007FCD
:1019300000D215B90020BDE8F0814FF4004101202C
:10194000FEF79CFE0B20FFF7A7FFC4F30740FFF74D
:10195000A3FFC4F30720FFF79FFFE0B2FFF79CFF50
:10196000FF20FFF799FF002603E0FFF7B8FFB85507
:10197000761CAE42F9D34FF400410120FEF774FE0D
:101980000120D8E72DE9F04705460F4616464FF0EF
:1019900000080024A146A819401EB0F1007F00D223
:1019A00016B90020BDE8F0874FF400410120FEF792
:1019B00065FE0520FFF770FFFFF791FF80464FF4AB
:1019C00000410120FEF750FE4FF400410120FEF7D8
:1019D00055FE5020FFF760FF4FF400410120FEF755
:1019E00043FE4FF400410120FEF748FE0120FFF7BF
:1019F00053FF0020FFF750FF4FF400410120FEF796
:101A000033FE002440E04FF400410120FEF736FE93
:101A10000620FFF741FF4FF400410120FEF724FEAE
:101A20004FF400410120FEF729FE0220FFF734FFAA
:101A30002919C1F30740FFF72FFF2919C1F3072028
:101A4000FFF72AFF2919C8B2FFF726FF385DFFF715
:101A500023FF4FF400410120FEF706FE00BF4FF4C4
:101A600000410120FEF70AFE0520FFF715FFFFF7F2
:101A700036FF81464FF400410120FEF7F5FDB9F134
:101A8000030FECD0601CC4B2B442BCD34FF400418D
:101A90000120FEF7F3FD0620FFF7FEFE4FF40041A4
:101AA0000120FEF7E1FD4FF400410120FEF7E6FDC5
:101AB0005020FFF7F1FE4FF400410120FEF7D4FD66
:101AC0004FF400410120FEF7D9FD0120FFF7E4FEAD
:101AD0004046FFF7E1FE4FF400410120FEF7C4FD50
:101AE00001205FE72DE9F0470025002600240027AC
:101AF000A046A1464FF400410120FEF7BFFD05209E
:101B0000FFF7CAFEFFF7EBFE05464FF40041012048
:101B1000FEF7AAFD4FF400410120FEF7AFFD502073
:101B2000FFF7BAFE4FF400410120FEF79DFD4FF490
:101B300000410120FEF7A2FD0120FFF7ADFE0020CD
:101B4000FFF7AAFE4FF400410120FEF78DFD4FF490
:101B500000410120FEF792FD0620FFF79DFE4FF4A5
:101B600000410120FEF780FD4FF400410120FEF707
:101B700085FD6020FFF790FE4FF400410120FEF745
:101B800073FD00BF4FF400410120FEF777FD0520F3
:101B9000FFF782FEFFF7A3FE04464FF40041012049
:101BA000FEF762FD032CEDD00120BDE8F08770B593
:101BB00005460E460024012D17D1C103FEF75EFD38
:101BC0009F20FFF769FEFFF78AFE20430402FFF71C
:101BD00086FE20430402FFF782FE0443E90301204E
:101BE000FEF742FD3460012070BD0DB1022D1BD106
:101BF0004FF400410120FEF741FD9020FFF74CFE1D
:101C00000020FFF749FE0020FFF746FE2846FFF7B9
:101C100043FEFFF764FE04464FF400410120FEF747
:101C200023FD34600120DFE70020DDE700A24A0445
:101C300000000000000000000000000000000000A4
:101C40000000000000000000000000000000000094
:101C5000000000000000000048656C6C6F204E58CA
:101C6000502053656D69636F6E647563746F727332
:101C7000200A0D005541525420696E7465727275C8
:101C80007074206D6F64652064656D6F2075736975
:101C90006E672072696E6720627566666572200ADB
:101CA0000D09204D4355204C504331377878202D75
:101CB0002041524D20436F727465782D4D33200AB8
:101CC0000D09205541525430202D203936303062D4
:101CD0007073200A0D00554152542064656D6F20C9
:101CE0007465726D696E61746564210A006865735C
:101CF00068756E6A696520776168616861A3A10A89
:041D000000000000DF
:04000005000000CD2A
:00000001FF
